{
  "_format": "hh-sol-artifact-1",
  "contractName": "Subscription",
  "sourceName": "contracts/Subscription.sol",
  "abi": [
    {
      "inputs": [
        {
          "internalType": "address",
          "name": "_priceFeed",
          "type": "address"
        }
      ],
      "stateMutability": "nonpayable",
      "type": "constructor"
    },
    {
      "anonymous": false,
      "inputs": [
        {
          "indexed": true,
          "internalType": "address",
          "name": "previousOwner",
          "type": "address"
        },
        {
          "indexed": true,
          "internalType": "address",
          "name": "newOwner",
          "type": "address"
        }
      ],
      "name": "OwnershipTransferred",
      "type": "event"
    },
    {
      "anonymous": false,
      "inputs": [
        {
          "indexed": true,
          "internalType": "address",
          "name": "user",
          "type": "address"
        },
        {
          "indexed": false,
          "internalType": "uint256",
          "name": "plan",
          "type": "uint256"
        },
        {
          "indexed": false,
          "internalType": "uint256",
          "name": "amount",
          "type": "uint256"
        },
        {
          "indexed": false,
          "internalType": "uint256",
          "name": "duration",
          "type": "uint256"
        }
      ],
      "name": "Subscribed",
      "type": "event"
    },
    {
      "anonymous": false,
      "inputs": [
        {
          "indexed": true,
          "internalType": "address",
          "name": "user",
          "type": "address"
        },
        {
          "indexed": false,
          "internalType": "uint256",
          "name": "plan",
          "type": "uint256"
        },
        {
          "indexed": false,
          "internalType": "uint256",
          "name": "amount",
          "type": "uint256"
        },
        {
          "indexed": false,
          "internalType": "uint256",
          "name": "newEndTime",
          "type": "uint256"
        }
      ],
      "name": "SubscriptionExtended",
      "type": "event"
    },
    {
      "anonymous": false,
      "inputs": [
        {
          "indexed": true,
          "internalType": "address",
          "name": "to",
          "type": "address"
        },
        {
          "indexed": false,
          "internalType": "uint256",
          "name": "amount",
          "type": "uint256"
        }
      ],
      "name": "Withdrawn",
      "type": "event"
    },
    {
      "inputs": [],
      "name": "DAILY_PRICE",
      "outputs": [
        {
          "internalType": "uint256",
          "name": "",
          "type": "uint256"
        }
      ],
      "stateMutability": "view",
      "type": "function"
    },
    {
      "inputs": [],
      "name": "MONTHLY_PRICE",
      "outputs": [
        {
          "internalType": "uint256",
          "name": "",
          "type": "uint256"
        }
      ],
      "stateMutability": "view",
      "type": "function"
    },
    {
      "inputs": [],
      "name": "YEARLY_PRICE",
      "outputs": [
        {
          "internalType": "uint256",
          "name": "",
          "type": "uint256"
        }
      ],
      "stateMutability": "view",
      "type": "function"
    },
    {
      "inputs": [],
      "name": "getETHPrice",
      "outputs": [
        {
          "internalType": "uint256",
          "name": "",
          "type": "uint256"
        }
      ],
      "stateMutability": "view",
      "type": "function"
    },
    {
      "inputs": [
        {
          "internalType": "address",
          "name": "user",
          "type": "address"
        }
      ],
      "name": "getSubscriptionStatus",
      "outputs": [
        {
          "internalType": "bool",
          "name": "isActive",
          "type": "bool"
        },
        {
          "internalType": "uint256",
          "name": "remainingTime",
          "type": "uint256"
        }
      ],
      "stateMutability": "view",
      "type": "function"
    },
    {
      "inputs": [],
      "name": "owner",
      "outputs": [
        {
          "internalType": "address",
          "name": "",
          "type": "address"
        }
      ],
      "stateMutability": "view",
      "type": "function"
    },
    {
      "inputs": [],
      "name": "priceFeed",
      "outputs": [
        {
          "internalType": "address",
          "name": "",
          "type": "address"
        }
      ],
      "stateMutability": "view",
      "type": "function"
    },
    {
      "inputs": [],
      "name": "renounceOwnership",
      "outputs": [],
      "stateMutability": "nonpayable",
      "type": "function"
    },
    {
      "inputs": [
        {
          "internalType": "address",
          "name": "_priceFeed",
          "type": "address"
        }
      ],
      "name": "setPriceFeed",
      "outputs": [],
      "stateMutability": "nonpayable",
      "type": "function"
    },
    {
      "inputs": [
        {
          "internalType": "address",
          "name": "_usdcToken",
          "type": "address"
        }
      ],
      "name": "setUSDCToken",
      "outputs": [],
      "stateMutability": "nonpayable",
      "type": "function"
    },
    {
      "inputs": [
        {
          "internalType": "uint256",
          "name": "plan",
          "type": "uint256"
        }
      ],
      "name": "subscribeWithETH",
      "outputs": [],
      "stateMutability": "payable",
      "type": "function"
    },
    {
      "inputs": [
        {
          "internalType": "uint256",
          "name": "plan",
          "type": "uint256"
        }
      ],
      "name": "subscribeWithUSDC",
      "outputs": [],
      "stateMutability": "nonpayable",
      "type": "function"
    },
    {
      "inputs": [
        {
          "internalType": "address",
          "name": "",
          "type": "address"
        }
      ],
      "name": "subscriptions",
      "outputs": [
        {
          "internalType": "uint256",
          "name": "startTime",
          "type": "uint256"
        },
        {
          "internalType": "uint256",
          "name": "endTime",
          "type": "uint256"
        },
        {
          "internalType": "bool",
          "name": "isActive",
          "type": "bool"
        }
      ],
      "stateMutability": "view",
      "type": "function"
    },
    {
      "inputs": [
        {
          "internalType": "address",
          "name": "newOwner",
          "type": "address"
        }
      ],
      "name": "transferOwnership",
      "outputs": [],
      "stateMutability": "nonpayable",
      "type": "function"
    },
    {
      "inputs": [],
      "name": "usdcToken",
      "outputs": [
        {
          "internalType": "address",
          "name": "",
          "type": "address"
        }
      ],
      "stateMutability": "view",
      "type": "function"
    },
    {
      "inputs": [
        {
          "internalType": "address",
          "name": "token",
          "type": "address"
        },
        {
          "internalType": "uint256",
          "name": "amount",
          "type": "uint256"
        }
      ],
      "name": "withdraw",
      "outputs": [],
      "stateMutability": "nonpayable",
      "type": "function"
    },
    {
      "stateMutability": "payable",
      "type": "receive"
    }
  ],
  "bytecode": "0x6080604052600280546001600160a01b03191673036cbd53842c5426634e7929541ec2318f3dcf7e17905534801561003657600080fd5b50604051610eb7380380610eb7833981016040819052610055916101b9565b60016000556100633361008d565b600380546001600160a01b0319166001600160a01b038316179055610087336100df565b506101e9565b600180546001600160a01b038381166001600160a01b0319831681179093556040519116919082907f8be0079c531659141344cd1fd0a4f28419497f9722a3daafe3b4186f6b6457e090600090a35050565b6100e761015d565b6001600160a01b0381166101515760405162461bcd60e51b815260206004820152602660248201527f4f776e61626c653a206e6577206f776e657220697320746865207a65726f206160448201526564647265737360d01b60648201526084015b60405180910390fd5b61015a8161008d565b50565b6001546001600160a01b031633146101b75760405162461bcd60e51b815260206004820181905260248201527f4f776e61626c653a2063616c6c6572206973206e6f7420746865206f776e65726044820152606401610148565b565b6000602082840312156101cb57600080fd5b81516001600160a01b03811681146101e257600080fd5b9392505050565b610cbf806101f86000396000f3fe6080604052600436106100f75760003560e01c80638fb456d71161008a578063a607a8d911610059578063a607a8d91461029d578063f046395a146102b5578063f2fde38b14610311578063f3fef3a31461033157600080fd5b80638fb456d714610231578063921121621461024e5780639f809c8f14610261578063a06443771461027d57600080fd5b8063715018a6116100c6578063715018a6146101be578063724e78da146101d3578063741bef1a146101f35780638da5cb5b1461021357600080fd5b80630f5a9d011461010357806311eac855146101255780631ddda9b61461016257806350ada7281461019957600080fd5b366100fe57005b600080fd5b34801561010f57600080fd5b5061012361011e366004610b87565b610351565b005b34801561013157600080fd5b50600254610145906001600160a01b031681565b6040516001600160a01b0390911681526020015b60405180910390f35b34801561016e57600080fd5b5061018261017d366004610b87565b61037b565b604080519215158352602083019190915201610159565b3480156101a557600080fd5b506101b0622625a081565b604051908152602001610159565b3480156101ca57600080fd5b506101236103fb565b3480156101df57600080fd5b506101236101ee366004610b87565b61040f565b3480156101ff57600080fd5b50600354610145906001600160a01b031681565b34801561021f57600080fd5b506001546001600160a01b0316610145565b34801561023d57600080fd5b506101b068015af1d78b58c4000081565b61012361025c366004610ba9565b610439565b34801561026d57600080fd5b506101b06722b1c8c1227a000081565b34801561028957600080fd5b50610123610298366004610ba9565b6105fe565b3480156102a957600080fd5b50642e90edd0006101b0565b3480156102c157600080fd5b506102f46102d0366004610b87565b60046020526000908152604090208054600182015460029092015490919060ff1683565b604080519384526020840192909252151590820152606001610159565b34801561031d57600080fd5b5061012361032c366004610b87565b6107cd565b34801561033d57600080fd5b5061012361034c366004610bc2565b610843565b610359610996565b600280546001600160a01b0319166001600160a01b0392909216919091179055565b6001600160a01b03811660009081526004602090815260408083208151606081018352815481526001820154938101939093526002015460ff16158015918301829052839291906103cf5750806020015142105b9250428160200151116103e35760006103f3565b4281602001516103f39190610c02565b915050915091565b610403610996565b61040d60006109f0565b565b610417610996565b600380546001600160a01b0319166001600160a01b0392909216919091179055565b610441610a42565b80600114806104505750806002145b8061045b5750806003145b61049b5760405162461bcd60e51b815260206004820152600c60248201526b24b73b30b634b210383630b760a11b60448201526064015b60405180910390fd5b600080826001036104c1576104b4622625a0601e610c1b565b915062278d0090506104f1565b826002036104de57506722b1c8c1227a0000905062278d006104f1565b5068015af1d78b58c4000090506301e133805b642e90edd00060008161050c85670de0b6b3a7640000610c1b565b6105169190610c32565b9050803410156105605760405162461bcd60e51b8152602060048201526015602482015274125b9cdd59999a58da595b9d08115512081cd95b9d605a1b6044820152606401610492565b803411156105a057336108fc6105768334610c02565b6040518115909202916000818181858888f1935050505015801561059e573d6000803e3d6000fd5b505b6105aa3384610a9b565b604080518681526020810186905290810184905233907f5ad333a6d56a7ddb1e78d9ecb8047e9dafcb890a41a227ede8d950259a1f0f759060600160405180910390a2505050506105fb6001600055565b50565b610606610a42565b80600114806106155750806002145b806106205750806003145b61065b5760405162461bcd60e51b815260206004820152600c60248201526b24b73b30b634b210383630b760a11b6044820152606401610492565b6000808260010361068157610674622625a0601e610c1b565b915062278d0090506106b1565b8260020361069e57506722b1c8c1227a0000905062278d006106b1565b5068015af1d78b58c4000090506301e133805b6002546040516323b872dd60e01b8152336004820152306024820152604481018490526000916001600160a01b0316906323b872dd906064016020604051808303816000875af1158015610709573d6000803e3d6000fd5b505050506040513d601f19601f8201168201806040525081019061072d9190610c54565b9050806107735760405162461bcd60e51b81526020600482015260146024820152731554d110c81d1c985b9cd9995c8819985a5b195960621b6044820152606401610492565b61077d3383610a9b565b604080518581526020810185905290810183905233907f5ad333a6d56a7ddb1e78d9ecb8047e9dafcb890a41a227ede8d950259a1f0f759060600160405180910390a25050506105fb6001600055565b6107d5610996565b6001600160a01b03811661083a5760405162461bcd60e51b815260206004820152602660248201527f4f776e61626c653a206e6577206f776e657220697320746865207a65726f206160448201526564647265737360d01b6064820152608401610492565b6105fb816109f0565b61084b610996565b73eeeeeeeeeeeeeeeeeeeeeeeeeeeeeeeeeeeeeeed196001600160a01b038316016108b0576001546040516001600160a01b039091169082156108fc029083906000818181858888f193505050501580156108aa573d6000803e3d6000fd5b50610944565b816001600160a01b031663a9059cbb6108d16001546001600160a01b031690565b6040516001600160e01b031960e084901b1681526001600160a01b039091166004820152602481018490526044016020604051808303816000875af115801561091e573d6000803e3d6000fd5b505050506040513d601f19601f820116820180604052508101906109429190610c54565b505b6001546001600160a01b03166001600160a01b03167f7084f5476618d8e60b11ef0d7d3f06914655adb8793e28ff7f018d4c76d505d58260405161098a91815260200190565b60405180910390a25050565b6001546001600160a01b0316331461040d5760405162461bcd60e51b815260206004820181905260248201527f4f776e61626c653a2063616c6c6572206973206e6f7420746865206f776e65726044820152606401610492565b600180546001600160a01b038381166001600160a01b0319831681179093556040519116919082907f8be0079c531659141344cd1fd0a4f28419497f9722a3daafe3b4186f6b6457e090600090a35050565b600260005403610a945760405162461bcd60e51b815260206004820152601f60248201527f5265656e7472616e637947756172643a207265656e7472616e742063616c6c006044820152606401610492565b6002600055565b6001600160a01b0382166000908152600460205260409020600281015460ff168015610aca5750428160010154115b15610b3f5781816001016000828254610ae39190610c76565b909155505060018101546040805160008082526020820152908101919091526001600160a01b038416907fc8c928f301ebe78bb4c6c5376d72cf4169bd78ecb3cdb6c2babde81e5b0c38cc9060600160405180910390a2505050565b42808255610b4e908390610c76565b60018083019190915560028201805460ff19169091179055505050565b80356001600160a01b0381168114610b8257600080fd5b919050565b600060208284031215610b9957600080fd5b610ba282610b6b565b9392505050565b600060208284031215610bbb57600080fd5b5035919050565b60008060408385031215610bd557600080fd5b610bde83610b6b565b946020939093013593505050565b634e487b7160e01b600052601160045260246000fd5b81810381811115610c1557610c15610bec565b92915050565b8082028115828204841417610c1557610c15610bec565b600082610c4f57634e487b7160e01b600052601260045260246000fd5b500490565b600060208284031215610c6657600080fd5b81518015158114610ba257600080fd5b80820180821115610c1557610c15610bec56fea26469706673582212209bfccbbade893866e440d4fad715d6704770fa087295b3c71c5f2b7656ba901664736f6c63430008130033",
  "linkReferences": {},
  "deployedLinkReferences": {}
}