{
  "_format": "hh-sol-artifact-1",
  "contractName": "Subscription",
  "sourceName": "contracts/Subscription.sol",
  "abi": [
    {
      "inputs": [
        {
          "internalType": "address",
          "name": "_priceFeed",
          "type": "address"
        }
      ],
      "stateMutability": "nonpayable",
      "type": "constructor"
    },
    {
      "anonymous": false,
      "inputs": [
        {
          "indexed": true,
          "internalType": "address",
          "name": "previousOwner",
          "type": "address"
        },
        {
          "indexed": true,
          "internalType": "address",
          "name": "newOwner",
          "type": "address"
        }
      ],
      "name": "OwnershipTransferred",
      "type": "event"
    },
    {
      "anonymous": false,
      "inputs": [
        {
          "indexed": true,
          "internalType": "address",
          "name": "user",
          "type": "address"
        },
        {
          "indexed": false,
          "internalType": "uint256",
          "name": "plan",
          "type": "uint256"
        },
        {
          "indexed": false,
          "internalType": "uint256",
          "name": "amount",
          "type": "uint256"
        },
        {
          "indexed": false,
          "internalType": "uint256",
          "name": "duration",
          "type": "uint256"
        }
      ],
      "name": "Subscribed",
      "type": "event"
    },
    {
      "anonymous": false,
      "inputs": [
        {
          "indexed": true,
          "internalType": "address",
          "name": "user",
          "type": "address"
        },
        {
          "indexed": false,
          "internalType": "uint256",
          "name": "plan",
          "type": "uint256"
        },
        {
          "indexed": false,
          "internalType": "uint256",
          "name": "amount",
          "type": "uint256"
        },
        {
          "indexed": false,
          "internalType": "uint256",
          "name": "newEndTime",
          "type": "uint256"
        }
      ],
      "name": "SubscriptionExtended",
      "type": "event"
    },
    {
      "anonymous": false,
      "inputs": [
        {
          "indexed": true,
          "internalType": "address",
          "name": "to",
          "type": "address"
        },
        {
          "indexed": false,
          "internalType": "uint256",
          "name": "amount",
          "type": "uint256"
        }
      ],
      "name": "Withdrawn",
      "type": "event"
    },
    {
      "inputs": [],
      "name": "DAILY_PRICE",
      "outputs": [
        {
          "internalType": "uint256",
          "name": "",
          "type": "uint256"
        }
      ],
      "stateMutability": "view",
      "type": "function"
    },
    {
      "inputs": [],
      "name": "MONTHLY_PRICE",
      "outputs": [
        {
          "internalType": "uint256",
          "name": "",
          "type": "uint256"
        }
      ],
      "stateMutability": "view",
      "type": "function"
    },
    {
      "inputs": [],
      "name": "YEARLY_PRICE",
      "outputs": [
        {
          "internalType": "uint256",
          "name": "",
          "type": "uint256"
        }
      ],
      "stateMutability": "view",
      "type": "function"
    },
    {
      "inputs": [],
      "name": "getETHPrice",
      "outputs": [
        {
          "internalType": "uint256",
          "name": "",
          "type": "uint256"
        }
      ],
      "stateMutability": "view",
      "type": "function"
    },
    {
      "inputs": [
        {
          "internalType": "address",
          "name": "user",
          "type": "address"
        }
      ],
      "name": "getSubscriptionStatus",
      "outputs": [
        {
          "internalType": "bool",
          "name": "isActive",
          "type": "bool"
        },
        {
          "internalType": "uint256",
          "name": "remainingTime",
          "type": "uint256"
        }
      ],
      "stateMutability": "view",
      "type": "function"
    },
    {
      "inputs": [],
      "name": "owner",
      "outputs": [
        {
          "internalType": "address",
          "name": "",
          "type": "address"
        }
      ],
      "stateMutability": "view",
      "type": "function"
    },
    {
      "inputs": [],
      "name": "priceFeed",
      "outputs": [
        {
          "internalType": "address",
          "name": "",
          "type": "address"
        }
      ],
      "stateMutability": "view",
      "type": "function"
    },
    {
      "inputs": [],
      "name": "renounceOwnership",
      "outputs": [],
      "stateMutability": "nonpayable",
      "type": "function"
    },
    {
      "inputs": [
        {
          "internalType": "address",
          "name": "_priceFeed",
          "type": "address"
        }
      ],
      "name": "setPriceFeed",
      "outputs": [],
      "stateMutability": "nonpayable",
      "type": "function"
    },
    {
      "inputs": [
        {
          "internalType": "address",
          "name": "_usdcToken",
          "type": "address"
        }
      ],
      "name": "setUSDCToken",
      "outputs": [],
      "stateMutability": "nonpayable",
      "type": "function"
    },
    {
      "inputs": [
        {
          "internalType": "uint256",
          "name": "plan",
          "type": "uint256"
        }
      ],
      "name": "subscribeWithETH",
      "outputs": [],
      "stateMutability": "payable",
      "type": "function"
    },
    {
      "inputs": [
        {
          "internalType": "uint256",
          "name": "plan",
          "type": "uint256"
        }
      ],
      "name": "subscribeWithUSDC",
      "outputs": [],
      "stateMutability": "nonpayable",
      "type": "function"
    },
    {
      "inputs": [
        {
          "internalType": "address",
          "name": "",
          "type": "address"
        }
      ],
      "name": "subscriptions",
      "outputs": [
        {
          "internalType": "uint256",
          "name": "startTime",
          "type": "uint256"
        },
        {
          "internalType": "uint256",
          "name": "endTime",
          "type": "uint256"
        },
        {
          "internalType": "bool",
          "name": "isActive",
          "type": "bool"
        }
      ],
      "stateMutability": "view",
      "type": "function"
    },
    {
      "inputs": [
        {
          "internalType": "address",
          "name": "newOwner",
          "type": "address"
        }
      ],
      "name": "transferOwnership",
      "outputs": [],
      "stateMutability": "nonpayable",
      "type": "function"
    },
    {
      "inputs": [],
      "name": "usdcToken",
      "outputs": [
        {
          "internalType": "address",
          "name": "",
          "type": "address"
        }
      ],
      "stateMutability": "view",
      "type": "function"
    },
    {
      "inputs": [
        {
          "internalType": "address",
          "name": "token",
          "type": "address"
        },
        {
          "internalType": "uint256",
          "name": "amount",
          "type": "uint256"
        }
      ],
      "name": "withdraw",
      "outputs": [],
      "stateMutability": "nonpayable",
      "type": "function"
    },
    {
      "stateMutability": "payable",
      "type": "receive"
    }
  ],
  "bytecode": "0x60803461015057601f610cff38819003918201601f19168301916001600160401b038311848410176101555780849260209460405283398101031261015057516001600160a01b0390818116908190036101505760016000556100613361016b565b60018060a01b031973036cbd53842c5426634e7929541ec2318f3dcf7e81600254161760025560035416176003553390600154160361010c5733156100b8576100a93361016b565b604051610b4a90816101b58239f35b60405162461bcd60e51b815260206004820152602660248201527f4f776e61626c653a206e6577206f776e657220697320746865207a65726f206160448201526564647265737360d01b6064820152608490fd5b606460405162461bcd60e51b815260206004820152602060248201527f4f776e61626c653a2063616c6c6572206973206e6f7420746865206f776e65726044820152fd5b600080fd5b634e487b7160e01b600052604160045260246000fd5b600180546001600160a01b039283166001600160a01b0319821681179092559091167f8be0079c531659141344cd1fd0a4f28419497f9722a3daafe3b4186f6b6457e0600080a356fe60406080815260049081361015610020575b5050361561001e57600080fd5b005b600091823560e01c80630f5a9d01146108a557806311eac8551461087c5780631ddda9b6146107c757806350ada728146107a9578063715018a61461074c578063724e78da14610709578063741bef1a146106e05780638da5cb5b146106b75780638fb456d714610693578063921121621461051d5780639f809c8f146104fa578063a064437714610363578063a607a8d91461033f578063f046395a146102ed578063f2fde38b146102275763f3fef3a3146100dd5750610011565b346102235781600319360112610223576100f56108e5565b60243591610101610900565b6001600160a01b039182169073eeeeeeeeeeeeeeeeeeeeeeeeeeeeeeeeeeeeeeee820361018a57505083808080858560015416828215610181575bf115610175577f7084f5476618d8e60b11ef0d7d3f06914655adb8793e28ff7f018d4c76d505d5916020915b600154169351908152a280f35b505051903d90823e3d90fd5b506108fc61013c565b6020906044846001969496541691888851978894859363a9059cbb60e01b85528401528660248401525af1918215610219577f7084f5476618d8e60b11ef0d7d3f06914655adb8793e28ff7f018d4c76d505d5936020936101ec575b50610168565b61020b90843d8111610212575b6102038183610958565b8101906109ee565b50386101e6565b503d6101f9565b84513d87823e3d90fd5b8280fd5b5034610223576020366003190112610223576102416108e5565b9061024a610900565b6001600160a01b0391821692831561029b575050600154826001600160601b0360a01b821617600155167f8be0079c531659141344cd1fd0a4f28419497f9722a3daafe3b4186f6b6457e08380a380f35b906020608492519162461bcd60e51b8352820152602660248201527f4f776e61626c653a206e6577206f776e657220697320746865207a65726f206160448201526564647265737360d01b6064820152fd5b50346102235760203660031901126102235760609282916001600160a01b036103146108e5565b168252602052209081549160ff60026001830154920154169082519384526020840152151590820152f35b50503461035f578160031936011261035f5760209051642e90edd0008152f35b5080fd5b5082903461035f57602036600319011261035f57803590610382610a06565b600182148080156104f0575b80156104e6575b61039e906109b3565b156104b65763047868c062278d00915b60025486516323b872dd60e01b815233838201523060248201526044810184905290602090829060649082908a906001600160a01b03165af19081156104ac57869161048e575b5015610454575061044a7f5ad333a6d56a7ddb1e78d9ecb8047e9dafcb890a41a227ede8d950259a1f0f7593949561042d8433610a69565b519283923396846040919493926060820195825260208201520152565b0390a26001815580f35b606490602087519162461bcd60e51b835282015260146024820152731554d110c81d1c985b9cd9995c8819985a5b195960621b6044820152fd5b6104a6915060203d8111610212576102038183610958565b876103f5565b87513d88823e3d90fd5b600282036104d1576722b1c8c1227a000062278d00916103ae565b68015af1d78b58c400006301e13380916103ae565b5060038314610395565b506002831461038e565b50503461035f578160031936011261035f57602090516722b1c8c1227a00008152f35b50602036600319011261022357803590610535610a06565b60018214808015610689575b801561067f575b610551906109b3565b1561064f5763047868c062278d00915b670de0b6b3a764000080830290838204148315171561063c57642e90edd000900490813410610601575080869134116105c7575b505061044a7f5ad333a6d56a7ddb1e78d9ecb8047e9dafcb890a41a227ede8d950259a1f0f75939461042d8433610a69565b81806105d4819334610990565b8181156105f8575b3390f1156105eb578438610595565b50505051903d90823e3d90fd5b506108fc6105dc565b606490602087519162461bcd60e51b83528201526015602482015274125b9cdd59999a58da595b9d08115512081cd95b9d605a1b6044820152fd5b634e487b7160e01b875260118252602487fd5b6002820361066a576722b1c8c1227a000062278d0091610561565b68015af1d78b58c400006301e1338091610561565b5060038314610548565b5060028314610541565b50503461035f578160031936011261035f576020905168015af1d78b58c400008152f35b50503461035f578160031936011261035f5760015490516001600160a01b039091168152602090f35b50503461035f578160031936011261035f5760035490516001600160a01b039091168152602090f35b8334610749576020366003190112610749576107236108e5565b61072b610900565b60018060a01b03166001600160601b0360a01b600354161760035580f35b80fd5b8334610749578060031936011261074957610765610900565b600180546001600160a01b0319811690915581906001600160a01b03167f8be0079c531659141344cd1fd0a4f28419497f9722a3daafe3b4186f6b6457e08280a380f35b50503461035f578160031936011261035f5760209051622625a08152f35b509134610749576020366003190112610749576001600160a01b036107ea6108e5565b1681528260205281812082516060810181811067ffffffffffffffff8211176108695784809650528154815260ff6002600184015493846020850152015416151593849101528261085e575b428111156108585761084a91504290610990565b825191151582526020820152f35b5061084a565b809250421091610836565b634e487b7160e01b845260418652602484fd5b50503461035f578160031936011261035f5760025490516001600160a01b039091168152602090f35b8334610749576020366003190112610749576108bf6108e5565b6108c7610900565b60018060a01b03166001600160601b0360a01b600254161760025580f35b600435906001600160a01b03821682036108fb57565b600080fd5b6001546001600160a01b0316330361091457565b606460405162461bcd60e51b815260206004820152602060248201527f4f776e61626c653a2063616c6c6572206973206e6f7420746865206f776e65726044820152fd5b90601f8019910116810190811067ffffffffffffffff82111761097a57604052565b634e487b7160e01b600052604160045260246000fd5b9190820391821161099d57565b634e487b7160e01b600052601160045260246000fd5b156109ba57565b60405162461bcd60e51b815260206004820152600c60248201526b24b73b30b634b210383630b760a11b6044820152606490fd5b908160209103126108fb575180151581036108fb5790565b600260005414610a17576002600055565b60405162461bcd60e51b815260206004820152601f60248201527f5265656e7472616e637947756172643a207265656e7472616e742063616c6c006044820152606490fd5b9190820180921161099d57565b6001600160a01b0316600081815260046020526040902060028101805492939260ff811680610b07575b15610ae75750507fc8c928f301ebe78bb4c6c5376d72cf4169bd78ecb3cdb6c2babde81e5b0c38cc91610acd600160609301918254610a5c565b8091556040519060008252600060208301526040820152a2565b919093506001610afb819442845542610a5c565b91015560ff1916179055565b5060018301544210610a9356fea26469706673582212209e0b1fa55dbf8786be90632cc83414a49a5528a11e20b46b26d07b39c770cd0864736f6c63430008130033",
  "linkReferences": {},
  "deployedLinkReferences": {}
}