{"contracts/Subscription.sol":{"Subscription":{"abi":[{"inputs":[{"internalType":"address","name":"_priceFeed","type":"address"}],"stateMutability":"nonpayable","type":"constructor"},{"anonymous":false,"inputs":[{"indexed":true,"internalType":"address","name":"previousOwner","type":"address"},{"indexed":true,"internalType":"address","name":"newOwner","type":"address"}],"name":"OwnershipTransferred","type":"event"},{"anonymous":false,"inputs":[{"indexed":true,"internalType":"address","name":"user","type":"address"},{"indexed":false,"internalType":"uint256","name":"plan","type":"uint256"},{"indexed":false,"internalType":"uint256","name":"amount","type":"uint256"},{"indexed":false,"internalType":"uint256","name":"duration","type":"uint256"}],"name":"Subscribed","type":"event"},{"anonymous":false,"inputs":[{"indexed":true,"internalType":"address","name":"user","type":"address"},{"indexed":false,"internalType":"uint256","name":"plan","type":"uint256"},{"indexed":false,"internalType":"uint256","name":"amount","type":"uint256"},{"indexed":false,"internalType":"uint256","name":"newEndTime","type":"uint256"}],"name":"SubscriptionExtended","type":"event"},{"anonymous":false,"inputs":[{"indexed":true,"internalType":"address","name":"to","type":"address"},{"indexed":false,"internalType":"uint256","name":"amount","type":"uint256"}],"name":"Withdrawn","type":"event"},{"inputs":[],"name":"DAILY_PRICE","outputs":[{"internalType":"uint256","name":"","type":"uint256"}],"stateMutability":"view","type":"function"},{"inputs":[],"name":"MONTHLY_PRICE","outputs":[{"internalType":"uint256","name":"","type":"uint256"}],"stateMutability":"view","type":"function"},{"inputs":[],"name":"YEARLY_PRICE","outputs":[{"internalType":"uint256","name":"","type":"uint256"}],"stateMutability":"view","type":"function"},{"inputs":[],"name":"getETHPrice","outputs":[{"internalType":"uint256","name":"","type":"uint256"}],"stateMutability":"view","type":"function"},{"inputs":[{"internalType":"address","name":"user","type":"address"}],"name":"getSubscriptionStatus","outputs":[{"internalType":"bool","name":"isActive","type":"bool"},{"internalType":"uint256","name":"remainingTime","type":"uint256"}],"stateMutability":"view","type":"function"},{"inputs":[],"name":"owner","outputs":[{"internalType":"address","name":"","type":"address"}],"stateMutability":"view","type":"function"},{"inputs":[],"name":"priceFeed","outputs":[{"internalType":"address","name":"","type":"address"}],"stateMutability":"view","type":"function"},{"inputs":[],"name":"renounceOwnership","outputs":[],"stateMutability":"nonpayable","type":"function"},{"inputs":[{"internalType":"address","name":"_priceFeed","type":"address"}],"name":"setPriceFeed","outputs":[],"stateMutability":"nonpayable","type":"function"},{"inputs":[{"internalType":"address","name":"_usdcToken","type":"address"}],"name":"setUSDCToken","outputs":[],"stateMutability":"nonpayable","type":"function"},{"inputs":[{"internalType":"uint256","name":"plan","type":"uint256"}],"name":"subscribeWithETH","outputs":[],"stateMutability":"payable","type":"function"},{"inputs":[{"internalType":"uint256","name":"plan","type":"uint256"}],"name":"subscribeWithUSDC","outputs":[],"stateMutability":"nonpayable","type":"function"},{"inputs":[{"internalType":"address","name":"","type":"address"}],"name":"subscriptions","outputs":[{"internalType":"uint256","name":"startTime","type":"uint256"},{"internalType":"uint256","name":"endTime","type":"uint256"},{"internalType":"bool","name":"isActive","type":"bool"}],"stateMutability":"view","type":"function"},{"inputs":[{"internalType":"address","name":"newOwner","type":"address"}],"name":"transferOwnership","outputs":[],"stateMutability":"nonpayable","type":"function"},{"inputs":[],"name":"usdcToken","outputs":[{"internalType":"address","name":"","type":"address"}],"stateMutability":"view","type":"function"},{"inputs":[{"internalType":"address","name":"token","type":"address"},{"internalType":"uint256","name":"amount","type":"uint256"}],"name":"withdraw","outputs":[],"stateMutability":"nonpayable","type":"function"},{"stateMutability":"payable","type":"receive"}],"evm":{"bytecode":{"linkReferences":{},"object":"60803461015057601f610cff38819003918201601f19168301916001600160401b038311848410176101555780849260209460405283398101031261015057516001600160a01b0390818116908190036101505760016000556100613361016b565b60018060a01b031973036cbd53842c5426634e7929541ec2318f3dcf7e81600254161760025560035416176003553390600154160361010c5733156100b8576100a93361016b565b604051610b4a90816101b58239f35b60405162461bcd60e51b815260206004820152602660248201527f4f776e61626c653a206e6577206f776e657220697320746865207a65726f206160448201526564647265737360d01b6064820152608490fd5b606460405162461bcd60e51b815260206004820152602060248201527f4f776e61626c653a2063616c6c6572206973206e6f7420746865206f776e65726044820152fd5b600080fd5b634e487b7160e01b600052604160045260246000fd5b600180546001600160a01b039283166001600160a01b0319821681179092559091167f8be0079c531659141344cd1fd0a4f28419497f9722a3daafe3b4186f6b6457e0600080a356fe60406080815260049081361015610020575b5050361561001e57600080fd5b005b600091823560e01c80630f5a9d01146108a557806311eac8551461087c5780631ddda9b6146107c757806350ada728146107a9578063715018a61461074c578063724e78da14610709578063741bef1a146106e05780638da5cb5b146106b75780638fb456d714610693578063921121621461051d5780639f809c8f146104fa578063a064437714610363578063a607a8d91461033f578063f046395a146102ed578063f2fde38b146102275763f3fef3a3146100dd5750610011565b346102235781600319360112610223576100f56108e5565b60243591610101610900565b6001600160a01b039182169073eeeeeeeeeeeeeeeeeeeeeeeeeeeeeeeeeeeeeeee820361018a57505083808080858560015416828215610181575bf115610175577f7084f5476618d8e60b11ef0d7d3f06914655adb8793e28ff7f018d4c76d505d5916020915b600154169351908152a280f35b505051903d90823e3d90fd5b506108fc61013c565b6020906044846001969496541691888851978894859363a9059cbb60e01b85528401528660248401525af1918215610219577f7084f5476618d8e60b11ef0d7d3f06914655adb8793e28ff7f018d4c76d505d5936020936101ec575b50610168565b61020b90843d8111610212575b6102038183610958565b8101906109ee565b50386101e6565b503d6101f9565b84513d87823e3d90fd5b8280fd5b5034610223576020366003190112610223576102416108e5565b9061024a610900565b6001600160a01b0391821692831561029b575050600154826001600160601b0360a01b821617600155167f8be0079c531659141344cd1fd0a4f28419497f9722a3daafe3b4186f6b6457e08380a380f35b906020608492519162461bcd60e51b8352820152602660248201527f4f776e61626c653a206e6577206f776e657220697320746865207a65726f206160448201526564647265737360d01b6064820152fd5b50346102235760203660031901126102235760609282916001600160a01b036103146108e5565b168252602052209081549160ff60026001830154920154169082519384526020840152151590820152f35b50503461035f578160031936011261035f5760209051642e90edd0008152f35b5080fd5b5082903461035f57602036600319011261035f57803590610382610a06565b600182148080156104f0575b80156104e6575b61039e906109b3565b156104b65763047868c062278d00915b60025486516323b872dd60e01b815233838201523060248201526044810184905290602090829060649082908a906001600160a01b03165af19081156104ac57869161048e575b5015610454575061044a7f5ad333a6d56a7ddb1e78d9ecb8047e9dafcb890a41a227ede8d950259a1f0f7593949561042d8433610a69565b519283923396846040919493926060820195825260208201520152565b0390a26001815580f35b606490602087519162461bcd60e51b835282015260146024820152731554d110c81d1c985b9cd9995c8819985a5b195960621b6044820152fd5b6104a6915060203d8111610212576102038183610958565b876103f5565b87513d88823e3d90fd5b600282036104d1576722b1c8c1227a000062278d00916103ae565b68015af1d78b58c400006301e13380916103ae565b5060038314610395565b506002831461038e565b50503461035f578160031936011261035f57602090516722b1c8c1227a00008152f35b50602036600319011261022357803590610535610a06565b60018214808015610689575b801561067f575b610551906109b3565b1561064f5763047868c062278d00915b670de0b6b3a764000080830290838204148315171561063c57642e90edd000900490813410610601575080869134116105c7575b505061044a7f5ad333a6d56a7ddb1e78d9ecb8047e9dafcb890a41a227ede8d950259a1f0f75939461042d8433610a69565b81806105d4819334610990565b8181156105f8575b3390f1156105eb578438610595565b50505051903d90823e3d90fd5b506108fc6105dc565b606490602087519162461bcd60e51b83528201526015602482015274125b9cdd59999a58da595b9d08115512081cd95b9d605a1b6044820152fd5b634e487b7160e01b875260118252602487fd5b6002820361066a576722b1c8c1227a000062278d0091610561565b68015af1d78b58c400006301e1338091610561565b5060038314610548565b5060028314610541565b50503461035f578160031936011261035f576020905168015af1d78b58c400008152f35b50503461035f578160031936011261035f5760015490516001600160a01b039091168152602090f35b50503461035f578160031936011261035f5760035490516001600160a01b039091168152602090f35b8334610749576020366003190112610749576107236108e5565b61072b610900565b60018060a01b03166001600160601b0360a01b600354161760035580f35b80fd5b8334610749578060031936011261074957610765610900565b600180546001600160a01b0319811690915581906001600160a01b03167f8be0079c531659141344cd1fd0a4f28419497f9722a3daafe3b4186f6b6457e08280a380f35b50503461035f578160031936011261035f5760209051622625a08152f35b509134610749576020366003190112610749576001600160a01b036107ea6108e5565b1681528260205281812082516060810181811067ffffffffffffffff8211176108695784809650528154815260ff6002600184015493846020850152015416151593849101528261085e575b428111156108585761084a91504290610990565b825191151582526020820152f35b5061084a565b809250421091610836565b634e487b7160e01b845260418652602484fd5b50503461035f578160031936011261035f5760025490516001600160a01b039091168152602090f35b8334610749576020366003190112610749576108bf6108e5565b6108c7610900565b60018060a01b03166001600160601b0360a01b600254161760025580f35b600435906001600160a01b03821682036108fb57565b600080fd5b6001546001600160a01b0316330361091457565b606460405162461bcd60e51b815260206004820152602060248201527f4f776e61626c653a2063616c6c6572206973206e6f7420746865206f776e65726044820152fd5b90601f8019910116810190811067ffffffffffffffff82111761097a57604052565b634e487b7160e01b600052604160045260246000fd5b9190820391821161099d57565b634e487b7160e01b600052601160045260246000fd5b156109ba57565b60405162461bcd60e51b815260206004820152600c60248201526b24b73b30b634b210383630b760a11b6044820152606490fd5b908160209103126108fb575180151581036108fb5790565b600260005414610a17576002600055565b60405162461bcd60e51b815260206004820152601f60248201527f5265656e7472616e637947756172643a207265656e7472616e742063616c6c006044820152606490fd5b9190820180921161099d57565b6001600160a01b0316600081815260046020526040902060028101805492939260ff811680610b07575b15610ae75750507fc8c928f301ebe78bb4c6c5376d72cf4169bd78ecb3cdb6c2babde81e5b0c38cc91610acd600160609301918254610a5c565b8091556040519060008252600060208301526040820152a2565b919093506001610afb819442845542610a5c565b91015560ff1916179055565b5060018301544210610a9356fea26469706673582212209e0b1fa55dbf8786be90632cc83414a49a5528a11e20b46b26d07b39c770cd0864736f6c63430008130033","opcodes":"PUSH1 0x80 CALLVALUE PUSH2 0x150 JUMPI PUSH1 0x1F PUSH2 0xCFF CODESIZE DUP2 SWAP1 SUB SWAP2 DUP3 ADD PUSH1 0x1F NOT AND DUP4 ADD SWAP2 PUSH1 0x1 PUSH1 0x1 PUSH1 0x40 SHL SUB DUP4 GT DUP5 DUP5 LT OR PUSH2 0x155 JUMPI DUP1 DUP5 SWAP3 PUSH1 0x20 SWAP5 PUSH1 0x40 MSTORE DUP4 CODECOPY DUP2 ADD SUB SLT PUSH2 0x150 JUMPI MLOAD PUSH1 0x1 PUSH1 0x1 PUSH1 0xA0 SHL SUB SWAP1 DUP2 DUP2 AND SWAP1 DUP2 SWAP1 SUB PUSH2 0x150 JUMPI PUSH1 0x1 PUSH1 0x0 SSTORE PUSH2 0x61 CALLER PUSH2 0x16B JUMP JUMPDEST PUSH1 0x1 DUP1 PUSH1 0xA0 SHL SUB NOT PUSH20 0x36CBD53842C5426634E7929541EC2318F3DCF7E DUP2 PUSH1 0x2 SLOAD AND OR PUSH1 0x2 SSTORE PUSH1 0x3 SLOAD AND OR PUSH1 0x3 SSTORE CALLER SWAP1 PUSH1 0x1 SLOAD AND SUB PUSH2 0x10C JUMPI CALLER ISZERO PUSH2 0xB8 JUMPI PUSH2 0xA9 CALLER PUSH2 0x16B JUMP JUMPDEST PUSH1 0x40 MLOAD PUSH2 0xB4A SWAP1 DUP2 PUSH2 0x1B5 DUP3 CODECOPY RETURN JUMPDEST PUSH1 0x40 MLOAD PUSH3 0x461BCD PUSH1 0xE5 SHL DUP2 MSTORE PUSH1 0x20 PUSH1 0x4 DUP3 ADD MSTORE PUSH1 0x26 PUSH1 0x24 DUP3 ADD MSTORE PUSH32 0x4F776E61626C653A206E6577206F776E657220697320746865207A65726F2061 PUSH1 0x44 DUP3 ADD MSTORE PUSH6 0x646472657373 PUSH1 0xD0 SHL PUSH1 0x64 DUP3 ADD MSTORE PUSH1 0x84 SWAP1 REVERT JUMPDEST PUSH1 0x64 PUSH1 0x40 MLOAD PUSH3 0x461BCD PUSH1 0xE5 SHL DUP2 MSTORE PUSH1 0x20 PUSH1 0x4 DUP3 ADD MSTORE PUSH1 0x20 PUSH1 0x24 DUP3 ADD MSTORE PUSH32 0x4F776E61626C653A2063616C6C6572206973206E6F7420746865206F776E6572 PUSH1 0x44 DUP3 ADD MSTORE REVERT JUMPDEST PUSH1 0x0 DUP1 REVERT JUMPDEST PUSH4 0x4E487B71 PUSH1 0xE0 SHL PUSH1 0x0 MSTORE PUSH1 0x41 PUSH1 0x4 MSTORE PUSH1 0x24 PUSH1 0x0 REVERT JUMPDEST PUSH1 0x1 DUP1 SLOAD PUSH1 0x1 PUSH1 0x1 PUSH1 0xA0 SHL SUB SWAP3 DUP4 AND PUSH1 0x1 PUSH1 0x1 PUSH1 0xA0 SHL SUB NOT DUP3 AND DUP2 OR SWAP1 SWAP3 SSTORE SWAP1 SWAP2 AND PUSH32 0x8BE0079C531659141344CD1FD0A4F28419497F9722A3DAAFE3B4186F6B6457E0 PUSH1 0x0 DUP1 LOG3 JUMP INVALID PUSH1 0x40 PUSH1 0x80 DUP2 MSTORE PUSH1 0x4 SWAP1 DUP2 CALLDATASIZE LT ISZERO PUSH2 0x20 JUMPI JUMPDEST POP POP CALLDATASIZE ISZERO PUSH2 0x1E JUMPI PUSH1 0x0 DUP1 REVERT JUMPDEST STOP JUMPDEST PUSH1 0x0 SWAP2 DUP3 CALLDATALOAD PUSH1 0xE0 SHR DUP1 PUSH4 0xF5A9D01 EQ PUSH2 0x8A5 JUMPI DUP1 PUSH4 0x11EAC855 EQ PUSH2 0x87C JUMPI DUP1 PUSH4 0x1DDDA9B6 EQ PUSH2 0x7C7 JUMPI DUP1 PUSH4 0x50ADA728 EQ PUSH2 0x7A9 JUMPI DUP1 PUSH4 0x715018A6 EQ PUSH2 0x74C JUMPI DUP1 PUSH4 0x724E78DA EQ PUSH2 0x709 JUMPI DUP1 PUSH4 0x741BEF1A EQ PUSH2 0x6E0 JUMPI DUP1 PUSH4 0x8DA5CB5B EQ PUSH2 0x6B7 JUMPI DUP1 PUSH4 0x8FB456D7 EQ PUSH2 0x693 JUMPI DUP1 PUSH4 0x92112162 EQ PUSH2 0x51D JUMPI DUP1 PUSH4 0x9F809C8F EQ PUSH2 0x4FA JUMPI DUP1 PUSH4 0xA0644377 EQ PUSH2 0x363 JUMPI DUP1 PUSH4 0xA607A8D9 EQ PUSH2 0x33F JUMPI DUP1 PUSH4 0xF046395A EQ PUSH2 0x2ED JUMPI DUP1 PUSH4 0xF2FDE38B EQ PUSH2 0x227 JUMPI PUSH4 0xF3FEF3A3 EQ PUSH2 0xDD JUMPI POP PUSH2 0x11 JUMP JUMPDEST CALLVALUE PUSH2 0x223 JUMPI DUP2 PUSH1 0x3 NOT CALLDATASIZE ADD SLT PUSH2 0x223 JUMPI PUSH2 0xF5 PUSH2 0x8E5 JUMP JUMPDEST PUSH1 0x24 CALLDATALOAD SWAP2 PUSH2 0x101 PUSH2 0x900 JUMP JUMPDEST PUSH1 0x1 PUSH1 0x1 PUSH1 0xA0 SHL SUB SWAP2 DUP3 AND SWAP1 PUSH20 0xEEEEEEEEEEEEEEEEEEEEEEEEEEEEEEEEEEEEEEEE DUP3 SUB PUSH2 0x18A JUMPI POP POP DUP4 DUP1 DUP1 DUP1 DUP6 DUP6 PUSH1 0x1 SLOAD AND DUP3 DUP3 ISZERO PUSH2 0x181 JUMPI JUMPDEST CALL ISZERO PUSH2 0x175 JUMPI PUSH32 0x7084F5476618D8E60B11EF0D7D3F06914655ADB8793E28FF7F018D4C76D505D5 SWAP2 PUSH1 0x20 SWAP2 JUMPDEST PUSH1 0x1 SLOAD AND SWAP4 MLOAD SWAP1 DUP2 MSTORE LOG2 DUP1 RETURN JUMPDEST POP POP MLOAD SWAP1 RETURNDATASIZE SWAP1 DUP3 RETURNDATACOPY RETURNDATASIZE SWAP1 REVERT JUMPDEST POP PUSH2 0x8FC PUSH2 0x13C JUMP JUMPDEST PUSH1 0x20 SWAP1 PUSH1 0x44 DUP5 PUSH1 0x1 SWAP7 SWAP5 SWAP7 SLOAD AND SWAP2 DUP9 DUP9 MLOAD SWAP8 DUP9 SWAP5 DUP6 SWAP4 PUSH4 0xA9059CBB PUSH1 0xE0 SHL DUP6 MSTORE DUP5 ADD MSTORE DUP7 PUSH1 0x24 DUP5 ADD MSTORE GAS CALL SWAP2 DUP3 ISZERO PUSH2 0x219 JUMPI PUSH32 0x7084F5476618D8E60B11EF0D7D3F06914655ADB8793E28FF7F018D4C76D505D5 SWAP4 PUSH1 0x20 SWAP4 PUSH2 0x1EC JUMPI JUMPDEST POP PUSH2 0x168 JUMP JUMPDEST PUSH2 0x20B SWAP1 DUP5 RETURNDATASIZE DUP2 GT PUSH2 0x212 JUMPI JUMPDEST PUSH2 0x203 DUP2 DUP4 PUSH2 0x958 JUMP JUMPDEST DUP2 ADD SWAP1 PUSH2 0x9EE JUMP JUMPDEST POP CODESIZE PUSH2 0x1E6 JUMP JUMPDEST POP RETURNDATASIZE PUSH2 0x1F9 JUMP JUMPDEST DUP5 MLOAD RETURNDATASIZE DUP8 DUP3 RETURNDATACOPY RETURNDATASIZE SWAP1 REVERT JUMPDEST DUP3 DUP1 REVERT JUMPDEST POP CALLVALUE PUSH2 0x223 JUMPI PUSH1 0x20 CALLDATASIZE PUSH1 0x3 NOT ADD SLT PUSH2 0x223 JUMPI PUSH2 0x241 PUSH2 0x8E5 JUMP JUMPDEST SWAP1 PUSH2 0x24A PUSH2 0x900 JUMP JUMPDEST PUSH1 0x1 PUSH1 0x1 PUSH1 0xA0 SHL SUB SWAP2 DUP3 AND SWAP3 DUP4 ISZERO PUSH2 0x29B JUMPI POP POP PUSH1 0x1 SLOAD DUP3 PUSH1 0x1 PUSH1 0x1 PUSH1 0x60 SHL SUB PUSH1 0xA0 SHL DUP3 AND OR PUSH1 0x1 SSTORE AND PUSH32 0x8BE0079C531659141344CD1FD0A4F28419497F9722A3DAAFE3B4186F6B6457E0 DUP4 DUP1 LOG3 DUP1 RETURN JUMPDEST SWAP1 PUSH1 0x20 PUSH1 0x84 SWAP3 MLOAD SWAP2 PUSH3 0x461BCD PUSH1 0xE5 SHL DUP4 MSTORE DUP3 ADD MSTORE PUSH1 0x26 PUSH1 0x24 DUP3 ADD MSTORE PUSH32 0x4F776E61626C653A206E6577206F776E657220697320746865207A65726F2061 PUSH1 0x44 DUP3 ADD MSTORE PUSH6 0x646472657373 PUSH1 0xD0 SHL PUSH1 0x64 DUP3 ADD MSTORE REVERT JUMPDEST POP CALLVALUE PUSH2 0x223 JUMPI PUSH1 0x20 CALLDATASIZE PUSH1 0x3 NOT ADD SLT PUSH2 0x223 JUMPI PUSH1 0x60 SWAP3 DUP3 SWAP2 PUSH1 0x1 PUSH1 0x1 PUSH1 0xA0 SHL SUB PUSH2 0x314 PUSH2 0x8E5 JUMP JUMPDEST AND DUP3 MSTORE PUSH1 0x20 MSTORE KECCAK256 SWAP1 DUP2 SLOAD SWAP2 PUSH1 0xFF PUSH1 0x2 PUSH1 0x1 DUP4 ADD SLOAD SWAP3 ADD SLOAD AND SWAP1 DUP3 MLOAD SWAP4 DUP5 MSTORE PUSH1 0x20 DUP5 ADD MSTORE ISZERO ISZERO SWAP1 DUP3 ADD MSTORE RETURN JUMPDEST POP POP CALLVALUE PUSH2 0x35F JUMPI DUP2 PUSH1 0x3 NOT CALLDATASIZE ADD SLT PUSH2 0x35F JUMPI PUSH1 0x20 SWAP1 MLOAD PUSH5 0x2E90EDD000 DUP2 MSTORE RETURN JUMPDEST POP DUP1 REVERT JUMPDEST POP DUP3 SWAP1 CALLVALUE PUSH2 0x35F JUMPI PUSH1 0x20 CALLDATASIZE PUSH1 0x3 NOT ADD SLT PUSH2 0x35F JUMPI DUP1 CALLDATALOAD SWAP1 PUSH2 0x382 PUSH2 0xA06 JUMP JUMPDEST PUSH1 0x1 DUP3 EQ DUP1 DUP1 ISZERO PUSH2 0x4F0 JUMPI JUMPDEST DUP1 ISZERO PUSH2 0x4E6 JUMPI JUMPDEST PUSH2 0x39E SWAP1 PUSH2 0x9B3 JUMP JUMPDEST ISZERO PUSH2 0x4B6 JUMPI PUSH4 0x47868C0 PUSH3 0x278D00 SWAP2 JUMPDEST PUSH1 0x2 SLOAD DUP7 MLOAD PUSH4 0x23B872DD PUSH1 0xE0 SHL DUP2 MSTORE CALLER DUP4 DUP3 ADD MSTORE ADDRESS PUSH1 0x24 DUP3 ADD MSTORE PUSH1 0x44 DUP2 ADD DUP5 SWAP1 MSTORE SWAP1 PUSH1 0x20 SWAP1 DUP3 SWAP1 PUSH1 0x64 SWAP1 DUP3 SWAP1 DUP11 SWAP1 PUSH1 0x1 PUSH1 0x1 PUSH1 0xA0 SHL SUB AND GAS CALL SWAP1 DUP2 ISZERO PUSH2 0x4AC JUMPI DUP7 SWAP2 PUSH2 0x48E JUMPI JUMPDEST POP ISZERO PUSH2 0x454 JUMPI POP PUSH2 0x44A PUSH32 0x5AD333A6D56A7DDB1E78D9ECB8047E9DAFCB890A41A227EDE8D950259A1F0F75 SWAP4 SWAP5 SWAP6 PUSH2 0x42D DUP5 CALLER PUSH2 0xA69 JUMP JUMPDEST MLOAD SWAP3 DUP4 SWAP3 CALLER SWAP7 DUP5 PUSH1 0x40 SWAP2 SWAP5 SWAP4 SWAP3 PUSH1 0x60 DUP3 ADD SWAP6 DUP3 MSTORE PUSH1 0x20 DUP3 ADD MSTORE ADD MSTORE JUMP JUMPDEST SUB SWAP1 LOG2 PUSH1 0x1 DUP2 SSTORE DUP1 RETURN JUMPDEST PUSH1 0x64 SWAP1 PUSH1 0x20 DUP8 MLOAD SWAP2 PUSH3 0x461BCD PUSH1 0xE5 SHL DUP4 MSTORE DUP3 ADD MSTORE PUSH1 0x14 PUSH1 0x24 DUP3 ADD MSTORE PUSH20 0x1554D110C81D1C985B9CD9995C8819985A5B1959 PUSH1 0x62 SHL PUSH1 0x44 DUP3 ADD MSTORE REVERT JUMPDEST PUSH2 0x4A6 SWAP2 POP PUSH1 0x20 RETURNDATASIZE DUP2 GT PUSH2 0x212 JUMPI PUSH2 0x203 DUP2 DUP4 PUSH2 0x958 JUMP JUMPDEST DUP8 PUSH2 0x3F5 JUMP JUMPDEST DUP8 MLOAD RETURNDATASIZE DUP9 DUP3 RETURNDATACOPY RETURNDATASIZE SWAP1 REVERT JUMPDEST PUSH1 0x2 DUP3 SUB PUSH2 0x4D1 JUMPI PUSH8 0x22B1C8C1227A0000 PUSH3 0x278D00 SWAP2 PUSH2 0x3AE JUMP JUMPDEST PUSH9 0x15AF1D78B58C40000 PUSH4 0x1E13380 SWAP2 PUSH2 0x3AE JUMP JUMPDEST POP PUSH1 0x3 DUP4 EQ PUSH2 0x395 JUMP JUMPDEST POP PUSH1 0x2 DUP4 EQ PUSH2 0x38E JUMP JUMPDEST POP POP CALLVALUE PUSH2 0x35F JUMPI DUP2 PUSH1 0x3 NOT CALLDATASIZE ADD SLT PUSH2 0x35F JUMPI PUSH1 0x20 SWAP1 MLOAD PUSH8 0x22B1C8C1227A0000 DUP2 MSTORE RETURN JUMPDEST POP PUSH1 0x20 CALLDATASIZE PUSH1 0x3 NOT ADD SLT PUSH2 0x223 JUMPI DUP1 CALLDATALOAD SWAP1 PUSH2 0x535 PUSH2 0xA06 JUMP JUMPDEST PUSH1 0x1 DUP3 EQ DUP1 DUP1 ISZERO PUSH2 0x689 JUMPI JUMPDEST DUP1 ISZERO PUSH2 0x67F JUMPI JUMPDEST PUSH2 0x551 SWAP1 PUSH2 0x9B3 JUMP JUMPDEST ISZERO PUSH2 0x64F JUMPI PUSH4 0x47868C0 PUSH3 0x278D00 SWAP2 JUMPDEST PUSH8 0xDE0B6B3A7640000 DUP1 DUP4 MUL SWAP1 DUP4 DUP3 DIV EQ DUP4 ISZERO OR ISZERO PUSH2 0x63C JUMPI PUSH5 0x2E90EDD000 SWAP1 DIV SWAP1 DUP2 CALLVALUE LT PUSH2 0x601 JUMPI POP DUP1 DUP7 SWAP2 CALLVALUE GT PUSH2 0x5C7 JUMPI JUMPDEST POP POP PUSH2 0x44A PUSH32 0x5AD333A6D56A7DDB1E78D9ECB8047E9DAFCB890A41A227EDE8D950259A1F0F75 SWAP4 SWAP5 PUSH2 0x42D DUP5 CALLER PUSH2 0xA69 JUMP JUMPDEST DUP2 DUP1 PUSH2 0x5D4 DUP2 SWAP4 CALLVALUE PUSH2 0x990 JUMP JUMPDEST DUP2 DUP2 ISZERO PUSH2 0x5F8 JUMPI JUMPDEST CALLER SWAP1 CALL ISZERO PUSH2 0x5EB JUMPI DUP5 CODESIZE PUSH2 0x595 JUMP JUMPDEST POP POP POP MLOAD SWAP1 RETURNDATASIZE SWAP1 DUP3 RETURNDATACOPY RETURNDATASIZE SWAP1 REVERT JUMPDEST POP PUSH2 0x8FC PUSH2 0x5DC JUMP JUMPDEST PUSH1 0x64 SWAP1 PUSH1 0x20 DUP8 MLOAD SWAP2 PUSH3 0x461BCD PUSH1 0xE5 SHL DUP4 MSTORE DUP3 ADD MSTORE PUSH1 0x15 PUSH1 0x24 DUP3 ADD MSTORE PUSH21 0x125B9CDD59999A58DA595B9D08115512081CD95B9D PUSH1 0x5A SHL PUSH1 0x44 DUP3 ADD MSTORE REVERT JUMPDEST PUSH4 0x4E487B71 PUSH1 0xE0 SHL DUP8 MSTORE PUSH1 0x11 DUP3 MSTORE PUSH1 0x24 DUP8 REVERT JUMPDEST PUSH1 0x2 DUP3 SUB PUSH2 0x66A JUMPI PUSH8 0x22B1C8C1227A0000 PUSH3 0x278D00 SWAP2 PUSH2 0x561 JUMP JUMPDEST PUSH9 0x15AF1D78B58C40000 PUSH4 0x1E13380 SWAP2 PUSH2 0x561 JUMP JUMPDEST POP PUSH1 0x3 DUP4 EQ PUSH2 0x548 JUMP JUMPDEST POP PUSH1 0x2 DUP4 EQ PUSH2 0x541 JUMP JUMPDEST POP POP CALLVALUE PUSH2 0x35F JUMPI DUP2 PUSH1 0x3 NOT CALLDATASIZE ADD SLT PUSH2 0x35F JUMPI PUSH1 0x20 SWAP1 MLOAD PUSH9 0x15AF1D78B58C40000 DUP2 MSTORE RETURN JUMPDEST POP POP CALLVALUE PUSH2 0x35F JUMPI DUP2 PUSH1 0x3 NOT CALLDATASIZE ADD SLT PUSH2 0x35F JUMPI PUSH1 0x1 SLOAD SWAP1 MLOAD PUSH1 0x1 PUSH1 0x1 PUSH1 0xA0 SHL SUB SWAP1 SWAP2 AND DUP2 MSTORE PUSH1 0x20 SWAP1 RETURN JUMPDEST POP POP CALLVALUE PUSH2 0x35F JUMPI DUP2 PUSH1 0x3 NOT CALLDATASIZE ADD SLT PUSH2 0x35F JUMPI PUSH1 0x3 SLOAD SWAP1 MLOAD PUSH1 0x1 PUSH1 0x1 PUSH1 0xA0 SHL SUB SWAP1 SWAP2 AND DUP2 MSTORE PUSH1 0x20 SWAP1 RETURN JUMPDEST DUP4 CALLVALUE PUSH2 0x749 JUMPI PUSH1 0x20 CALLDATASIZE PUSH1 0x3 NOT ADD SLT PUSH2 0x749 JUMPI PUSH2 0x723 PUSH2 0x8E5 JUMP JUMPDEST PUSH2 0x72B PUSH2 0x900 JUMP JUMPDEST PUSH1 0x1 DUP1 PUSH1 0xA0 SHL SUB AND PUSH1 0x1 PUSH1 0x1 PUSH1 0x60 SHL SUB PUSH1 0xA0 SHL PUSH1 0x3 SLOAD AND OR PUSH1 0x3 SSTORE DUP1 RETURN JUMPDEST DUP1 REVERT JUMPDEST DUP4 CALLVALUE PUSH2 0x749 JUMPI DUP1 PUSH1 0x3 NOT CALLDATASIZE ADD SLT PUSH2 0x749 JUMPI PUSH2 0x765 PUSH2 0x900 JUMP JUMPDEST PUSH1 0x1 DUP1 SLOAD PUSH1 0x1 PUSH1 0x1 PUSH1 0xA0 SHL SUB NOT DUP2 AND SWAP1 SWAP2 SSTORE DUP2 SWAP1 PUSH1 0x1 PUSH1 0x1 PUSH1 0xA0 SHL SUB AND PUSH32 0x8BE0079C531659141344CD1FD0A4F28419497F9722A3DAAFE3B4186F6B6457E0 DUP3 DUP1 LOG3 DUP1 RETURN JUMPDEST POP POP CALLVALUE PUSH2 0x35F JUMPI DUP2 PUSH1 0x3 NOT CALLDATASIZE ADD SLT PUSH2 0x35F JUMPI PUSH1 0x20 SWAP1 MLOAD PUSH3 0x2625A0 DUP2 MSTORE RETURN JUMPDEST POP SWAP2 CALLVALUE PUSH2 0x749 JUMPI PUSH1 0x20 CALLDATASIZE PUSH1 0x3 NOT ADD SLT PUSH2 0x749 JUMPI PUSH1 0x1 PUSH1 0x1 PUSH1 0xA0 SHL SUB PUSH2 0x7EA PUSH2 0x8E5 JUMP JUMPDEST AND DUP2 MSTORE DUP3 PUSH1 0x20 MSTORE DUP2 DUP2 KECCAK256 DUP3 MLOAD PUSH1 0x60 DUP2 ADD DUP2 DUP2 LT PUSH8 0xFFFFFFFFFFFFFFFF DUP3 GT OR PUSH2 0x869 JUMPI DUP5 DUP1 SWAP7 POP MSTORE DUP2 SLOAD DUP2 MSTORE PUSH1 0xFF PUSH1 0x2 PUSH1 0x1 DUP5 ADD SLOAD SWAP4 DUP5 PUSH1 0x20 DUP6 ADD MSTORE ADD SLOAD AND ISZERO ISZERO SWAP4 DUP5 SWAP2 ADD MSTORE DUP3 PUSH2 0x85E JUMPI JUMPDEST TIMESTAMP DUP2 GT ISZERO PUSH2 0x858 JUMPI PUSH2 0x84A SWAP2 POP TIMESTAMP SWAP1 PUSH2 0x990 JUMP JUMPDEST DUP3 MLOAD SWAP2 ISZERO ISZERO DUP3 MSTORE PUSH1 0x20 DUP3 ADD MSTORE RETURN JUMPDEST POP PUSH2 0x84A JUMP JUMPDEST DUP1 SWAP3 POP TIMESTAMP LT SWAP2 PUSH2 0x836 JUMP JUMPDEST PUSH4 0x4E487B71 PUSH1 0xE0 SHL DUP5 MSTORE PUSH1 0x41 DUP7 MSTORE PUSH1 0x24 DUP5 REVERT JUMPDEST POP POP CALLVALUE PUSH2 0x35F JUMPI DUP2 PUSH1 0x3 NOT CALLDATASIZE ADD SLT PUSH2 0x35F JUMPI PUSH1 0x2 SLOAD SWAP1 MLOAD PUSH1 0x1 PUSH1 0x1 PUSH1 0xA0 SHL SUB SWAP1 SWAP2 AND DUP2 MSTORE PUSH1 0x20 SWAP1 RETURN JUMPDEST DUP4 CALLVALUE PUSH2 0x749 JUMPI PUSH1 0x20 CALLDATASIZE PUSH1 0x3 NOT ADD SLT PUSH2 0x749 JUMPI PUSH2 0x8BF PUSH2 0x8E5 JUMP JUMPDEST PUSH2 0x8C7 PUSH2 0x900 JUMP JUMPDEST PUSH1 0x1 DUP1 PUSH1 0xA0 SHL SUB AND PUSH1 0x1 PUSH1 0x1 PUSH1 0x60 SHL SUB PUSH1 0xA0 SHL PUSH1 0x2 SLOAD AND OR PUSH1 0x2 SSTORE DUP1 RETURN JUMPDEST PUSH1 0x4 CALLDATALOAD SWAP1 PUSH1 0x1 PUSH1 0x1 PUSH1 0xA0 SHL SUB DUP3 AND DUP3 SUB PUSH2 0x8FB JUMPI JUMP JUMPDEST PUSH1 0x0 DUP1 REVERT JUMPDEST PUSH1 0x1 SLOAD PUSH1 0x1 PUSH1 0x1 PUSH1 0xA0 SHL SUB AND CALLER SUB PUSH2 0x914 JUMPI JUMP JUMPDEST PUSH1 0x64 PUSH1 0x40 MLOAD PUSH3 0x461BCD PUSH1 0xE5 SHL DUP2 MSTORE PUSH1 0x20 PUSH1 0x4 DUP3 ADD MSTORE PUSH1 0x20 PUSH1 0x24 DUP3 ADD MSTORE PUSH32 0x4F776E61626C653A2063616C6C6572206973206E6F7420746865206F776E6572 PUSH1 0x44 DUP3 ADD MSTORE REVERT JUMPDEST SWAP1 PUSH1 0x1F DUP1 NOT SWAP2 ADD AND DUP2 ADD SWAP1 DUP2 LT PUSH8 0xFFFFFFFFFFFFFFFF DUP3 GT OR PUSH2 0x97A JUMPI PUSH1 0x40 MSTORE JUMP JUMPDEST PUSH4 0x4E487B71 PUSH1 0xE0 SHL PUSH1 0x0 MSTORE PUSH1 0x41 PUSH1 0x4 MSTORE PUSH1 0x24 PUSH1 0x0 REVERT JUMPDEST SWAP2 SWAP1 DUP3 SUB SWAP2 DUP3 GT PUSH2 0x99D JUMPI JUMP JUMPDEST PUSH4 0x4E487B71 PUSH1 0xE0 SHL PUSH1 0x0 MSTORE PUSH1 0x11 PUSH1 0x4 MSTORE PUSH1 0x24 PUSH1 0x0 REVERT JUMPDEST ISZERO PUSH2 0x9BA JUMPI JUMP JUMPDEST PUSH1 0x40 MLOAD PUSH3 0x461BCD PUSH1 0xE5 SHL DUP2 MSTORE PUSH1 0x20 PUSH1 0x4 DUP3 ADD MSTORE PUSH1 0xC PUSH1 0x24 DUP3 ADD MSTORE PUSH12 0x24B73B30B634B210383630B7 PUSH1 0xA1 SHL PUSH1 0x44 DUP3 ADD MSTORE PUSH1 0x64 SWAP1 REVERT JUMPDEST SWAP1 DUP2 PUSH1 0x20 SWAP2 SUB SLT PUSH2 0x8FB JUMPI MLOAD DUP1 ISZERO ISZERO DUP2 SUB PUSH2 0x8FB JUMPI SWAP1 JUMP JUMPDEST PUSH1 0x2 PUSH1 0x0 SLOAD EQ PUSH2 0xA17 JUMPI PUSH1 0x2 PUSH1 0x0 SSTORE JUMP JUMPDEST PUSH1 0x40 MLOAD PUSH3 0x461BCD PUSH1 0xE5 SHL DUP2 MSTORE PUSH1 0x20 PUSH1 0x4 DUP3 ADD MSTORE PUSH1 0x1F PUSH1 0x24 DUP3 ADD MSTORE PUSH32 0x5265656E7472616E637947756172643A207265656E7472616E742063616C6C00 PUSH1 0x44 DUP3 ADD MSTORE PUSH1 0x64 SWAP1 REVERT JUMPDEST SWAP2 SWAP1 DUP3 ADD DUP1 SWAP3 GT PUSH2 0x99D JUMPI JUMP JUMPDEST PUSH1 0x1 PUSH1 0x1 PUSH1 0xA0 SHL SUB AND PUSH1 0x0 DUP2 DUP2 MSTORE PUSH1 0x4 PUSH1 0x20 MSTORE PUSH1 0x40 SWAP1 KECCAK256 PUSH1 0x2 DUP2 ADD DUP1 SLOAD SWAP3 SWAP4 SWAP3 PUSH1 0xFF DUP2 AND DUP1 PUSH2 0xB07 JUMPI JUMPDEST ISZERO PUSH2 0xAE7 JUMPI POP POP PUSH32 0xC8C928F301EBE78BB4C6C5376D72CF4169BD78ECB3CDB6C2BABDE81E5B0C38CC SWAP2 PUSH2 0xACD PUSH1 0x1 PUSH1 0x60 SWAP4 ADD SWAP2 DUP3 SLOAD PUSH2 0xA5C JUMP JUMPDEST DUP1 SWAP2 SSTORE PUSH1 0x40 MLOAD SWAP1 PUSH1 0x0 DUP3 MSTORE PUSH1 0x0 PUSH1 0x20 DUP4 ADD MSTORE PUSH1 0x40 DUP3 ADD MSTORE LOG2 JUMP JUMPDEST SWAP2 SWAP1 SWAP4 POP PUSH1 0x1 PUSH2 0xAFB DUP2 SWAP5 TIMESTAMP DUP5 SSTORE TIMESTAMP PUSH2 0xA5C JUMP JUMPDEST SWAP2 ADD SSTORE PUSH1 0xFF NOT AND OR SWAP1 SSTORE JUMP JUMPDEST POP PUSH1 0x1 DUP4 ADD SLOAD TIMESTAMP LT PUSH2 0xA93 JUMP INVALID LOG2 PUSH5 0x6970667358 0x22 SLT KECCAK256 SWAP15 SIGNEXTEND 0x1F 0xA5 0x5D 0xBF DUP8 DUP7 0xBE SWAP1 PUSH4 0x2CC83414 LOG4 SWAP11 SSTORE 0x28 LOG1 0x1E KECCAK256 0xB4 PUSH12 0x26D07B39C770CD0864736F6C PUSH4 0x43000813 STOP CALLER "},"methodIdentifiers":{"DAILY_PRICE()":"50ada728","MONTHLY_PRICE()":"9f809c8f","YEARLY_PRICE()":"8fb456d7","getETHPrice()":"a607a8d9","getSubscriptionStatus(address)":"1ddda9b6","owner()":"8da5cb5b","priceFeed()":"741bef1a","renounceOwnership()":"715018a6","setPriceFeed(address)":"724e78da","setUSDCToken(address)":"0f5a9d01","subscribeWithETH(uint256)":"92112162","subscribeWithUSDC(uint256)":"a0644377","subscriptions(address)":"f046395a","transferOwnership(address)":"f2fde38b","usdcToken()":"11eac855","withdraw(address,uint256)":"f3fef3a3"}}}}}