{"contracts/RevenueDistribution.sol":{"RevenueDistribution":{"abi":[{"inputs":[{"internalType":"address","name":"_platformWallet","type":"address"},{"internalType":"address","name":"_musicNFTContract","type":"address"},{"internalType":"address","name":"_usdcToken","type":"address"}],"stateMutability":"nonpayable","type":"constructor"},{"anonymous":false,"inputs":[{"indexed":true,"internalType":"address","name":"newContract","type":"address"}],"name":"MusicNFTContractUpdated","type":"event"},{"anonymous":false,"inputs":[{"indexed":true,"internalType":"address","name":"previousOwner","type":"address"},{"indexed":true,"internalType":"address","name":"newOwner","type":"address"}],"name":"OwnershipTransferred","type":"event"},{"anonymous":false,"inputs":[{"indexed":true,"internalType":"address","name":"to","type":"address"},{"indexed":false,"internalType":"uint256","name":"ethAmount","type":"uint256"},{"indexed":false,"internalType":"uint256","name":"usdcAmount","type":"uint256"}],"name":"PlatformFeeWithdrawn","type":"event"},{"anonymous":false,"inputs":[{"indexed":true,"internalType":"address","name":"artist","type":"address"},{"indexed":false,"internalType":"uint256","name":"amount","type":"uint256"}],"name":"RevenueClaimedETH","type":"event"},{"anonymous":false,"inputs":[{"indexed":true,"internalType":"address","name":"artist","type":"address"},{"indexed":false,"internalType":"uint256","name":"amount","type":"uint256"}],"name":"RevenueClaimedUSDC","type":"event"},{"anonymous":false,"inputs":[{"indexed":true,"internalType":"address","name":"from","type":"address"},{"indexed":false,"internalType":"uint256","name":"ethAmount","type":"uint256"},{"indexed":false,"internalType":"uint256","name":"usdcAmount","type":"uint256"}],"name":"RevenueReceived","type":"event"},{"inputs":[],"name":"ARTIST_POOL_PERCENT","outputs":[{"internalType":"uint256","name":"","type":"uint256"}],"stateMutability":"view","type":"function"},{"inputs":[],"name":"PLATFORM_FEE_PERCENT","outputs":[{"internalType":"uint256","name":"","type":"uint256"}],"stateMutability":"view","type":"function"},{"inputs":[],"name":"claimAllRevenue","outputs":[],"stateMutability":"nonpayable","type":"function"},{"inputs":[],"name":"claimETHRevenue","outputs":[],"stateMutability":"nonpayable","type":"function"},{"inputs":[],"name":"claimUSDCRevenue","outputs":[],"stateMutability":"nonpayable","type":"function"},{"inputs":[{"internalType":"address","name":"","type":"address"}],"name":"claimedETH","outputs":[{"internalType":"uint256","name":"","type":"uint256"}],"stateMutability":"view","type":"function"},{"inputs":[{"internalType":"address","name":"","type":"address"}],"name":"claimedUSDC","outputs":[{"internalType":"uint256","name":"","type":"uint256"}],"stateMutability":"view","type":"function"},{"inputs":[{"internalType":"address","name":"artist","type":"address"}],"name":"getArtistRevenueSummary","outputs":[{"internalType":"uint256","name":"claimableETH","type":"uint256"},{"internalType":"uint256","name":"claimableUSDC","type":"uint256"},{"internalType":"uint256","name":"totalClaimedETH","type":"uint256"},{"internalType":"uint256","name":"totalClaimedUSDC","type":"uint256"},{"internalType":"uint256","name":"artistPlays","type":"uint256"},{"internalType":"uint256","name":"totalPlays","type":"uint256"}],"stateMutability":"view","type":"function"},{"inputs":[{"internalType":"address","name":"artist","type":"address"}],"name":"getClaimableETH","outputs":[{"internalType":"uint256","name":"claimable","type":"uint256"}],"stateMutability":"view","type":"function"},{"inputs":[{"internalType":"address","name":"artist","type":"address"}],"name":"getClaimableUSDC","outputs":[{"internalType":"uint256","name":"claimable","type":"uint256"}],"stateMutability":"view","type":"function"},{"inputs":[{"internalType":"address","name":"artist","type":"address"}],"name":"getPlayCounts","outputs":[{"internalType":"uint256","name":"artistPlays","type":"uint256"},{"internalType":"uint256","name":"totalPlays","type":"uint256"}],"stateMutability":"view","type":"function"},{"inputs":[],"name":"lastTotalPlays","outputs":[{"internalType":"uint256","name":"","type":"uint256"}],"stateMutability":"view","type":"function"},{"inputs":[],"name":"musicNFTContract","outputs":[{"internalType":"address","name":"","type":"address"}],"stateMutability":"view","type":"function"},{"inputs":[],"name":"owner","outputs":[{"internalType":"address","name":"","type":"address"}],"stateMutability":"view","type":"function"},{"inputs":[],"name":"platformWallet","outputs":[{"internalType":"address","name":"","type":"address"}],"stateMutability":"view","type":"function"},{"inputs":[{"internalType":"uint256","name":"usdcAmount","type":"uint256"}],"name":"receiveSubscriptionPayment","outputs":[],"stateMutability":"payable","type":"function"},{"inputs":[],"name":"renounceOwnership","outputs":[],"stateMutability":"nonpayable","type":"function"},{"inputs":[{"internalType":"address","name":"_musicNFTContract","type":"address"}],"name":"setMusicNFTContract","outputs":[],"stateMutability":"nonpayable","type":"function"},{"inputs":[{"internalType":"address","name":"_platformWallet","type":"address"}],"name":"setPlatformWallet","outputs":[],"stateMutability":"nonpayable","type":"function"},{"inputs":[{"internalType":"address","name":"_usdcToken","type":"address"}],"name":"setUSDCToken","outputs":[],"stateMutability":"nonpayable","type":"function"},{"inputs":[],"name":"totalETHPool","outputs":[{"internalType":"uint256","name":"","type":"uint256"}],"stateMutability":"view","type":"function"},{"inputs":[],"name":"totalUSDCPool","outputs":[{"internalType":"uint256","name":"","type":"uint256"}],"stateMutability":"view","type":"function"},{"inputs":[{"internalType":"address","name":"newOwner","type":"address"}],"name":"transferOwnership","outputs":[],"stateMutability":"nonpayable","type":"function"},{"inputs":[],"name":"usdcToken","outputs":[{"internalType":"address","name":"","type":"address"}],"stateMutability":"view","type":"function"},{"stateMutability":"payable","type":"receive"}],"evm":{"bytecode":{"linkReferences":{},"object":"608034620001c657601f620015ed38819003918201601f191683019291906001600160401b03841183851017620001cb578160609284926040968752833981010312620001c6576200005181620001e1565b906200006d836200006560208401620001e1565b9201620001e1565b6001600081815581546001600160a01b03198082163390811790945587519690956001600160a01b0394909385938416907f8be0079c531659141344cd1fd0a4f28419497f9722a3daafe3b4186f6b6457e09080a316948515620001845750811691821562000140571692831562000107578260025416176002558160035416176003556004541617600455516113f69081620001f78239f35b845162461bcd60e51b815260206004820152601260248201527124b73b30b634b2102aa9a221903a37b5b2b760711b6044820152606490fd5b855162461bcd60e51b815260206004820152601460248201527f496e76616c6964204e465420636f6e74726163740000000000000000000000006044820152606490fd5b62461bcd60e51b815260206004820152601760248201527f496e76616c696420706c6174666f726d2077616c6c65740000000000000000006044820152606490fd5b600080fd5b634e487b7160e01b600052604160045260246000fd5b51906001600160a01b0382168203620001c65756fe60406080815260049081361015610020575b5050361561001e57600080fd5b005b600091823560e01c80630f5a9d0114610d2457806311eac85514610cfd57806321974ca514610cde5780632a75cf2c14610cae578063560d52d414610c9257806357b4002c14610c6957806369266aa814610c4a5780636b5204f214610b3d578063715018a614610ae057806372ee2f4a1461076c578063747265bd146105955780638831e9cf146105415780638da5cb5b146105185780638eda3096146104dc578063a8abc7561461040d578063b7ef0dd514610391578063cd2e911b14610357578063d34d3cd914610338578063d82a5513146102ff578063e80eb99a1461028d578063ef5438e914610271578063f2fde38b1461019e578063fa2af9da146101715763fdca4300146101355750610011565b3461016d57602036600319011261016d57356001600160a01b0381169081900361016d57828291602094526008845220549051908152f35b8280fd5b50503461019a578160031936011261019a5760025490516001600160a01b039091168152602090f35b5080fd5b50903461016d57602036600319011261016d576001600160a01b0382358181169391929084900361026d576101d1610d70565b831561021b575050600154826bffffffffffffffffffffffff60a01b821617600155167f8be0079c531659141344cd1fd0a4f28419497f9722a3daafe3b4186f6b6457e08380a380f35b906020608492519162461bcd60e51b8352820152602660248201527f4f776e61626c653a206e6577206f776e657220697320746865207a65726f206160448201526564647265737360d01b6064820152fd5b8480fd5b50503461019a578160031936011261019a576020905160558152f35b83823461019a57602036600319011261019a57356001600160a01b0381169081900361019a576102bb610d70565b6102c6811515611362565b600380546001600160a01b031916821790557fd4fd272e28e24db1c51c1a668760bd87719c985d1f607b82f0bc80025f551cff8280a280f35b503461016d57602036600319011261016d57356001600160a01b0381169081900361016d57828291602094526007845220549051908152f35b50503461019a578160031936011261019a576020906005549051908152f35b503461016d57602036600319011261016d5735916001600160a01b038316830361038e5750610387602092610f78565b9051908152f35b80fd5b5082903461019a57602036600319011261019a5735916001600160a01b03831680840361016d57836103c460c095610f17565b936103ce82610f78565b92815260076020526103ec8480832054926008602052205492611026565b949093815196875260208701528501526060840152608083015260a0820152f35b50903461016d578260031936011261016d57610427610ec1565b61043033610f17565b91821561049a5750338352600760205280832061044e838254610ea2565b90556104698380808086335af1610463610e72565b506112df565b519081527f70884bbdcd3e0c5a54299b654960a9e68045a4f522be81c73875c1b3ada3675660203392a26001815580f35b6020606492519162461bcd60e51b8352820152601760248201527f4e6f2045544820726576656e756520746f20636c61696d0000000000000000006044820152fd5b5082903461019a57602036600319011261019a5735906001600160a01b038216820361038e575061050c90611026565b82519182526020820152f35b50503461019a578160031936011261019a5760015490516001600160a01b039091168152602090f35b83823461019a57602036600319011261019a57356001600160a01b0381169081900361019a5761056f610d70565b61057a811515611362565b6bffffffffffffffffffffffff60a01b600254161760025580f35b50903461016d578260031936011261016d576105af610ec1565b6105b833610f17565b916105c233610f78565b92801580158091610763575b1561072a576106ce575b50826105e7575b836001815580f35b610642918391338652602092839160088352838820610607838254610ea2565b90558054845163a9059cbb60e01b8152339281019283526020830193909352919586926001600160a01b03169183918a918391604090910190565b03925af19283156106c457859361067c575b5061066d6000805160206113a183398151915293611320565b519283523392a23880806105df565b92508183813d83116106bd575b6106938183610e1e565b8101031261026d5761066d6106b66000805160206113a183398151915294610eaf565b9350610654565b503d610689565b81513d87823e3d90fd5b33855260076020528285206106e4828254610ea2565b90556106f98580808085335af1610463610e72565b82519081527f70884bbdcd3e0c5a54299b654960a9e68045a4f522be81c73875c1b3ada3675660203392a2386105d8565b835162461bcd60e51b815260208185015260136024820152724e6f20726576656e756520746f20636c61696d60681b6044820152606490fd5b508415156105ce565b5091906020908160031936011261016d578335610787610ec1565b341580158082610ad7575b15610a9e576109f1575b5080159485156107de575b50907f5e32da036722824668dcb7102e4c5bca6c9e27c6471a05559320c5621bdb6548918151933485528401523392a26001815580f35b805483516323b872dd60e01b81523381840152306024820152604481018490526001600160a01b0397918690829060649082908b908d165af19081156109e75787916109ae575b501561097457600f830290838204600f14171561096157846064610888920461084e8186610e11565b9880855416906002541689885180968195829463a9059cbb60e01b84528a840160209093929193604081019460018060a01b031681520152565b03925af190811561095757869161091e575b50156108db57506108d07f5e32da036722824668dcb7102e4c5bca6c9e27c6471a05559320c5621bdb6548939495600654610ea2565b6006558493926107a7565b825162461bcd60e51b8152908101849052601f60248201527f4661696c656420746f2073656e64205553444320746f20706c6174666f726d006044820152606490fd5b90508481813d8311610950575b6109358183610e1e565b8101031261094c5761094690610eaf565b3861089a565b8580fd5b503d61092b565b84513d88823e3d90fd5b634e487b7160e01b865260118252602486fd5b835162461bcd60e51b815280830186905260146024820152731554d110c81d1c985b9cd9995c8819985a5b195960621b6044820152606490fd5b90508581813d83116109e0575b6109c58183610e1e565b810103126109dc576109d690610eaf565b38610825565b8680fd5b503d6109bb565b85513d89823e3d90fd5b600f340290348204600f141715610a8b576064900484808080610a148534610e11565b6002549095906001600160a01b03165af1610a2d610e72565b5015610a4857610a3f90600554610ea2565b6005553861079c565b825162461bcd60e51b8152808701859052601e60248201527f4661696c656420746f2073656e642045544820746f20706c6174666f726d00006044820152606490fd5b634e487b7160e01b855260118652602485fd5b835162461bcd60e51b81528088018690526013602482015272139bc81c185e5b595b9d081c1c9bdd9a591959606a1b6044820152606490fd5b50821515610792565b833461038e578060031936011261038e57610af9610d70565b600180546001600160a01b0319811690915581906001600160a01b03167f8be0079c531659141344cd1fd0a4f28419497f9722a3daafe3b4186f6b6457e08280a380f35b50903461016d578260031936011261016d57610b57610ec1565b610b6033610f78565b918215610c0857610b87918391338652602092839160088352838820610607838254610ea2565b03925af19283156106c4578593610bc0575b50610bb26000805160206113a183398151915293611320565b519283523392a26001815580f35b92508183813d8311610c01575b610bd78183610e1e565b8101031261026d57610bb2610bfa6000805160206113a183398151915294610eaf565b9350610b99565b503d610bcd565b6020606492519162461bcd60e51b8352820152601860248201527f4e6f205553444320726576656e756520746f20636c61696d00000000000000006044820152fd5b50503461019a578160031936011261019a576020906006549051908152f35b50503461019a578160031936011261019a5760035490516001600160a01b039091168152602090f35b50503461019a578160031936011261019a5760209051600f8152f35b503461016d57602036600319011261016d5735916001600160a01b038316830361038e5750610387602092610f17565b50503461019a578160031936011261019a576020906009549051908152f35b503461016d578260031936011261016d575490516001600160a01b03909116815260209150f35b83823461019a57602036600319011261019a5780356001600160a01b0381169081900361016d57610d53610d70565b610d5e811515611362565b81546001600160a01b03191617905580f35b6001546001600160a01b03163303610d8457565b606460405162461bcd60e51b815260206004820152602060248201527f4f776e61626c653a2063616c6c6572206973206e6f7420746865206f776e65726044820152fd5b81810292918115918404141715610ddb57565b634e487b7160e01b600052601160045260246000fd5b8115610dfb570490565b634e487b7160e01b600052601260045260246000fd5b91908203918211610ddb57565b90601f8019910116810190811067ffffffffffffffff821117610e4057604052565b634e487b7160e01b600052604160045260246000fd5b67ffffffffffffffff8111610e4057601f01601f191660200190565b3d15610e9d573d90610e8382610e56565b91610e916040519384610e1e565b82523d6000602084013e565b606090565b91908201809211610ddb57565b51908115158203610ebc57565b600080fd5b600260005414610ed2576002600055565b60405162461bcd60e51b815260206004820152601f60248201527f5265656e7472616e637947756172643a207265656e7472616e742063616c6c006044820152606490fd5b610f2081611026565b8015610f7057610f35610f3a92600554610dc8565b610df1565b6001600160a01b03909116600090815260076020526040812054909181811115610f6b57610f689250610e11565b90565b505090565b505050600090565b610f8181611026565b8015610f7057610f35610f9692600654610dc8565b6001600160a01b03909116600090815260086020526040812054909181811115610f6b57610f689250610e11565b919080601f84011215610ebc57825190610fdd82610e56565b91610feb6040519384610e1e565b808352602091828287010111610ebc5760005b81811061101357508260009394955001015290565b8581018301518482018401528201610ffe565b600354604080516318160ddd60e01b81526001600160a01b03928316949391929091600491602091828585818b5afa9485156112d4576000956112a5575b5060009560009860005b8781106110815750505050505050509190565b825163bcae060160e01b81528781018290526024906000818381875afa80916000938493611108575b50506110d95750505b60001981146110c45760010161106e565b601187634e487b7160e01b6000525260246000fd5b909b816110e591610ea2565b9b8616858716146110f7575b506110b3565b6111019199610ea2565b97386110f1565b90939192503d8083863e61111c8186610e1e565b8401906101a08583031261016d5784519067ffffffffffffffff9182811161026d578361114a918801610fc4565b508b86015182811161026d5783611162918801610fc4565b508886015182811161026d578361117a918801610fc4565b50606086015182811161026d5783611193918801610fc4565b50608086015182811161026d57836111ac918801610fc4565b5060a086015182811161026d5786019083601f8301121561026d5781519083821161129457508c808260051b928c51906111e883860183610e1e565b815201918301019184831161094c578d8101915b83831061126b575050505060c0850151818111611267578261121f918701610fc4565b5060e085015190811161016d5790611238918501610fc4565b5061014083015190888216820361038e575061125d6101806101608501519401610eaf565b50919038806110aa565b8380fd5b8251858111611290578f9161128588848094870101610fc4565b8152019201916111fc565b8780fd5b634e487b7160e01b865260418f5285fd5b90948382813d83116112cd575b6112bc8183610e1e565b8101031261038e5750519338611064565b503d6112b2565b86513d6000823e3d90fd5b156112e657565b60405162461bcd60e51b815260206004820152601260248201527108cc2d2d8cac840e8de40e6cadcc8408aa8960731b6044820152606490fd5b1561132757565b60405162461bcd60e51b81526020600482015260136024820152724661696c656420746f2073656e64205553444360681b6044820152606490fd5b1561136957565b60405162461bcd60e51b815260206004820152600f60248201526e496e76616c6964206164647265737360881b6044820152606490fdfe177ab0490e0ad21e74e1914b6feae1516cc9b51df37e062adc260ad22f9571dba26469706673582212208dbcb0c645a7d750792ff7de7baef10474750bcdbad67a0cd489f0eef179542364736f6c63430008130033","opcodes":"PUSH1 0x80 CALLVALUE PUSH3 0x1C6 JUMPI PUSH1 0x1F PUSH3 0x15ED CODESIZE DUP2 SWAP1 SUB SWAP2 DUP3 ADD PUSH1 0x1F NOT AND DUP4 ADD SWAP3 SWAP2 SWAP1 PUSH1 0x1 PUSH1 0x1 PUSH1 0x40 SHL SUB DUP5 GT DUP4 DUP6 LT OR PUSH3 0x1CB JUMPI DUP2 PUSH1 0x60 SWAP3 DUP5 SWAP3 PUSH1 0x40 SWAP7 DUP8 MSTORE DUP4 CODECOPY DUP2 ADD SUB SLT PUSH3 0x1C6 JUMPI PUSH3 0x51 DUP2 PUSH3 0x1E1 JUMP JUMPDEST SWAP1 PUSH3 0x6D DUP4 PUSH3 0x65 PUSH1 0x20 DUP5 ADD PUSH3 0x1E1 JUMP JUMPDEST SWAP3 ADD PUSH3 0x1E1 JUMP JUMPDEST PUSH1 0x1 PUSH1 0x0 DUP2 DUP2 SSTORE DUP2 SLOAD PUSH1 0x1 PUSH1 0x1 PUSH1 0xA0 SHL SUB NOT DUP1 DUP3 AND CALLER SWAP1 DUP2 OR SWAP1 SWAP5 SSTORE DUP8 MLOAD SWAP7 SWAP1 SWAP6 PUSH1 0x1 PUSH1 0x1 PUSH1 0xA0 SHL SUB SWAP5 SWAP1 SWAP4 DUP6 SWAP4 DUP5 AND SWAP1 PUSH32 0x8BE0079C531659141344CD1FD0A4F28419497F9722A3DAAFE3B4186F6B6457E0 SWAP1 DUP1 LOG3 AND SWAP5 DUP6 ISZERO PUSH3 0x184 JUMPI POP DUP2 AND SWAP2 DUP3 ISZERO PUSH3 0x140 JUMPI AND SWAP3 DUP4 ISZERO PUSH3 0x107 JUMPI DUP3 PUSH1 0x2 SLOAD AND OR PUSH1 0x2 SSTORE DUP2 PUSH1 0x3 SLOAD AND OR PUSH1 0x3 SSTORE PUSH1 0x4 SLOAD AND OR PUSH1 0x4 SSTORE MLOAD PUSH2 0x13F6 SWAP1 DUP2 PUSH3 0x1F7 DUP3 CODECOPY RETURN JUMPDEST DUP5 MLOAD PUSH3 0x461BCD PUSH1 0xE5 SHL DUP2 MSTORE PUSH1 0x20 PUSH1 0x4 DUP3 ADD MSTORE PUSH1 0x12 PUSH1 0x24 DUP3 ADD MSTORE PUSH18 0x24B73B30B634B2102AA9A221903A37B5B2B7 PUSH1 0x71 SHL PUSH1 0x44 DUP3 ADD MSTORE PUSH1 0x64 SWAP1 REVERT JUMPDEST DUP6 MLOAD PUSH3 0x461BCD PUSH1 0xE5 SHL DUP2 MSTORE PUSH1 0x20 PUSH1 0x4 DUP3 ADD MSTORE PUSH1 0x14 PUSH1 0x24 DUP3 ADD MSTORE PUSH32 0x496E76616C6964204E465420636F6E7472616374000000000000000000000000 PUSH1 0x44 DUP3 ADD MSTORE PUSH1 0x64 SWAP1 REVERT JUMPDEST PUSH3 0x461BCD PUSH1 0xE5 SHL DUP2 MSTORE PUSH1 0x20 PUSH1 0x4 DUP3 ADD MSTORE PUSH1 0x17 PUSH1 0x24 DUP3 ADD MSTORE PUSH32 0x496E76616C696420706C6174666F726D2077616C6C6574000000000000000000 PUSH1 0x44 DUP3 ADD MSTORE PUSH1 0x64 SWAP1 REVERT JUMPDEST PUSH1 0x0 DUP1 REVERT JUMPDEST PUSH4 0x4E487B71 PUSH1 0xE0 SHL PUSH1 0x0 MSTORE PUSH1 0x41 PUSH1 0x4 MSTORE PUSH1 0x24 PUSH1 0x0 REVERT JUMPDEST MLOAD SWAP1 PUSH1 0x1 PUSH1 0x1 PUSH1 0xA0 SHL SUB DUP3 AND DUP3 SUB PUSH3 0x1C6 JUMPI JUMP INVALID PUSH1 0x40 PUSH1 0x80 DUP2 MSTORE PUSH1 0x4 SWAP1 DUP2 CALLDATASIZE LT ISZERO PUSH2 0x20 JUMPI JUMPDEST POP POP CALLDATASIZE ISZERO PUSH2 0x1E JUMPI PUSH1 0x0 DUP1 REVERT JUMPDEST STOP JUMPDEST PUSH1 0x0 SWAP2 DUP3 CALLDATALOAD PUSH1 0xE0 SHR DUP1 PUSH4 0xF5A9D01 EQ PUSH2 0xD24 JUMPI DUP1 PUSH4 0x11EAC855 EQ PUSH2 0xCFD JUMPI DUP1 PUSH4 0x21974CA5 EQ PUSH2 0xCDE JUMPI DUP1 PUSH4 0x2A75CF2C EQ PUSH2 0xCAE JUMPI DUP1 PUSH4 0x560D52D4 EQ PUSH2 0xC92 JUMPI DUP1 PUSH4 0x57B4002C EQ PUSH2 0xC69 JUMPI DUP1 PUSH4 0x69266AA8 EQ PUSH2 0xC4A JUMPI DUP1 PUSH4 0x6B5204F2 EQ PUSH2 0xB3D JUMPI DUP1 PUSH4 0x715018A6 EQ PUSH2 0xAE0 JUMPI DUP1 PUSH4 0x72EE2F4A EQ PUSH2 0x76C JUMPI DUP1 PUSH4 0x747265BD EQ PUSH2 0x595 JUMPI DUP1 PUSH4 0x8831E9CF EQ PUSH2 0x541 JUMPI DUP1 PUSH4 0x8DA5CB5B EQ PUSH2 0x518 JUMPI DUP1 PUSH4 0x8EDA3096 EQ PUSH2 0x4DC JUMPI DUP1 PUSH4 0xA8ABC756 EQ PUSH2 0x40D JUMPI DUP1 PUSH4 0xB7EF0DD5 EQ PUSH2 0x391 JUMPI DUP1 PUSH4 0xCD2E911B EQ PUSH2 0x357 JUMPI DUP1 PUSH4 0xD34D3CD9 EQ PUSH2 0x338 JUMPI DUP1 PUSH4 0xD82A5513 EQ PUSH2 0x2FF JUMPI DUP1 PUSH4 0xE80EB99A EQ PUSH2 0x28D JUMPI DUP1 PUSH4 0xEF5438E9 EQ PUSH2 0x271 JUMPI DUP1 PUSH4 0xF2FDE38B EQ PUSH2 0x19E JUMPI DUP1 PUSH4 0xFA2AF9DA EQ PUSH2 0x171 JUMPI PUSH4 0xFDCA4300 EQ PUSH2 0x135 JUMPI POP PUSH2 0x11 JUMP JUMPDEST CALLVALUE PUSH2 0x16D JUMPI PUSH1 0x20 CALLDATASIZE PUSH1 0x3 NOT ADD SLT PUSH2 0x16D JUMPI CALLDATALOAD PUSH1 0x1 PUSH1 0x1 PUSH1 0xA0 SHL SUB DUP2 AND SWAP1 DUP2 SWAP1 SUB PUSH2 0x16D JUMPI DUP3 DUP3 SWAP2 PUSH1 0x20 SWAP5 MSTORE PUSH1 0x8 DUP5 MSTORE KECCAK256 SLOAD SWAP1 MLOAD SWAP1 DUP2 MSTORE RETURN JUMPDEST DUP3 DUP1 REVERT JUMPDEST POP POP CALLVALUE PUSH2 0x19A JUMPI DUP2 PUSH1 0x3 NOT CALLDATASIZE ADD SLT PUSH2 0x19A JUMPI PUSH1 0x2 SLOAD SWAP1 MLOAD PUSH1 0x1 PUSH1 0x1 PUSH1 0xA0 SHL SUB SWAP1 SWAP2 AND DUP2 MSTORE PUSH1 0x20 SWAP1 RETURN JUMPDEST POP DUP1 REVERT JUMPDEST POP SWAP1 CALLVALUE PUSH2 0x16D JUMPI PUSH1 0x20 CALLDATASIZE PUSH1 0x3 NOT ADD SLT PUSH2 0x16D JUMPI PUSH1 0x1 PUSH1 0x1 PUSH1 0xA0 SHL SUB DUP3 CALLDATALOAD DUP2 DUP2 AND SWAP4 SWAP2 SWAP3 SWAP1 DUP5 SWAP1 SUB PUSH2 0x26D JUMPI PUSH2 0x1D1 PUSH2 0xD70 JUMP JUMPDEST DUP4 ISZERO PUSH2 0x21B JUMPI POP POP PUSH1 0x1 SLOAD DUP3 PUSH12 0xFFFFFFFFFFFFFFFFFFFFFFFF PUSH1 0xA0 SHL DUP3 AND OR PUSH1 0x1 SSTORE AND PUSH32 0x8BE0079C531659141344CD1FD0A4F28419497F9722A3DAAFE3B4186F6B6457E0 DUP4 DUP1 LOG3 DUP1 RETURN JUMPDEST SWAP1 PUSH1 0x20 PUSH1 0x84 SWAP3 MLOAD SWAP2 PUSH3 0x461BCD PUSH1 0xE5 SHL DUP4 MSTORE DUP3 ADD MSTORE PUSH1 0x26 PUSH1 0x24 DUP3 ADD MSTORE PUSH32 0x4F776E61626C653A206E6577206F776E657220697320746865207A65726F2061 PUSH1 0x44 DUP3 ADD MSTORE PUSH6 0x646472657373 PUSH1 0xD0 SHL PUSH1 0x64 DUP3 ADD MSTORE REVERT JUMPDEST DUP5 DUP1 REVERT JUMPDEST POP POP CALLVALUE PUSH2 0x19A JUMPI DUP2 PUSH1 0x3 NOT CALLDATASIZE ADD SLT PUSH2 0x19A JUMPI PUSH1 0x20 SWAP1 MLOAD PUSH1 0x55 DUP2 MSTORE RETURN JUMPDEST DUP4 DUP3 CALLVALUE PUSH2 0x19A JUMPI PUSH1 0x20 CALLDATASIZE PUSH1 0x3 NOT ADD SLT PUSH2 0x19A JUMPI CALLDATALOAD PUSH1 0x1 PUSH1 0x1 PUSH1 0xA0 SHL SUB DUP2 AND SWAP1 DUP2 SWAP1 SUB PUSH2 0x19A JUMPI PUSH2 0x2BB PUSH2 0xD70 JUMP JUMPDEST PUSH2 0x2C6 DUP2 ISZERO ISZERO PUSH2 0x1362 JUMP JUMPDEST PUSH1 0x3 DUP1 SLOAD PUSH1 0x1 PUSH1 0x1 PUSH1 0xA0 SHL SUB NOT AND DUP3 OR SWAP1 SSTORE PUSH32 0xD4FD272E28E24DB1C51C1A668760BD87719C985D1F607B82F0BC80025F551CFF DUP3 DUP1 LOG2 DUP1 RETURN JUMPDEST POP CALLVALUE PUSH2 0x16D JUMPI PUSH1 0x20 CALLDATASIZE PUSH1 0x3 NOT ADD SLT PUSH2 0x16D JUMPI CALLDATALOAD PUSH1 0x1 PUSH1 0x1 PUSH1 0xA0 SHL SUB DUP2 AND SWAP1 DUP2 SWAP1 SUB PUSH2 0x16D JUMPI DUP3 DUP3 SWAP2 PUSH1 0x20 SWAP5 MSTORE PUSH1 0x7 DUP5 MSTORE KECCAK256 SLOAD SWAP1 MLOAD SWAP1 DUP2 MSTORE RETURN JUMPDEST POP POP CALLVALUE PUSH2 0x19A JUMPI DUP2 PUSH1 0x3 NOT CALLDATASIZE ADD SLT PUSH2 0x19A JUMPI PUSH1 0x20 SWAP1 PUSH1 0x5 SLOAD SWAP1 MLOAD SWAP1 DUP2 MSTORE RETURN JUMPDEST POP CALLVALUE PUSH2 0x16D JUMPI PUSH1 0x20 CALLDATASIZE PUSH1 0x3 NOT ADD SLT PUSH2 0x16D JUMPI CALLDATALOAD SWAP2 PUSH1 0x1 PUSH1 0x1 PUSH1 0xA0 SHL SUB DUP4 AND DUP4 SUB PUSH2 0x38E JUMPI POP PUSH2 0x387 PUSH1 0x20 SWAP3 PUSH2 0xF78 JUMP JUMPDEST SWAP1 MLOAD SWAP1 DUP2 MSTORE RETURN JUMPDEST DUP1 REVERT JUMPDEST POP DUP3 SWAP1 CALLVALUE PUSH2 0x19A JUMPI PUSH1 0x20 CALLDATASIZE PUSH1 0x3 NOT ADD SLT PUSH2 0x19A JUMPI CALLDATALOAD SWAP2 PUSH1 0x1 PUSH1 0x1 PUSH1 0xA0 SHL SUB DUP4 AND DUP1 DUP5 SUB PUSH2 0x16D JUMPI DUP4 PUSH2 0x3C4 PUSH1 0xC0 SWAP6 PUSH2 0xF17 JUMP JUMPDEST SWAP4 PUSH2 0x3CE DUP3 PUSH2 0xF78 JUMP JUMPDEST SWAP3 DUP2 MSTORE PUSH1 0x7 PUSH1 0x20 MSTORE PUSH2 0x3EC DUP5 DUP1 DUP4 KECCAK256 SLOAD SWAP3 PUSH1 0x8 PUSH1 0x20 MSTORE KECCAK256 SLOAD SWAP3 PUSH2 0x1026 JUMP JUMPDEST SWAP5 SWAP1 SWAP4 DUP2 MLOAD SWAP7 DUP8 MSTORE PUSH1 0x20 DUP8 ADD MSTORE DUP6 ADD MSTORE PUSH1 0x60 DUP5 ADD MSTORE PUSH1 0x80 DUP4 ADD MSTORE PUSH1 0xA0 DUP3 ADD MSTORE RETURN JUMPDEST POP SWAP1 CALLVALUE PUSH2 0x16D JUMPI DUP3 PUSH1 0x3 NOT CALLDATASIZE ADD SLT PUSH2 0x16D JUMPI PUSH2 0x427 PUSH2 0xEC1 JUMP JUMPDEST PUSH2 0x430 CALLER PUSH2 0xF17 JUMP JUMPDEST SWAP2 DUP3 ISZERO PUSH2 0x49A JUMPI POP CALLER DUP4 MSTORE PUSH1 0x7 PUSH1 0x20 MSTORE DUP1 DUP4 KECCAK256 PUSH2 0x44E DUP4 DUP3 SLOAD PUSH2 0xEA2 JUMP JUMPDEST SWAP1 SSTORE PUSH2 0x469 DUP4 DUP1 DUP1 DUP1 DUP7 CALLER GAS CALL PUSH2 0x463 PUSH2 0xE72 JUMP JUMPDEST POP PUSH2 0x12DF JUMP JUMPDEST MLOAD SWAP1 DUP2 MSTORE PUSH32 0x70884BBDCD3E0C5A54299B654960A9E68045A4F522BE81C73875C1B3ADA36756 PUSH1 0x20 CALLER SWAP3 LOG2 PUSH1 0x1 DUP2 SSTORE DUP1 RETURN JUMPDEST PUSH1 0x20 PUSH1 0x64 SWAP3 MLOAD SWAP2 PUSH3 0x461BCD PUSH1 0xE5 SHL DUP4 MSTORE DUP3 ADD MSTORE PUSH1 0x17 PUSH1 0x24 DUP3 ADD MSTORE PUSH32 0x4E6F2045544820726576656E756520746F20636C61696D000000000000000000 PUSH1 0x44 DUP3 ADD MSTORE REVERT JUMPDEST POP DUP3 SWAP1 CALLVALUE PUSH2 0x19A JUMPI PUSH1 0x20 CALLDATASIZE PUSH1 0x3 NOT ADD SLT PUSH2 0x19A JUMPI CALLDATALOAD SWAP1 PUSH1 0x1 PUSH1 0x1 PUSH1 0xA0 SHL SUB DUP3 AND DUP3 SUB PUSH2 0x38E JUMPI POP PUSH2 0x50C SWAP1 PUSH2 0x1026 JUMP JUMPDEST DUP3 MLOAD SWAP2 DUP3 MSTORE PUSH1 0x20 DUP3 ADD MSTORE RETURN JUMPDEST POP POP CALLVALUE PUSH2 0x19A JUMPI DUP2 PUSH1 0x3 NOT CALLDATASIZE ADD SLT PUSH2 0x19A JUMPI PUSH1 0x1 SLOAD SWAP1 MLOAD PUSH1 0x1 PUSH1 0x1 PUSH1 0xA0 SHL SUB SWAP1 SWAP2 AND DUP2 MSTORE PUSH1 0x20 SWAP1 RETURN JUMPDEST DUP4 DUP3 CALLVALUE PUSH2 0x19A JUMPI PUSH1 0x20 CALLDATASIZE PUSH1 0x3 NOT ADD SLT PUSH2 0x19A JUMPI CALLDATALOAD PUSH1 0x1 PUSH1 0x1 PUSH1 0xA0 SHL SUB DUP2 AND SWAP1 DUP2 SWAP1 SUB PUSH2 0x19A JUMPI PUSH2 0x56F PUSH2 0xD70 JUMP JUMPDEST PUSH2 0x57A DUP2 ISZERO ISZERO PUSH2 0x1362 JUMP JUMPDEST PUSH12 0xFFFFFFFFFFFFFFFFFFFFFFFF PUSH1 0xA0 SHL PUSH1 0x2 SLOAD AND OR PUSH1 0x2 SSTORE DUP1 RETURN JUMPDEST POP SWAP1 CALLVALUE PUSH2 0x16D JUMPI DUP3 PUSH1 0x3 NOT CALLDATASIZE ADD SLT PUSH2 0x16D JUMPI PUSH2 0x5AF PUSH2 0xEC1 JUMP JUMPDEST PUSH2 0x5B8 CALLER PUSH2 0xF17 JUMP JUMPDEST SWAP2 PUSH2 0x5C2 CALLER PUSH2 0xF78 JUMP JUMPDEST SWAP3 DUP1 ISZERO DUP1 ISZERO DUP1 SWAP2 PUSH2 0x763 JUMPI JUMPDEST ISZERO PUSH2 0x72A JUMPI PUSH2 0x6CE JUMPI JUMPDEST POP DUP3 PUSH2 0x5E7 JUMPI JUMPDEST DUP4 PUSH1 0x1 DUP2 SSTORE DUP1 RETURN JUMPDEST PUSH2 0x642 SWAP2 DUP4 SWAP2 CALLER DUP7 MSTORE PUSH1 0x20 SWAP3 DUP4 SWAP2 PUSH1 0x8 DUP4 MSTORE DUP4 DUP9 KECCAK256 PUSH2 0x607 DUP4 DUP3 SLOAD PUSH2 0xEA2 JUMP JUMPDEST SWAP1 SSTORE DUP1 SLOAD DUP5 MLOAD PUSH4 0xA9059CBB PUSH1 0xE0 SHL DUP2 MSTORE CALLER SWAP3 DUP2 ADD SWAP3 DUP4 MSTORE PUSH1 0x20 DUP4 ADD SWAP4 SWAP1 SWAP4 MSTORE SWAP2 SWAP6 DUP7 SWAP3 PUSH1 0x1 PUSH1 0x1 PUSH1 0xA0 SHL SUB AND SWAP2 DUP4 SWAP2 DUP11 SWAP2 DUP4 SWAP2 PUSH1 0x40 SWAP1 SWAP2 ADD SWAP1 JUMP JUMPDEST SUB SWAP3 GAS CALL SWAP3 DUP4 ISZERO PUSH2 0x6C4 JUMPI DUP6 SWAP4 PUSH2 0x67C JUMPI JUMPDEST POP PUSH2 0x66D PUSH1 0x0 DUP1 MLOAD PUSH1 0x20 PUSH2 0x13A1 DUP4 CODECOPY DUP2 MLOAD SWAP2 MSTORE SWAP4 PUSH2 0x1320 JUMP JUMPDEST MLOAD SWAP3 DUP4 MSTORE CALLER SWAP3 LOG2 CODESIZE DUP1 DUP1 PUSH2 0x5DF JUMP JUMPDEST SWAP3 POP DUP2 DUP4 DUP2 RETURNDATASIZE DUP4 GT PUSH2 0x6BD JUMPI JUMPDEST PUSH2 0x693 DUP2 DUP4 PUSH2 0xE1E JUMP JUMPDEST DUP2 ADD SUB SLT PUSH2 0x26D JUMPI PUSH2 0x66D PUSH2 0x6B6 PUSH1 0x0 DUP1 MLOAD PUSH1 0x20 PUSH2 0x13A1 DUP4 CODECOPY DUP2 MLOAD SWAP2 MSTORE SWAP5 PUSH2 0xEAF JUMP JUMPDEST SWAP4 POP PUSH2 0x654 JUMP JUMPDEST POP RETURNDATASIZE PUSH2 0x689 JUMP JUMPDEST DUP2 MLOAD RETURNDATASIZE DUP8 DUP3 RETURNDATACOPY RETURNDATASIZE SWAP1 REVERT JUMPDEST CALLER DUP6 MSTORE PUSH1 0x7 PUSH1 0x20 MSTORE DUP3 DUP6 KECCAK256 PUSH2 0x6E4 DUP3 DUP3 SLOAD PUSH2 0xEA2 JUMP JUMPDEST SWAP1 SSTORE PUSH2 0x6F9 DUP6 DUP1 DUP1 DUP1 DUP6 CALLER GAS CALL PUSH2 0x463 PUSH2 0xE72 JUMP JUMPDEST DUP3 MLOAD SWAP1 DUP2 MSTORE PUSH32 0x70884BBDCD3E0C5A54299B654960A9E68045A4F522BE81C73875C1B3ADA36756 PUSH1 0x20 CALLER SWAP3 LOG2 CODESIZE PUSH2 0x5D8 JUMP JUMPDEST DUP4 MLOAD PUSH3 0x461BCD PUSH1 0xE5 SHL DUP2 MSTORE PUSH1 0x20 DUP2 DUP6 ADD MSTORE PUSH1 0x13 PUSH1 0x24 DUP3 ADD MSTORE PUSH19 0x4E6F20726576656E756520746F20636C61696D PUSH1 0x68 SHL PUSH1 0x44 DUP3 ADD MSTORE PUSH1 0x64 SWAP1 REVERT JUMPDEST POP DUP5 ISZERO ISZERO PUSH2 0x5CE JUMP JUMPDEST POP SWAP2 SWAP1 PUSH1 0x20 SWAP1 DUP2 PUSH1 0x3 NOT CALLDATASIZE ADD SLT PUSH2 0x16D JUMPI DUP4 CALLDATALOAD PUSH2 0x787 PUSH2 0xEC1 JUMP JUMPDEST CALLVALUE ISZERO DUP1 ISZERO DUP1 DUP3 PUSH2 0xAD7 JUMPI JUMPDEST ISZERO PUSH2 0xA9E JUMPI PUSH2 0x9F1 JUMPI JUMPDEST POP DUP1 ISZERO SWAP5 DUP6 ISZERO PUSH2 0x7DE JUMPI JUMPDEST POP SWAP1 PUSH32 0x5E32DA036722824668DCB7102E4C5BCA6C9E27C6471A05559320C5621BDB6548 SWAP2 DUP2 MLOAD SWAP4 CALLVALUE DUP6 MSTORE DUP5 ADD MSTORE CALLER SWAP3 LOG2 PUSH1 0x1 DUP2 SSTORE DUP1 RETURN JUMPDEST DUP1 SLOAD DUP4 MLOAD PUSH4 0x23B872DD PUSH1 0xE0 SHL DUP2 MSTORE CALLER DUP2 DUP5 ADD MSTORE ADDRESS PUSH1 0x24 DUP3 ADD MSTORE PUSH1 0x44 DUP2 ADD DUP5 SWAP1 MSTORE PUSH1 0x1 PUSH1 0x1 PUSH1 0xA0 SHL SUB SWAP8 SWAP2 DUP7 SWAP1 DUP3 SWAP1 PUSH1 0x64 SWAP1 DUP3 SWAP1 DUP12 SWAP1 DUP14 AND GAS CALL SWAP1 DUP2 ISZERO PUSH2 0x9E7 JUMPI DUP8 SWAP2 PUSH2 0x9AE JUMPI JUMPDEST POP ISZERO PUSH2 0x974 JUMPI PUSH1 0xF DUP4 MUL SWAP1 DUP4 DUP3 DIV PUSH1 0xF EQ OR ISZERO PUSH2 0x961 JUMPI DUP5 PUSH1 0x64 PUSH2 0x888 SWAP3 DIV PUSH2 0x84E DUP2 DUP7 PUSH2 0xE11 JUMP JUMPDEST SWAP9 DUP1 DUP6 SLOAD AND SWAP1 PUSH1 0x2 SLOAD AND DUP10 DUP9 MLOAD DUP1 SWAP7 DUP2 SWAP6 DUP3 SWAP5 PUSH4 0xA9059CBB PUSH1 0xE0 SHL DUP5 MSTORE DUP11 DUP5 ADD PUSH1 0x20 SWAP1 SWAP4 SWAP3 SWAP2 SWAP4 PUSH1 0x40 DUP2 ADD SWAP5 PUSH1 0x1 DUP1 PUSH1 0xA0 SHL SUB AND DUP2 MSTORE ADD MSTORE JUMP JUMPDEST SUB SWAP3 GAS CALL SWAP1 DUP2 ISZERO PUSH2 0x957 JUMPI DUP7 SWAP2 PUSH2 0x91E JUMPI JUMPDEST POP ISZERO PUSH2 0x8DB JUMPI POP PUSH2 0x8D0 PUSH32 0x5E32DA036722824668DCB7102E4C5BCA6C9E27C6471A05559320C5621BDB6548 SWAP4 SWAP5 SWAP6 PUSH1 0x6 SLOAD PUSH2 0xEA2 JUMP JUMPDEST PUSH1 0x6 SSTORE DUP5 SWAP4 SWAP3 PUSH2 0x7A7 JUMP JUMPDEST DUP3 MLOAD PUSH3 0x461BCD PUSH1 0xE5 SHL DUP2 MSTORE SWAP1 DUP2 ADD DUP5 SWAP1 MSTORE PUSH1 0x1F PUSH1 0x24 DUP3 ADD MSTORE PUSH32 0x4661696C656420746F2073656E64205553444320746F20706C6174666F726D00 PUSH1 0x44 DUP3 ADD MSTORE PUSH1 0x64 SWAP1 REVERT JUMPDEST SWAP1 POP DUP5 DUP2 DUP2 RETURNDATASIZE DUP4 GT PUSH2 0x950 JUMPI JUMPDEST PUSH2 0x935 DUP2 DUP4 PUSH2 0xE1E JUMP JUMPDEST DUP2 ADD SUB SLT PUSH2 0x94C JUMPI PUSH2 0x946 SWAP1 PUSH2 0xEAF JUMP JUMPDEST CODESIZE PUSH2 0x89A JUMP JUMPDEST DUP6 DUP1 REVERT JUMPDEST POP RETURNDATASIZE PUSH2 0x92B JUMP JUMPDEST DUP5 MLOAD RETURNDATASIZE DUP9 DUP3 RETURNDATACOPY RETURNDATASIZE SWAP1 REVERT JUMPDEST PUSH4 0x4E487B71 PUSH1 0xE0 SHL DUP7 MSTORE PUSH1 0x11 DUP3 MSTORE PUSH1 0x24 DUP7 REVERT JUMPDEST DUP4 MLOAD PUSH3 0x461BCD PUSH1 0xE5 SHL DUP2 MSTORE DUP1 DUP4 ADD DUP7 SWAP1 MSTORE PUSH1 0x14 PUSH1 0x24 DUP3 ADD MSTORE PUSH20 0x1554D110C81D1C985B9CD9995C8819985A5B1959 PUSH1 0x62 SHL PUSH1 0x44 DUP3 ADD MSTORE PUSH1 0x64 SWAP1 REVERT JUMPDEST SWAP1 POP DUP6 DUP2 DUP2 RETURNDATASIZE DUP4 GT PUSH2 0x9E0 JUMPI JUMPDEST PUSH2 0x9C5 DUP2 DUP4 PUSH2 0xE1E JUMP JUMPDEST DUP2 ADD SUB SLT PUSH2 0x9DC JUMPI PUSH2 0x9D6 SWAP1 PUSH2 0xEAF JUMP JUMPDEST CODESIZE PUSH2 0x825 JUMP JUMPDEST DUP7 DUP1 REVERT JUMPDEST POP RETURNDATASIZE PUSH2 0x9BB JUMP JUMPDEST DUP6 MLOAD RETURNDATASIZE DUP10 DUP3 RETURNDATACOPY RETURNDATASIZE SWAP1 REVERT JUMPDEST PUSH1 0xF CALLVALUE MUL SWAP1 CALLVALUE DUP3 DIV PUSH1 0xF EQ OR ISZERO PUSH2 0xA8B JUMPI PUSH1 0x64 SWAP1 DIV DUP5 DUP1 DUP1 DUP1 PUSH2 0xA14 DUP6 CALLVALUE PUSH2 0xE11 JUMP JUMPDEST PUSH1 0x2 SLOAD SWAP1 SWAP6 SWAP1 PUSH1 0x1 PUSH1 0x1 PUSH1 0xA0 SHL SUB AND GAS CALL PUSH2 0xA2D PUSH2 0xE72 JUMP JUMPDEST POP ISZERO PUSH2 0xA48 JUMPI PUSH2 0xA3F SWAP1 PUSH1 0x5 SLOAD PUSH2 0xEA2 JUMP JUMPDEST PUSH1 0x5 SSTORE CODESIZE PUSH2 0x79C JUMP JUMPDEST DUP3 MLOAD PUSH3 0x461BCD PUSH1 0xE5 SHL DUP2 MSTORE DUP1 DUP8 ADD DUP6 SWAP1 MSTORE PUSH1 0x1E PUSH1 0x24 DUP3 ADD MSTORE PUSH32 0x4661696C656420746F2073656E642045544820746F20706C6174666F726D0000 PUSH1 0x44 DUP3 ADD MSTORE PUSH1 0x64 SWAP1 REVERT JUMPDEST PUSH4 0x4E487B71 PUSH1 0xE0 SHL DUP6 MSTORE PUSH1 0x11 DUP7 MSTORE PUSH1 0x24 DUP6 REVERT JUMPDEST DUP4 MLOAD PUSH3 0x461BCD PUSH1 0xE5 SHL DUP2 MSTORE DUP1 DUP9 ADD DUP7 SWAP1 MSTORE PUSH1 0x13 PUSH1 0x24 DUP3 ADD MSTORE PUSH19 0x139BC81C185E5B595B9D081C1C9BDD9A591959 PUSH1 0x6A SHL PUSH1 0x44 DUP3 ADD MSTORE PUSH1 0x64 SWAP1 REVERT JUMPDEST POP DUP3 ISZERO ISZERO PUSH2 0x792 JUMP JUMPDEST DUP4 CALLVALUE PUSH2 0x38E JUMPI DUP1 PUSH1 0x3 NOT CALLDATASIZE ADD SLT PUSH2 0x38E JUMPI PUSH2 0xAF9 PUSH2 0xD70 JUMP JUMPDEST PUSH1 0x1 DUP1 SLOAD PUSH1 0x1 PUSH1 0x1 PUSH1 0xA0 SHL SUB NOT DUP2 AND SWAP1 SWAP2 SSTORE DUP2 SWAP1 PUSH1 0x1 PUSH1 0x1 PUSH1 0xA0 SHL SUB AND PUSH32 0x8BE0079C531659141344CD1FD0A4F28419497F9722A3DAAFE3B4186F6B6457E0 DUP3 DUP1 LOG3 DUP1 RETURN JUMPDEST POP SWAP1 CALLVALUE PUSH2 0x16D JUMPI DUP3 PUSH1 0x3 NOT CALLDATASIZE ADD SLT PUSH2 0x16D JUMPI PUSH2 0xB57 PUSH2 0xEC1 JUMP JUMPDEST PUSH2 0xB60 CALLER PUSH2 0xF78 JUMP JUMPDEST SWAP2 DUP3 ISZERO PUSH2 0xC08 JUMPI PUSH2 0xB87 SWAP2 DUP4 SWAP2 CALLER DUP7 MSTORE PUSH1 0x20 SWAP3 DUP4 SWAP2 PUSH1 0x8 DUP4 MSTORE DUP4 DUP9 KECCAK256 PUSH2 0x607 DUP4 DUP3 SLOAD PUSH2 0xEA2 JUMP JUMPDEST SUB SWAP3 GAS CALL SWAP3 DUP4 ISZERO PUSH2 0x6C4 JUMPI DUP6 SWAP4 PUSH2 0xBC0 JUMPI JUMPDEST POP PUSH2 0xBB2 PUSH1 0x0 DUP1 MLOAD PUSH1 0x20 PUSH2 0x13A1 DUP4 CODECOPY DUP2 MLOAD SWAP2 MSTORE SWAP4 PUSH2 0x1320 JUMP JUMPDEST MLOAD SWAP3 DUP4 MSTORE CALLER SWAP3 LOG2 PUSH1 0x1 DUP2 SSTORE DUP1 RETURN JUMPDEST SWAP3 POP DUP2 DUP4 DUP2 RETURNDATASIZE DUP4 GT PUSH2 0xC01 JUMPI JUMPDEST PUSH2 0xBD7 DUP2 DUP4 PUSH2 0xE1E JUMP JUMPDEST DUP2 ADD SUB SLT PUSH2 0x26D JUMPI PUSH2 0xBB2 PUSH2 0xBFA PUSH1 0x0 DUP1 MLOAD PUSH1 0x20 PUSH2 0x13A1 DUP4 CODECOPY DUP2 MLOAD SWAP2 MSTORE SWAP5 PUSH2 0xEAF JUMP JUMPDEST SWAP4 POP PUSH2 0xB99 JUMP JUMPDEST POP RETURNDATASIZE PUSH2 0xBCD JUMP JUMPDEST PUSH1 0x20 PUSH1 0x64 SWAP3 MLOAD SWAP2 PUSH3 0x461BCD PUSH1 0xE5 SHL DUP4 MSTORE DUP3 ADD MSTORE PUSH1 0x18 PUSH1 0x24 DUP3 ADD MSTORE PUSH32 0x4E6F205553444320726576656E756520746F20636C61696D0000000000000000 PUSH1 0x44 DUP3 ADD MSTORE REVERT JUMPDEST POP POP CALLVALUE PUSH2 0x19A JUMPI DUP2 PUSH1 0x3 NOT CALLDATASIZE ADD SLT PUSH2 0x19A JUMPI PUSH1 0x20 SWAP1 PUSH1 0x6 SLOAD SWAP1 MLOAD SWAP1 DUP2 MSTORE RETURN JUMPDEST POP POP CALLVALUE PUSH2 0x19A JUMPI DUP2 PUSH1 0x3 NOT CALLDATASIZE ADD SLT PUSH2 0x19A JUMPI PUSH1 0x3 SLOAD SWAP1 MLOAD PUSH1 0x1 PUSH1 0x1 PUSH1 0xA0 SHL SUB SWAP1 SWAP2 AND DUP2 MSTORE PUSH1 0x20 SWAP1 RETURN JUMPDEST POP POP CALLVALUE PUSH2 0x19A JUMPI DUP2 PUSH1 0x3 NOT CALLDATASIZE ADD SLT PUSH2 0x19A JUMPI PUSH1 0x20 SWAP1 MLOAD PUSH1 0xF DUP2 MSTORE RETURN JUMPDEST POP CALLVALUE PUSH2 0x16D JUMPI PUSH1 0x20 CALLDATASIZE PUSH1 0x3 NOT ADD SLT PUSH2 0x16D JUMPI CALLDATALOAD SWAP2 PUSH1 0x1 PUSH1 0x1 PUSH1 0xA0 SHL SUB DUP4 AND DUP4 SUB PUSH2 0x38E JUMPI POP PUSH2 0x387 PUSH1 0x20 SWAP3 PUSH2 0xF17 JUMP JUMPDEST POP POP CALLVALUE PUSH2 0x19A JUMPI DUP2 PUSH1 0x3 NOT CALLDATASIZE ADD SLT PUSH2 0x19A JUMPI PUSH1 0x20 SWAP1 PUSH1 0x9 SLOAD SWAP1 MLOAD SWAP1 DUP2 MSTORE RETURN JUMPDEST POP CALLVALUE PUSH2 0x16D JUMPI DUP3 PUSH1 0x3 NOT CALLDATASIZE ADD SLT PUSH2 0x16D JUMPI SLOAD SWAP1 MLOAD PUSH1 0x1 PUSH1 0x1 PUSH1 0xA0 SHL SUB SWAP1 SWAP2 AND DUP2 MSTORE PUSH1 0x20 SWAP2 POP RETURN JUMPDEST DUP4 DUP3 CALLVALUE PUSH2 0x19A JUMPI PUSH1 0x20 CALLDATASIZE PUSH1 0x3 NOT ADD SLT PUSH2 0x19A JUMPI DUP1 CALLDATALOAD PUSH1 0x1 PUSH1 0x1 PUSH1 0xA0 SHL SUB DUP2 AND SWAP1 DUP2 SWAP1 SUB PUSH2 0x16D JUMPI PUSH2 0xD53 PUSH2 0xD70 JUMP JUMPDEST PUSH2 0xD5E DUP2 ISZERO ISZERO PUSH2 0x1362 JUMP JUMPDEST DUP2 SLOAD PUSH1 0x1 PUSH1 0x1 PUSH1 0xA0 SHL SUB NOT AND OR SWAP1 SSTORE DUP1 RETURN JUMPDEST PUSH1 0x1 SLOAD PUSH1 0x1 PUSH1 0x1 PUSH1 0xA0 SHL SUB AND CALLER SUB PUSH2 0xD84 JUMPI JUMP JUMPDEST PUSH1 0x64 PUSH1 0x40 MLOAD PUSH3 0x461BCD PUSH1 0xE5 SHL DUP2 MSTORE PUSH1 0x20 PUSH1 0x4 DUP3 ADD MSTORE PUSH1 0x20 PUSH1 0x24 DUP3 ADD MSTORE PUSH32 0x4F776E61626C653A2063616C6C6572206973206E6F7420746865206F776E6572 PUSH1 0x44 DUP3 ADD MSTORE REVERT JUMPDEST DUP2 DUP2 MUL SWAP3 SWAP2 DUP2 ISZERO SWAP2 DUP5 DIV EQ OR ISZERO PUSH2 0xDDB JUMPI JUMP JUMPDEST PUSH4 0x4E487B71 PUSH1 0xE0 SHL PUSH1 0x0 MSTORE PUSH1 0x11 PUSH1 0x4 MSTORE PUSH1 0x24 PUSH1 0x0 REVERT JUMPDEST DUP2 ISZERO PUSH2 0xDFB JUMPI DIV SWAP1 JUMP JUMPDEST PUSH4 0x4E487B71 PUSH1 0xE0 SHL PUSH1 0x0 MSTORE PUSH1 0x12 PUSH1 0x4 MSTORE PUSH1 0x24 PUSH1 0x0 REVERT JUMPDEST SWAP2 SWAP1 DUP3 SUB SWAP2 DUP3 GT PUSH2 0xDDB JUMPI JUMP JUMPDEST SWAP1 PUSH1 0x1F DUP1 NOT SWAP2 ADD AND DUP2 ADD SWAP1 DUP2 LT PUSH8 0xFFFFFFFFFFFFFFFF DUP3 GT OR PUSH2 0xE40 JUMPI PUSH1 0x40 MSTORE JUMP JUMPDEST PUSH4 0x4E487B71 PUSH1 0xE0 SHL PUSH1 0x0 MSTORE PUSH1 0x41 PUSH1 0x4 MSTORE PUSH1 0x24 PUSH1 0x0 REVERT JUMPDEST PUSH8 0xFFFFFFFFFFFFFFFF DUP2 GT PUSH2 0xE40 JUMPI PUSH1 0x1F ADD PUSH1 0x1F NOT AND PUSH1 0x20 ADD SWAP1 JUMP JUMPDEST RETURNDATASIZE ISZERO PUSH2 0xE9D JUMPI RETURNDATASIZE SWAP1 PUSH2 0xE83 DUP3 PUSH2 0xE56 JUMP JUMPDEST SWAP2 PUSH2 0xE91 PUSH1 0x40 MLOAD SWAP4 DUP5 PUSH2 0xE1E JUMP JUMPDEST DUP3 MSTORE RETURNDATASIZE PUSH1 0x0 PUSH1 0x20 DUP5 ADD RETURNDATACOPY JUMP JUMPDEST PUSH1 0x60 SWAP1 JUMP JUMPDEST SWAP2 SWAP1 DUP3 ADD DUP1 SWAP3 GT PUSH2 0xDDB JUMPI JUMP JUMPDEST MLOAD SWAP1 DUP2 ISZERO ISZERO DUP3 SUB PUSH2 0xEBC JUMPI JUMP JUMPDEST PUSH1 0x0 DUP1 REVERT JUMPDEST PUSH1 0x2 PUSH1 0x0 SLOAD EQ PUSH2 0xED2 JUMPI PUSH1 0x2 PUSH1 0x0 SSTORE JUMP JUMPDEST PUSH1 0x40 MLOAD PUSH3 0x461BCD PUSH1 0xE5 SHL DUP2 MSTORE PUSH1 0x20 PUSH1 0x4 DUP3 ADD MSTORE PUSH1 0x1F PUSH1 0x24 DUP3 ADD MSTORE PUSH32 0x5265656E7472616E637947756172643A207265656E7472616E742063616C6C00 PUSH1 0x44 DUP3 ADD MSTORE PUSH1 0x64 SWAP1 REVERT JUMPDEST PUSH2 0xF20 DUP2 PUSH2 0x1026 JUMP JUMPDEST DUP1 ISZERO PUSH2 0xF70 JUMPI PUSH2 0xF35 PUSH2 0xF3A SWAP3 PUSH1 0x5 SLOAD PUSH2 0xDC8 JUMP JUMPDEST PUSH2 0xDF1 JUMP JUMPDEST PUSH1 0x1 PUSH1 0x1 PUSH1 0xA0 SHL SUB SWAP1 SWAP2 AND PUSH1 0x0 SWAP1 DUP2 MSTORE PUSH1 0x7 PUSH1 0x20 MSTORE PUSH1 0x40 DUP2 KECCAK256 SLOAD SWAP1 SWAP2 DUP2 DUP2 GT ISZERO PUSH2 0xF6B JUMPI PUSH2 0xF68 SWAP3 POP PUSH2 0xE11 JUMP JUMPDEST SWAP1 JUMP JUMPDEST POP POP SWAP1 JUMP JUMPDEST POP POP POP PUSH1 0x0 SWAP1 JUMP JUMPDEST PUSH2 0xF81 DUP2 PUSH2 0x1026 JUMP JUMPDEST DUP1 ISZERO PUSH2 0xF70 JUMPI PUSH2 0xF35 PUSH2 0xF96 SWAP3 PUSH1 0x6 SLOAD PUSH2 0xDC8 JUMP JUMPDEST PUSH1 0x1 PUSH1 0x1 PUSH1 0xA0 SHL SUB SWAP1 SWAP2 AND PUSH1 0x0 SWAP1 DUP2 MSTORE PUSH1 0x8 PUSH1 0x20 MSTORE PUSH1 0x40 DUP2 KECCAK256 SLOAD SWAP1 SWAP2 DUP2 DUP2 GT ISZERO PUSH2 0xF6B JUMPI PUSH2 0xF68 SWAP3 POP PUSH2 0xE11 JUMP JUMPDEST SWAP2 SWAP1 DUP1 PUSH1 0x1F DUP5 ADD SLT ISZERO PUSH2 0xEBC JUMPI DUP3 MLOAD SWAP1 PUSH2 0xFDD DUP3 PUSH2 0xE56 JUMP JUMPDEST SWAP2 PUSH2 0xFEB PUSH1 0x40 MLOAD SWAP4 DUP5 PUSH2 0xE1E JUMP JUMPDEST DUP1 DUP4 MSTORE PUSH1 0x20 SWAP2 DUP3 DUP3 DUP8 ADD ADD GT PUSH2 0xEBC JUMPI PUSH1 0x0 JUMPDEST DUP2 DUP2 LT PUSH2 0x1013 JUMPI POP DUP3 PUSH1 0x0 SWAP4 SWAP5 SWAP6 POP ADD ADD MSTORE SWAP1 JUMP JUMPDEST DUP6 DUP2 ADD DUP4 ADD MLOAD DUP5 DUP3 ADD DUP5 ADD MSTORE DUP3 ADD PUSH2 0xFFE JUMP JUMPDEST PUSH1 0x3 SLOAD PUSH1 0x40 DUP1 MLOAD PUSH4 0x18160DDD PUSH1 0xE0 SHL DUP2 MSTORE PUSH1 0x1 PUSH1 0x1 PUSH1 0xA0 SHL SUB SWAP3 DUP4 AND SWAP5 SWAP4 SWAP2 SWAP3 SWAP1 SWAP2 PUSH1 0x4 SWAP2 PUSH1 0x20 SWAP2 DUP3 DUP6 DUP6 DUP2 DUP12 GAS STATICCALL SWAP5 DUP6 ISZERO PUSH2 0x12D4 JUMPI PUSH1 0x0 SWAP6 PUSH2 0x12A5 JUMPI JUMPDEST POP PUSH1 0x0 SWAP6 PUSH1 0x0 SWAP9 PUSH1 0x0 JUMPDEST DUP8 DUP2 LT PUSH2 0x1081 JUMPI POP POP POP POP POP POP POP POP SWAP2 SWAP1 JUMP JUMPDEST DUP3 MLOAD PUSH4 0xBCAE0601 PUSH1 0xE0 SHL DUP2 MSTORE DUP8 DUP2 ADD DUP3 SWAP1 MSTORE PUSH1 0x24 SWAP1 PUSH1 0x0 DUP2 DUP4 DUP2 DUP8 GAS STATICCALL DUP1 SWAP2 PUSH1 0x0 SWAP4 DUP5 SWAP4 PUSH2 0x1108 JUMPI JUMPDEST POP POP PUSH2 0x10D9 JUMPI POP POP JUMPDEST PUSH1 0x0 NOT DUP2 EQ PUSH2 0x10C4 JUMPI PUSH1 0x1 ADD PUSH2 0x106E JUMP JUMPDEST PUSH1 0x11 DUP8 PUSH4 0x4E487B71 PUSH1 0xE0 SHL PUSH1 0x0 MSTORE MSTORE PUSH1 0x24 PUSH1 0x0 REVERT JUMPDEST SWAP1 SWAP12 DUP2 PUSH2 0x10E5 SWAP2 PUSH2 0xEA2 JUMP JUMPDEST SWAP12 DUP7 AND DUP6 DUP8 AND EQ PUSH2 0x10F7 JUMPI JUMPDEST POP PUSH2 0x10B3 JUMP JUMPDEST PUSH2 0x1101 SWAP2 SWAP10 PUSH2 0xEA2 JUMP JUMPDEST SWAP8 CODESIZE PUSH2 0x10F1 JUMP JUMPDEST SWAP1 SWAP4 SWAP2 SWAP3 POP RETURNDATASIZE DUP1 DUP4 DUP7 RETURNDATACOPY PUSH2 0x111C DUP2 DUP7 PUSH2 0xE1E JUMP JUMPDEST DUP5 ADD SWAP1 PUSH2 0x1A0 DUP6 DUP4 SUB SLT PUSH2 0x16D JUMPI DUP5 MLOAD SWAP1 PUSH8 0xFFFFFFFFFFFFFFFF SWAP2 DUP3 DUP2 GT PUSH2 0x26D JUMPI DUP4 PUSH2 0x114A SWAP2 DUP9 ADD PUSH2 0xFC4 JUMP JUMPDEST POP DUP12 DUP7 ADD MLOAD DUP3 DUP2 GT PUSH2 0x26D JUMPI DUP4 PUSH2 0x1162 SWAP2 DUP9 ADD PUSH2 0xFC4 JUMP JUMPDEST POP DUP9 DUP7 ADD MLOAD DUP3 DUP2 GT PUSH2 0x26D JUMPI DUP4 PUSH2 0x117A SWAP2 DUP9 ADD PUSH2 0xFC4 JUMP JUMPDEST POP PUSH1 0x60 DUP7 ADD MLOAD DUP3 DUP2 GT PUSH2 0x26D JUMPI DUP4 PUSH2 0x1193 SWAP2 DUP9 ADD PUSH2 0xFC4 JUMP JUMPDEST POP PUSH1 0x80 DUP7 ADD MLOAD DUP3 DUP2 GT PUSH2 0x26D JUMPI DUP4 PUSH2 0x11AC SWAP2 DUP9 ADD PUSH2 0xFC4 JUMP JUMPDEST POP PUSH1 0xA0 DUP7 ADD MLOAD DUP3 DUP2 GT PUSH2 0x26D JUMPI DUP7 ADD SWAP1 DUP4 PUSH1 0x1F DUP4 ADD SLT ISZERO PUSH2 0x26D JUMPI DUP2 MLOAD SWAP1 DUP4 DUP3 GT PUSH2 0x1294 JUMPI POP DUP13 DUP1 DUP3 PUSH1 0x5 SHL SWAP3 DUP13 MLOAD SWAP1 PUSH2 0x11E8 DUP4 DUP7 ADD DUP4 PUSH2 0xE1E JUMP JUMPDEST DUP2 MSTORE ADD SWAP2 DUP4 ADD ADD SWAP2 DUP5 DUP4 GT PUSH2 0x94C JUMPI DUP14 DUP2 ADD SWAP2 JUMPDEST DUP4 DUP4 LT PUSH2 0x126B JUMPI POP POP POP POP PUSH1 0xC0 DUP6 ADD MLOAD DUP2 DUP2 GT PUSH2 0x1267 JUMPI DUP3 PUSH2 0x121F SWAP2 DUP8 ADD PUSH2 0xFC4 JUMP JUMPDEST POP PUSH1 0xE0 DUP6 ADD MLOAD SWAP1 DUP2 GT PUSH2 0x16D JUMPI SWAP1 PUSH2 0x1238 SWAP2 DUP6 ADD PUSH2 0xFC4 JUMP JUMPDEST POP PUSH2 0x140 DUP4 ADD MLOAD SWAP1 DUP9 DUP3 AND DUP3 SUB PUSH2 0x38E JUMPI POP PUSH2 0x125D PUSH2 0x180 PUSH2 0x160 DUP6 ADD MLOAD SWAP5 ADD PUSH2 0xEAF JUMP JUMPDEST POP SWAP2 SWAP1 CODESIZE DUP1 PUSH2 0x10AA JUMP JUMPDEST DUP4 DUP1 REVERT JUMPDEST DUP3 MLOAD DUP6 DUP2 GT PUSH2 0x1290 JUMPI DUP16 SWAP2 PUSH2 0x1285 DUP9 DUP5 DUP1 SWAP5 DUP8 ADD ADD PUSH2 0xFC4 JUMP JUMPDEST DUP2 MSTORE ADD SWAP3 ADD SWAP2 PUSH2 0x11FC JUMP JUMPDEST DUP8 DUP1 REVERT JUMPDEST PUSH4 0x4E487B71 PUSH1 0xE0 SHL DUP7 MSTORE PUSH1 0x41 DUP16 MSTORE DUP6 REVERT JUMPDEST SWAP1 SWAP5 DUP4 DUP3 DUP2 RETURNDATASIZE DUP4 GT PUSH2 0x12CD JUMPI JUMPDEST PUSH2 0x12BC DUP2 DUP4 PUSH2 0xE1E JUMP JUMPDEST DUP2 ADD SUB SLT PUSH2 0x38E JUMPI POP MLOAD SWAP4 CODESIZE PUSH2 0x1064 JUMP JUMPDEST POP RETURNDATASIZE PUSH2 0x12B2 JUMP JUMPDEST DUP7 MLOAD RETURNDATASIZE PUSH1 0x0 DUP3 RETURNDATACOPY RETURNDATASIZE SWAP1 REVERT JUMPDEST ISZERO PUSH2 0x12E6 JUMPI JUMP JUMPDEST PUSH1 0x40 MLOAD PUSH3 0x461BCD PUSH1 0xE5 SHL DUP2 MSTORE PUSH1 0x20 PUSH1 0x4 DUP3 ADD MSTORE PUSH1 0x12 PUSH1 0x24 DUP3 ADD MSTORE PUSH18 0x8CC2D2D8CAC840E8DE40E6CADCC8408AA89 PUSH1 0x73 SHL PUSH1 0x44 DUP3 ADD MSTORE PUSH1 0x64 SWAP1 REVERT JUMPDEST ISZERO PUSH2 0x1327 JUMPI JUMP JUMPDEST PUSH1 0x40 MLOAD PUSH3 0x461BCD PUSH1 0xE5 SHL DUP2 MSTORE PUSH1 0x20 PUSH1 0x4 DUP3 ADD MSTORE PUSH1 0x13 PUSH1 0x24 DUP3 ADD MSTORE PUSH19 0x4661696C656420746F2073656E642055534443 PUSH1 0x68 SHL PUSH1 0x44 DUP3 ADD MSTORE PUSH1 0x64 SWAP1 REVERT JUMPDEST ISZERO PUSH2 0x1369 JUMPI JUMP JUMPDEST PUSH1 0x40 MLOAD PUSH3 0x461BCD PUSH1 0xE5 SHL DUP2 MSTORE PUSH1 0x20 PUSH1 0x4 DUP3 ADD MSTORE PUSH1 0xF PUSH1 0x24 DUP3 ADD MSTORE PUSH15 0x496E76616C69642061646472657373 PUSH1 0x88 SHL PUSH1 0x44 DUP3 ADD MSTORE PUSH1 0x64 SWAP1 REVERT INVALID OR PUSH27 0xB0490E0AD21E74E1914B6FEAE1516CC9B51DF37E062ADC260AD22F SWAP6 PUSH18 0xDBA26469706673582212208DBCB0C645A7D7 POP PUSH26 0x2FF7DE7BAEF10474750BCDBAD67A0CD489F0EEF179542364736F PUSH13 0x63430008130033000000000000 "},"methodIdentifiers":{"ARTIST_POOL_PERCENT()":"ef5438e9","PLATFORM_FEE_PERCENT()":"560d52d4","claimAllRevenue()":"747265bd","claimETHRevenue()":"a8abc756","claimUSDCRevenue()":"6b5204f2","claimedETH(address)":"d82a5513","claimedUSDC(address)":"fdca4300","getArtistRevenueSummary(address)":"b7ef0dd5","getClaimableETH(address)":"2a75cf2c","getClaimableUSDC(address)":"cd2e911b","getPlayCounts(address)":"8eda3096","lastTotalPlays()":"21974ca5","musicNFTContract()":"57b4002c","owner()":"8da5cb5b","platformWallet()":"fa2af9da","receiveSubscriptionPayment(uint256)":"72ee2f4a","renounceOwnership()":"715018a6","setMusicNFTContract(address)":"e80eb99a","setPlatformWallet(address)":"8831e9cf","setUSDCToken(address)":"0f5a9d01","totalETHPool()":"d34d3cd9","totalUSDCPool()":"69266aa8","transferOwnership(address)":"f2fde38b","usdcToken()":"11eac855"}}}}}