{"contracts/SubscriptionV2.sol":{"SubscriptionV2":{"abi":[{"inputs":[{"internalType":"address","name":"_priceFeed","type":"address"}],"stateMutability":"nonpayable","type":"constructor"},{"anonymous":false,"inputs":[{"indexed":true,"internalType":"address","name":"previousOwner","type":"address"},{"indexed":true,"internalType":"address","name":"newOwner","type":"address"}],"name":"OwnershipTransferred","type":"event"},{"anonymous":false,"inputs":[{"indexed":false,"internalType":"address","name":"newPriceFeed","type":"address"}],"name":"PriceFeedUpdated","type":"event"},{"anonymous":false,"inputs":[{"indexed":true,"internalType":"address","name":"user","type":"address"},{"indexed":false,"internalType":"uint256","name":"plan","type":"uint256"},{"indexed":false,"internalType":"uint256","name":"amount","type":"uint256"},{"indexed":false,"internalType":"uint256","name":"duration","type":"uint256"}],"name":"Subscribed","type":"event"},{"anonymous":false,"inputs":[{"indexed":true,"internalType":"address","name":"user","type":"address"},{"indexed":false,"internalType":"uint256","name":"plan","type":"uint256"},{"indexed":false,"internalType":"uint256","name":"amount","type":"uint256"},{"indexed":false,"internalType":"uint256","name":"newEndTime","type":"uint256"}],"name":"SubscriptionExtended","type":"event"},{"anonymous":false,"inputs":[{"indexed":false,"internalType":"address","name":"newUSDCToken","type":"address"}],"name":"USDCTokenUpdated","type":"event"},{"inputs":[],"name":"DAILY_PRICE","outputs":[{"internalType":"uint256","name":"","type":"uint256"}],"stateMutability":"view","type":"function"},{"inputs":[],"name":"MONTHLY_PRICE","outputs":[{"internalType":"uint256","name":"","type":"uint256"}],"stateMutability":"view","type":"function"},{"inputs":[],"name":"PAYMENT_RECIPIENT","outputs":[{"internalType":"address","name":"","type":"address"}],"stateMutability":"view","type":"function"},{"inputs":[],"name":"YEARLY_PRICE","outputs":[{"internalType":"uint256","name":"","type":"uint256"}],"stateMutability":"view","type":"function"},{"inputs":[],"name":"getETHPrice","outputs":[{"internalType":"uint256","name":"","type":"uint256"}],"stateMutability":"view","type":"function"},{"inputs":[{"internalType":"address","name":"user","type":"address"}],"name":"getSubscriptionStatus","outputs":[{"internalType":"bool","name":"isActive","type":"bool"},{"internalType":"uint256","name":"remainingTime","type":"uint256"}],"stateMutability":"view","type":"function"},{"inputs":[],"name":"owner","outputs":[{"internalType":"address","name":"","type":"address"}],"stateMutability":"view","type":"function"},{"inputs":[],"name":"priceFeed","outputs":[{"internalType":"address","name":"","type":"address"}],"stateMutability":"view","type":"function"},{"inputs":[],"name":"renounceOwnership","outputs":[],"stateMutability":"nonpayable","type":"function"},{"inputs":[{"internalType":"address","name":"_priceFeed","type":"address"}],"name":"setPriceFeed","outputs":[],"stateMutability":"nonpayable","type":"function"},{"inputs":[{"internalType":"address","name":"_usdcToken","type":"address"}],"name":"setUSDCToken","outputs":[],"stateMutability":"nonpayable","type":"function"},{"inputs":[{"internalType":"uint256","name":"plan","type":"uint256"}],"name":"subscribeWithETH","outputs":[],"stateMutability":"payable","type":"function"},{"inputs":[{"internalType":"uint256","name":"plan","type":"uint256"}],"name":"subscribeWithUSDC","outputs":[],"stateMutability":"nonpayable","type":"function"},{"inputs":[{"internalType":"address","name":"newOwner","type":"address"}],"name":"transferOwnership","outputs":[],"stateMutability":"nonpayable","type":"function"},{"inputs":[],"name":"usdcToken","outputs":[{"internalType":"address","name":"","type":"address"}],"stateMutability":"view","type":"function"},{"inputs":[{"internalType":"address","name":"","type":"address"}],"name":"userSubscriptions","outputs":[{"internalType":"uint256","name":"startTime","type":"uint256"},{"internalType":"uint256","name":"endTime","type":"uint256"},{"internalType":"bool","name":"isActive","type":"bool"},{"internalType":"uint256","name":"totalPaid","type":"uint256"}],"stateMutability":"view","type":"function"},{"stateMutability":"payable","type":"receive"}],"evm":{"bytecode":{"linkReferences":{},"object":"60803461015057601f610d5738819003918201601f19168301916001600160401b038311848410176101555780849260209460405283398101031261015057516001600160a01b0390818116908190036101505760016000556100613361016b565b60018060a01b031973036cbd53842c5426634e7929541ec2318f3dcf7e81600254161760025560035416176003553390600154160361010c5733156100b8576100a93361016b565b604051610ba290816101b58239f35b60405162461bcd60e51b815260206004820152602660248201527f4f776e61626c653a206e6577206f776e657220697320746865207a65726f206160448201526564647265737360d01b6064820152608490fd5b606460405162461bcd60e51b815260206004820152602060248201527f4f776e61626c653a2063616c6c6572206973206e6f7420746865206f776e65726044820152fd5b600080fd5b634e487b7160e01b600052604160045260246000fd5b600180546001600160a01b039283166001600160a01b0319821681179092559091167f8be0079c531659141344cd1fd0a4f28419497f9722a3daafe3b4186f6b6457e0600080a356fe60406080815260048036101561001f575b5050361561001d57600080fd5b005b600091823560e01c80630f5a9d01146108ac57806311eac855146108835780631ddda9b6146107bf57806350ada728146107a1578063715018a614610741578063724e78da146106d3578063741bef1a146106aa5780638da5cb5b146106815780638fb456d71461065d57806392112162146104575780639f809c8f14610434578063a064437714610269578063a54069f41461023a578063a607a8d914610216578063cf14b9e4146101b15763f2fde38b146100dc5750610010565b346101ad5760203660031901126101ad576001600160a01b038235818116939192908490036101a95761010d61091a565b8315610157575050600154826bffffffffffffffffffffffff60a01b821617600155167f8be0079c531659141344cd1fd0a4f28419497f9722a3daafe3b4186f6b6457e08380a380f35b906020608492519162461bcd60e51b8352820152602660248201527f4f776e61626c653a206e6577206f776e657220697320746865207a65726f206160448201526564647265737360d01b6064820152fd5b8480fd5b8280fd5b5090346101ad5760203660031901126101ad5780356001600160a01b0381169081900361021257928291608094825260205220805491600182015491600360ff60028301541691015492825194855260208501521515908301526060820152f35b8380fd5b83823461023657816003193601126102365760209051642e90edd0008152f35b5080fd5b838234610236578160031936011261023657602090517349ec6fff8d915dc8f1ff382941d0c5dadf9f013b8152f35b50919034610236576020806003193601126101ad57813591610289610a08565b6001831480801561042a575b8015610420575b6102a5906109cd565b156103ee5763047868c09062278d00925b60025487516323b872dd60e01b815233848201527349ec6fff8d915dc8f1ff382941d0c5dadf9f013b602482015260448101859052908290829060649082908b906001600160a01b03165af19081156103e45787916103aa575b50156103715750506103677f5ad333a6d56a7ddb1e78d9ecb8047e9dafcb890a41a227ede8d950259a1f0f7593949561034a838533610aab565b519283923396846040919493926060820195825260208201520152565b0390a26001815580f35b865162461bcd60e51b81529182015260146024820152731554d110c81d1c985b9cd9995c8819985a5b195960621b604482015260649150fd5b90508181813d83116103dd575b6103c18183610972565b810103126103d9575180151581036103d95738610310565b8680fd5b503d6103b7565b88513d89823e3d90fd5b6002830361040a576722b1c8c1227a00009062278d00926102b6565b68015af1d78b58c40000906301e13380926102b6565b506003841461029c565b5060028414610295565b838234610236578160031936011261023657602090516722b1c8c1227a00008152f35b509190602036600319011261023657803590610471610a08565b60018214808015610653575b8015610649575b61048d906109cd565b156106195763047868c062278d00915b670de0b6b3a764000080830290838204148315171561060657642e90edd00090048034106105cb5785808080847349ec6fff8d915dc8f1ff382941d0c5dadf9f013b5af16104e9610a5e565b50156105935780341161052b575b50506103677f5ad333a6d56a7ddb1e78d9ecb8047e9dafcb890a41a227ede8d950259a1f0f7593949561034a838533610aab565b8580806105398194346109aa565b335af1610544610a5e565b501561055057806104f7565b606490602087519162461bcd60e51b8352820152601b60248201527f4661696c656420746f20726566756e64206578636573732045544800000000006044820152fd5b865162461bcd60e51b8152602081840152601260248201527108cc2d2d8cac840e8de40e6cadcc8408aa8960731b6044820152606490fd5b865162461bcd60e51b81526020818401526015602482015274125b9cdd59999a58da595b9d08115512081cd95b9d605a1b6044820152606490fd5b634e487b7160e01b865260118252602486fd5b60028203610634576722b1c8c1227a000062278d009161049d565b68015af1d78b58c400006301e133809161049d565b5060038314610484565b506002831461047d565b8382346102365781600319360112610236576020905168015af1d78b58c400008152f35b83823461023657816003193601126102365760015490516001600160a01b039091168152602090f35b83823461023657816003193601126102365760035490516001600160a01b039091168152602090f35b5090346101ad5760203660031901126101ad57356001600160a01b03811691908290036101ad577fe5b20b8497e4f3e2435ef9c20e2e26b47497ee13745ce1c681ad6640653119e69160209161072761091a565b600380546001600160a01b0319168317905551908152a180f35b833461079e578060031936011261079e5761075a61091a565b600180546001600160a01b0319811690915581906001600160a01b03167f8be0079c531659141344cd1fd0a4f28419497f9722a3daafe3b4186f6b6457e08280a380f35b80fd5b83823461023657816003193601126102365760209051622625a08152f35b50913461079e57602036600319011261079e5781356001600160a01b038116908190036102365781528160205282812091835190608082019082821067ffffffffffffffff83111761087057508452825481526001830154908160208201526060600360ff6002870154161515958688850152015491015282610865575b4281111561085f57610851915042906109aa565b825191151582526020820152f35b50610851565b80925042109161083d565b634e487b7160e01b845260419052602483fd5b83823461023657816003193601126102365760025490516001600160a01b039091168152602090f35b5090346101ad5760203660031901126101ad57356001600160a01b03811691908290036101ad577f60ecdd2cf009b737c2bad96928fb8b73fbcfee8a8bcf6e83f551f23895625e2f9160209161090061091a565b600280546001600160a01b0319168317905551908152a180f35b6001546001600160a01b0316330361092e57565b606460405162461bcd60e51b815260206004820152602060248201527f4f776e61626c653a2063616c6c6572206973206e6f7420746865206f776e65726044820152fd5b90601f8019910116810190811067ffffffffffffffff82111761099457604052565b634e487b7160e01b600052604160045260246000fd5b919082039182116109b757565b634e487b7160e01b600052601160045260246000fd5b156109d457565b60405162461bcd60e51b815260206004820152600c60248201526b24b73b30b634b210383630b760a11b6044820152606490fd5b600260005414610a19576002600055565b60405162461bcd60e51b815260206004820152601f60248201527f5265656e7472616e637947756172643a207265656e7472616e742063616c6c006044820152606490fd5b3d15610a99573d9067ffffffffffffffff82116109945760405191610a8d601f8201601f191660200184610972565b82523d6000602084013e565b606090565b919082018092116109b757565b6001600160a01b031660008181526004602052604090206002810180549294939260ff811680610b5f575b15610b3a57505091606091600384610b1460017fc8c928f301ebe78bb4c6c5376d72cf4169bd78ecb3cdb6c2babde81e5b0c38cc9701938454610a9e565b80935501610b23838254610a9e565b9055604051916000835260208301526040820152a2565b6003949550610b50600192939442865542610a9e565b8483015560ff19161790550155565b5060018301544210610ad656fea2646970667358221220b0e7a93fa68d1609345e596eeecd7afe0a58e2dde800482766feb8f57495142664736f6c63430008130033","opcodes":"PUSH1 0x80 CALLVALUE PUSH2 0x150 JUMPI PUSH1 0x1F PUSH2 0xD57 CODESIZE DUP2 SWAP1 SUB SWAP2 DUP3 ADD PUSH1 0x1F NOT AND DUP4 ADD SWAP2 PUSH1 0x1 PUSH1 0x1 PUSH1 0x40 SHL SUB DUP4 GT DUP5 DUP5 LT OR PUSH2 0x155 JUMPI DUP1 DUP5 SWAP3 PUSH1 0x20 SWAP5 PUSH1 0x40 MSTORE DUP4 CODECOPY DUP2 ADD SUB SLT PUSH2 0x150 JUMPI MLOAD PUSH1 0x1 PUSH1 0x1 PUSH1 0xA0 SHL SUB SWAP1 DUP2 DUP2 AND SWAP1 DUP2 SWAP1 SUB PUSH2 0x150 JUMPI PUSH1 0x1 PUSH1 0x0 SSTORE PUSH2 0x61 CALLER PUSH2 0x16B JUMP JUMPDEST PUSH1 0x1 DUP1 PUSH1 0xA0 SHL SUB NOT PUSH20 0x36CBD53842C5426634E7929541EC2318F3DCF7E DUP2 PUSH1 0x2 SLOAD AND OR PUSH1 0x2 SSTORE PUSH1 0x3 SLOAD AND OR PUSH1 0x3 SSTORE CALLER SWAP1 PUSH1 0x1 SLOAD AND SUB PUSH2 0x10C JUMPI CALLER ISZERO PUSH2 0xB8 JUMPI PUSH2 0xA9 CALLER PUSH2 0x16B JUMP JUMPDEST PUSH1 0x40 MLOAD PUSH2 0xBA2 SWAP1 DUP2 PUSH2 0x1B5 DUP3 CODECOPY RETURN JUMPDEST PUSH1 0x40 MLOAD PUSH3 0x461BCD PUSH1 0xE5 SHL DUP2 MSTORE PUSH1 0x20 PUSH1 0x4 DUP3 ADD MSTORE PUSH1 0x26 PUSH1 0x24 DUP3 ADD MSTORE PUSH32 0x4F776E61626C653A206E6577206F776E657220697320746865207A65726F2061 PUSH1 0x44 DUP3 ADD MSTORE PUSH6 0x646472657373 PUSH1 0xD0 SHL PUSH1 0x64 DUP3 ADD MSTORE PUSH1 0x84 SWAP1 REVERT JUMPDEST PUSH1 0x64 PUSH1 0x40 MLOAD PUSH3 0x461BCD PUSH1 0xE5 SHL DUP2 MSTORE PUSH1 0x20 PUSH1 0x4 DUP3 ADD MSTORE PUSH1 0x20 PUSH1 0x24 DUP3 ADD MSTORE PUSH32 0x4F776E61626C653A2063616C6C6572206973206E6F7420746865206F776E6572 PUSH1 0x44 DUP3 ADD MSTORE REVERT JUMPDEST PUSH1 0x0 DUP1 REVERT JUMPDEST PUSH4 0x4E487B71 PUSH1 0xE0 SHL PUSH1 0x0 MSTORE PUSH1 0x41 PUSH1 0x4 MSTORE PUSH1 0x24 PUSH1 0x0 REVERT JUMPDEST PUSH1 0x1 DUP1 SLOAD PUSH1 0x1 PUSH1 0x1 PUSH1 0xA0 SHL SUB SWAP3 DUP4 AND PUSH1 0x1 PUSH1 0x1 PUSH1 0xA0 SHL SUB NOT DUP3 AND DUP2 OR SWAP1 SWAP3 SSTORE SWAP1 SWAP2 AND PUSH32 0x8BE0079C531659141344CD1FD0A4F28419497F9722A3DAAFE3B4186F6B6457E0 PUSH1 0x0 DUP1 LOG3 JUMP INVALID PUSH1 0x40 PUSH1 0x80 DUP2 MSTORE PUSH1 0x4 DUP1 CALLDATASIZE LT ISZERO PUSH2 0x1F JUMPI JUMPDEST POP POP CALLDATASIZE ISZERO PUSH2 0x1D JUMPI PUSH1 0x0 DUP1 REVERT JUMPDEST STOP JUMPDEST PUSH1 0x0 SWAP2 DUP3 CALLDATALOAD PUSH1 0xE0 SHR DUP1 PUSH4 0xF5A9D01 EQ PUSH2 0x8AC JUMPI DUP1 PUSH4 0x11EAC855 EQ PUSH2 0x883 JUMPI DUP1 PUSH4 0x1DDDA9B6 EQ PUSH2 0x7BF JUMPI DUP1 PUSH4 0x50ADA728 EQ PUSH2 0x7A1 JUMPI DUP1 PUSH4 0x715018A6 EQ PUSH2 0x741 JUMPI DUP1 PUSH4 0x724E78DA EQ PUSH2 0x6D3 JUMPI DUP1 PUSH4 0x741BEF1A EQ PUSH2 0x6AA JUMPI DUP1 PUSH4 0x8DA5CB5B EQ PUSH2 0x681 JUMPI DUP1 PUSH4 0x8FB456D7 EQ PUSH2 0x65D JUMPI DUP1 PUSH4 0x92112162 EQ PUSH2 0x457 JUMPI DUP1 PUSH4 0x9F809C8F EQ PUSH2 0x434 JUMPI DUP1 PUSH4 0xA0644377 EQ PUSH2 0x269 JUMPI DUP1 PUSH4 0xA54069F4 EQ PUSH2 0x23A JUMPI DUP1 PUSH4 0xA607A8D9 EQ PUSH2 0x216 JUMPI DUP1 PUSH4 0xCF14B9E4 EQ PUSH2 0x1B1 JUMPI PUSH4 0xF2FDE38B EQ PUSH2 0xDC JUMPI POP PUSH2 0x10 JUMP JUMPDEST CALLVALUE PUSH2 0x1AD JUMPI PUSH1 0x20 CALLDATASIZE PUSH1 0x3 NOT ADD SLT PUSH2 0x1AD JUMPI PUSH1 0x1 PUSH1 0x1 PUSH1 0xA0 SHL SUB DUP3 CALLDATALOAD DUP2 DUP2 AND SWAP4 SWAP2 SWAP3 SWAP1 DUP5 SWAP1 SUB PUSH2 0x1A9 JUMPI PUSH2 0x10D PUSH2 0x91A JUMP JUMPDEST DUP4 ISZERO PUSH2 0x157 JUMPI POP POP PUSH1 0x1 SLOAD DUP3 PUSH12 0xFFFFFFFFFFFFFFFFFFFFFFFF PUSH1 0xA0 SHL DUP3 AND OR PUSH1 0x1 SSTORE AND PUSH32 0x8BE0079C531659141344CD1FD0A4F28419497F9722A3DAAFE3B4186F6B6457E0 DUP4 DUP1 LOG3 DUP1 RETURN JUMPDEST SWAP1 PUSH1 0x20 PUSH1 0x84 SWAP3 MLOAD SWAP2 PUSH3 0x461BCD PUSH1 0xE5 SHL DUP4 MSTORE DUP3 ADD MSTORE PUSH1 0x26 PUSH1 0x24 DUP3 ADD MSTORE PUSH32 0x4F776E61626C653A206E6577206F776E657220697320746865207A65726F2061 PUSH1 0x44 DUP3 ADD MSTORE PUSH6 0x646472657373 PUSH1 0xD0 SHL PUSH1 0x64 DUP3 ADD MSTORE REVERT JUMPDEST DUP5 DUP1 REVERT JUMPDEST DUP3 DUP1 REVERT JUMPDEST POP SWAP1 CALLVALUE PUSH2 0x1AD JUMPI PUSH1 0x20 CALLDATASIZE PUSH1 0x3 NOT ADD SLT PUSH2 0x1AD JUMPI DUP1 CALLDATALOAD PUSH1 0x1 PUSH1 0x1 PUSH1 0xA0 SHL SUB DUP2 AND SWAP1 DUP2 SWAP1 SUB PUSH2 0x212 JUMPI SWAP3 DUP3 SWAP2 PUSH1 0x80 SWAP5 DUP3 MSTORE PUSH1 0x20 MSTORE KECCAK256 DUP1 SLOAD SWAP2 PUSH1 0x1 DUP3 ADD SLOAD SWAP2 PUSH1 0x3 PUSH1 0xFF PUSH1 0x2 DUP4 ADD SLOAD AND SWAP2 ADD SLOAD SWAP3 DUP3 MLOAD SWAP5 DUP6 MSTORE PUSH1 0x20 DUP6 ADD MSTORE ISZERO ISZERO SWAP1 DUP4 ADD MSTORE PUSH1 0x60 DUP3 ADD MSTORE RETURN JUMPDEST DUP4 DUP1 REVERT JUMPDEST DUP4 DUP3 CALLVALUE PUSH2 0x236 JUMPI DUP2 PUSH1 0x3 NOT CALLDATASIZE ADD SLT PUSH2 0x236 JUMPI PUSH1 0x20 SWAP1 MLOAD PUSH5 0x2E90EDD000 DUP2 MSTORE RETURN JUMPDEST POP DUP1 REVERT JUMPDEST DUP4 DUP3 CALLVALUE PUSH2 0x236 JUMPI DUP2 PUSH1 0x3 NOT CALLDATASIZE ADD SLT PUSH2 0x236 JUMPI PUSH1 0x20 SWAP1 MLOAD PUSH20 0x49EC6FFF8D915DC8F1FF382941D0C5DADF9F013B DUP2 MSTORE RETURN JUMPDEST POP SWAP2 SWAP1 CALLVALUE PUSH2 0x236 JUMPI PUSH1 0x20 DUP1 PUSH1 0x3 NOT CALLDATASIZE ADD SLT PUSH2 0x1AD JUMPI DUP2 CALLDATALOAD SWAP2 PUSH2 0x289 PUSH2 0xA08 JUMP JUMPDEST PUSH1 0x1 DUP4 EQ DUP1 DUP1 ISZERO PUSH2 0x42A JUMPI JUMPDEST DUP1 ISZERO PUSH2 0x420 JUMPI JUMPDEST PUSH2 0x2A5 SWAP1 PUSH2 0x9CD JUMP JUMPDEST ISZERO PUSH2 0x3EE JUMPI PUSH4 0x47868C0 SWAP1 PUSH3 0x278D00 SWAP3 JUMPDEST PUSH1 0x2 SLOAD DUP8 MLOAD PUSH4 0x23B872DD PUSH1 0xE0 SHL DUP2 MSTORE CALLER DUP5 DUP3 ADD MSTORE PUSH20 0x49EC6FFF8D915DC8F1FF382941D0C5DADF9F013B PUSH1 0x24 DUP3 ADD MSTORE PUSH1 0x44 DUP2 ADD DUP6 SWAP1 MSTORE SWAP1 DUP3 SWAP1 DUP3 SWAP1 PUSH1 0x64 SWAP1 DUP3 SWAP1 DUP12 SWAP1 PUSH1 0x1 PUSH1 0x1 PUSH1 0xA0 SHL SUB AND GAS CALL SWAP1 DUP2 ISZERO PUSH2 0x3E4 JUMPI DUP8 SWAP2 PUSH2 0x3AA JUMPI JUMPDEST POP ISZERO PUSH2 0x371 JUMPI POP POP PUSH2 0x367 PUSH32 0x5AD333A6D56A7DDB1E78D9ECB8047E9DAFCB890A41A227EDE8D950259A1F0F75 SWAP4 SWAP5 SWAP6 PUSH2 0x34A DUP4 DUP6 CALLER PUSH2 0xAAB JUMP JUMPDEST MLOAD SWAP3 DUP4 SWAP3 CALLER SWAP7 DUP5 PUSH1 0x40 SWAP2 SWAP5 SWAP4 SWAP3 PUSH1 0x60 DUP3 ADD SWAP6 DUP3 MSTORE PUSH1 0x20 DUP3 ADD MSTORE ADD MSTORE JUMP JUMPDEST SUB SWAP1 LOG2 PUSH1 0x1 DUP2 SSTORE DUP1 RETURN JUMPDEST DUP7 MLOAD PUSH3 0x461BCD PUSH1 0xE5 SHL DUP2 MSTORE SWAP2 DUP3 ADD MSTORE PUSH1 0x14 PUSH1 0x24 DUP3 ADD MSTORE PUSH20 0x1554D110C81D1C985B9CD9995C8819985A5B1959 PUSH1 0x62 SHL PUSH1 0x44 DUP3 ADD MSTORE PUSH1 0x64 SWAP2 POP REVERT JUMPDEST SWAP1 POP DUP2 DUP2 DUP2 RETURNDATASIZE DUP4 GT PUSH2 0x3DD JUMPI JUMPDEST PUSH2 0x3C1 DUP2 DUP4 PUSH2 0x972 JUMP JUMPDEST DUP2 ADD SUB SLT PUSH2 0x3D9 JUMPI MLOAD DUP1 ISZERO ISZERO DUP2 SUB PUSH2 0x3D9 JUMPI CODESIZE PUSH2 0x310 JUMP JUMPDEST DUP7 DUP1 REVERT JUMPDEST POP RETURNDATASIZE PUSH2 0x3B7 JUMP JUMPDEST DUP9 MLOAD RETURNDATASIZE DUP10 DUP3 RETURNDATACOPY RETURNDATASIZE SWAP1 REVERT JUMPDEST PUSH1 0x2 DUP4 SUB PUSH2 0x40A JUMPI PUSH8 0x22B1C8C1227A0000 SWAP1 PUSH3 0x278D00 SWAP3 PUSH2 0x2B6 JUMP JUMPDEST PUSH9 0x15AF1D78B58C40000 SWAP1 PUSH4 0x1E13380 SWAP3 PUSH2 0x2B6 JUMP JUMPDEST POP PUSH1 0x3 DUP5 EQ PUSH2 0x29C JUMP JUMPDEST POP PUSH1 0x2 DUP5 EQ PUSH2 0x295 JUMP JUMPDEST DUP4 DUP3 CALLVALUE PUSH2 0x236 JUMPI DUP2 PUSH1 0x3 NOT CALLDATASIZE ADD SLT PUSH2 0x236 JUMPI PUSH1 0x20 SWAP1 MLOAD PUSH8 0x22B1C8C1227A0000 DUP2 MSTORE RETURN JUMPDEST POP SWAP2 SWAP1 PUSH1 0x20 CALLDATASIZE PUSH1 0x3 NOT ADD SLT PUSH2 0x236 JUMPI DUP1 CALLDATALOAD SWAP1 PUSH2 0x471 PUSH2 0xA08 JUMP JUMPDEST PUSH1 0x1 DUP3 EQ DUP1 DUP1 ISZERO PUSH2 0x653 JUMPI JUMPDEST DUP1 ISZERO PUSH2 0x649 JUMPI JUMPDEST PUSH2 0x48D SWAP1 PUSH2 0x9CD JUMP JUMPDEST ISZERO PUSH2 0x619 JUMPI PUSH4 0x47868C0 PUSH3 0x278D00 SWAP2 JUMPDEST PUSH8 0xDE0B6B3A7640000 DUP1 DUP4 MUL SWAP1 DUP4 DUP3 DIV EQ DUP4 ISZERO OR ISZERO PUSH2 0x606 JUMPI PUSH5 0x2E90EDD000 SWAP1 DIV DUP1 CALLVALUE LT PUSH2 0x5CB JUMPI DUP6 DUP1 DUP1 DUP1 DUP5 PUSH20 0x49EC6FFF8D915DC8F1FF382941D0C5DADF9F013B GAS CALL PUSH2 0x4E9 PUSH2 0xA5E JUMP JUMPDEST POP ISZERO PUSH2 0x593 JUMPI DUP1 CALLVALUE GT PUSH2 0x52B JUMPI JUMPDEST POP POP PUSH2 0x367 PUSH32 0x5AD333A6D56A7DDB1E78D9ECB8047E9DAFCB890A41A227EDE8D950259A1F0F75 SWAP4 SWAP5 SWAP6 PUSH2 0x34A DUP4 DUP6 CALLER PUSH2 0xAAB JUMP JUMPDEST DUP6 DUP1 DUP1 PUSH2 0x539 DUP2 SWAP5 CALLVALUE PUSH2 0x9AA JUMP JUMPDEST CALLER GAS CALL PUSH2 0x544 PUSH2 0xA5E JUMP JUMPDEST POP ISZERO PUSH2 0x550 JUMPI DUP1 PUSH2 0x4F7 JUMP JUMPDEST PUSH1 0x64 SWAP1 PUSH1 0x20 DUP8 MLOAD SWAP2 PUSH3 0x461BCD PUSH1 0xE5 SHL DUP4 MSTORE DUP3 ADD MSTORE PUSH1 0x1B PUSH1 0x24 DUP3 ADD MSTORE PUSH32 0x4661696C656420746F20726566756E6420657863657373204554480000000000 PUSH1 0x44 DUP3 ADD MSTORE REVERT JUMPDEST DUP7 MLOAD PUSH3 0x461BCD PUSH1 0xE5 SHL DUP2 MSTORE PUSH1 0x20 DUP2 DUP5 ADD MSTORE PUSH1 0x12 PUSH1 0x24 DUP3 ADD MSTORE PUSH18 0x8CC2D2D8CAC840E8DE40E6CADCC8408AA89 PUSH1 0x73 SHL PUSH1 0x44 DUP3 ADD MSTORE PUSH1 0x64 SWAP1 REVERT JUMPDEST DUP7 MLOAD PUSH3 0x461BCD PUSH1 0xE5 SHL DUP2 MSTORE PUSH1 0x20 DUP2 DUP5 ADD MSTORE PUSH1 0x15 PUSH1 0x24 DUP3 ADD MSTORE PUSH21 0x125B9CDD59999A58DA595B9D08115512081CD95B9D PUSH1 0x5A SHL PUSH1 0x44 DUP3 ADD MSTORE PUSH1 0x64 SWAP1 REVERT JUMPDEST PUSH4 0x4E487B71 PUSH1 0xE0 SHL DUP7 MSTORE PUSH1 0x11 DUP3 MSTORE PUSH1 0x24 DUP7 REVERT JUMPDEST PUSH1 0x2 DUP3 SUB PUSH2 0x634 JUMPI PUSH8 0x22B1C8C1227A0000 PUSH3 0x278D00 SWAP2 PUSH2 0x49D JUMP JUMPDEST PUSH9 0x15AF1D78B58C40000 PUSH4 0x1E13380 SWAP2 PUSH2 0x49D JUMP JUMPDEST POP PUSH1 0x3 DUP4 EQ PUSH2 0x484 JUMP JUMPDEST POP PUSH1 0x2 DUP4 EQ PUSH2 0x47D JUMP JUMPDEST DUP4 DUP3 CALLVALUE PUSH2 0x236 JUMPI DUP2 PUSH1 0x3 NOT CALLDATASIZE ADD SLT PUSH2 0x236 JUMPI PUSH1 0x20 SWAP1 MLOAD PUSH9 0x15AF1D78B58C40000 DUP2 MSTORE RETURN JUMPDEST DUP4 DUP3 CALLVALUE PUSH2 0x236 JUMPI DUP2 PUSH1 0x3 NOT CALLDATASIZE ADD SLT PUSH2 0x236 JUMPI PUSH1 0x1 SLOAD SWAP1 MLOAD PUSH1 0x1 PUSH1 0x1 PUSH1 0xA0 SHL SUB SWAP1 SWAP2 AND DUP2 MSTORE PUSH1 0x20 SWAP1 RETURN JUMPDEST DUP4 DUP3 CALLVALUE PUSH2 0x236 JUMPI DUP2 PUSH1 0x3 NOT CALLDATASIZE ADD SLT PUSH2 0x236 JUMPI PUSH1 0x3 SLOAD SWAP1 MLOAD PUSH1 0x1 PUSH1 0x1 PUSH1 0xA0 SHL SUB SWAP1 SWAP2 AND DUP2 MSTORE PUSH1 0x20 SWAP1 RETURN JUMPDEST POP SWAP1 CALLVALUE PUSH2 0x1AD JUMPI PUSH1 0x20 CALLDATASIZE PUSH1 0x3 NOT ADD SLT PUSH2 0x1AD JUMPI CALLDATALOAD PUSH1 0x1 PUSH1 0x1 PUSH1 0xA0 SHL SUB DUP2 AND SWAP2 SWAP1 DUP3 SWAP1 SUB PUSH2 0x1AD JUMPI PUSH32 0xE5B20B8497E4F3E2435EF9C20E2E26B47497EE13745CE1C681AD6640653119E6 SWAP2 PUSH1 0x20 SWAP2 PUSH2 0x727 PUSH2 0x91A JUMP JUMPDEST PUSH1 0x3 DUP1 SLOAD PUSH1 0x1 PUSH1 0x1 PUSH1 0xA0 SHL SUB NOT AND DUP4 OR SWAP1 SSTORE MLOAD SWAP1 DUP2 MSTORE LOG1 DUP1 RETURN JUMPDEST DUP4 CALLVALUE PUSH2 0x79E JUMPI DUP1 PUSH1 0x3 NOT CALLDATASIZE ADD SLT PUSH2 0x79E JUMPI PUSH2 0x75A PUSH2 0x91A JUMP JUMPDEST PUSH1 0x1 DUP1 SLOAD PUSH1 0x1 PUSH1 0x1 PUSH1 0xA0 SHL SUB NOT DUP2 AND SWAP1 SWAP2 SSTORE DUP2 SWAP1 PUSH1 0x1 PUSH1 0x1 PUSH1 0xA0 SHL SUB AND PUSH32 0x8BE0079C531659141344CD1FD0A4F28419497F9722A3DAAFE3B4186F6B6457E0 DUP3 DUP1 LOG3 DUP1 RETURN JUMPDEST DUP1 REVERT JUMPDEST DUP4 DUP3 CALLVALUE PUSH2 0x236 JUMPI DUP2 PUSH1 0x3 NOT CALLDATASIZE ADD SLT PUSH2 0x236 JUMPI PUSH1 0x20 SWAP1 MLOAD PUSH3 0x2625A0 DUP2 MSTORE RETURN JUMPDEST POP SWAP2 CALLVALUE PUSH2 0x79E JUMPI PUSH1 0x20 CALLDATASIZE PUSH1 0x3 NOT ADD SLT PUSH2 0x79E JUMPI DUP2 CALLDATALOAD PUSH1 0x1 PUSH1 0x1 PUSH1 0xA0 SHL SUB DUP2 AND SWAP1 DUP2 SWAP1 SUB PUSH2 0x236 JUMPI DUP2 MSTORE DUP2 PUSH1 0x20 MSTORE DUP3 DUP2 KECCAK256 SWAP2 DUP4 MLOAD SWAP1 PUSH1 0x80 DUP3 ADD SWAP1 DUP3 DUP3 LT PUSH8 0xFFFFFFFFFFFFFFFF DUP4 GT OR PUSH2 0x870 JUMPI POP DUP5 MSTORE DUP3 SLOAD DUP2 MSTORE PUSH1 0x1 DUP4 ADD SLOAD SWAP1 DUP2 PUSH1 0x20 DUP3 ADD MSTORE PUSH1 0x60 PUSH1 0x3 PUSH1 0xFF PUSH1 0x2 DUP8 ADD SLOAD AND ISZERO ISZERO SWAP6 DUP7 DUP9 DUP6 ADD MSTORE ADD SLOAD SWAP2 ADD MSTORE DUP3 PUSH2 0x865 JUMPI JUMPDEST TIMESTAMP DUP2 GT ISZERO PUSH2 0x85F JUMPI PUSH2 0x851 SWAP2 POP TIMESTAMP SWAP1 PUSH2 0x9AA JUMP JUMPDEST DUP3 MLOAD SWAP2 ISZERO ISZERO DUP3 MSTORE PUSH1 0x20 DUP3 ADD MSTORE RETURN JUMPDEST POP PUSH2 0x851 JUMP JUMPDEST DUP1 SWAP3 POP TIMESTAMP LT SWAP2 PUSH2 0x83D JUMP JUMPDEST PUSH4 0x4E487B71 PUSH1 0xE0 SHL DUP5 MSTORE PUSH1 0x41 SWAP1 MSTORE PUSH1 0x24 DUP4 REVERT JUMPDEST DUP4 DUP3 CALLVALUE PUSH2 0x236 JUMPI DUP2 PUSH1 0x3 NOT CALLDATASIZE ADD SLT PUSH2 0x236 JUMPI PUSH1 0x2 SLOAD SWAP1 MLOAD PUSH1 0x1 PUSH1 0x1 PUSH1 0xA0 SHL SUB SWAP1 SWAP2 AND DUP2 MSTORE PUSH1 0x20 SWAP1 RETURN JUMPDEST POP SWAP1 CALLVALUE PUSH2 0x1AD JUMPI PUSH1 0x20 CALLDATASIZE PUSH1 0x3 NOT ADD SLT PUSH2 0x1AD JUMPI CALLDATALOAD PUSH1 0x1 PUSH1 0x1 PUSH1 0xA0 SHL SUB DUP2 AND SWAP2 SWAP1 DUP3 SWAP1 SUB PUSH2 0x1AD JUMPI PUSH32 0x60ECDD2CF009B737C2BAD96928FB8B73FBCFEE8A8BCF6E83F551F23895625E2F SWAP2 PUSH1 0x20 SWAP2 PUSH2 0x900 PUSH2 0x91A JUMP JUMPDEST PUSH1 0x2 DUP1 SLOAD PUSH1 0x1 PUSH1 0x1 PUSH1 0xA0 SHL SUB NOT AND DUP4 OR SWAP1 SSTORE MLOAD SWAP1 DUP2 MSTORE LOG1 DUP1 RETURN JUMPDEST PUSH1 0x1 SLOAD PUSH1 0x1 PUSH1 0x1 PUSH1 0xA0 SHL SUB AND CALLER SUB PUSH2 0x92E JUMPI JUMP JUMPDEST PUSH1 0x64 PUSH1 0x40 MLOAD PUSH3 0x461BCD PUSH1 0xE5 SHL DUP2 MSTORE PUSH1 0x20 PUSH1 0x4 DUP3 ADD MSTORE PUSH1 0x20 PUSH1 0x24 DUP3 ADD MSTORE PUSH32 0x4F776E61626C653A2063616C6C6572206973206E6F7420746865206F776E6572 PUSH1 0x44 DUP3 ADD MSTORE REVERT JUMPDEST SWAP1 PUSH1 0x1F DUP1 NOT SWAP2 ADD AND DUP2 ADD SWAP1 DUP2 LT PUSH8 0xFFFFFFFFFFFFFFFF DUP3 GT OR PUSH2 0x994 JUMPI PUSH1 0x40 MSTORE JUMP JUMPDEST PUSH4 0x4E487B71 PUSH1 0xE0 SHL PUSH1 0x0 MSTORE PUSH1 0x41 PUSH1 0x4 MSTORE PUSH1 0x24 PUSH1 0x0 REVERT JUMPDEST SWAP2 SWAP1 DUP3 SUB SWAP2 DUP3 GT PUSH2 0x9B7 JUMPI JUMP JUMPDEST PUSH4 0x4E487B71 PUSH1 0xE0 SHL PUSH1 0x0 MSTORE PUSH1 0x11 PUSH1 0x4 MSTORE PUSH1 0x24 PUSH1 0x0 REVERT JUMPDEST ISZERO PUSH2 0x9D4 JUMPI JUMP JUMPDEST PUSH1 0x40 MLOAD PUSH3 0x461BCD PUSH1 0xE5 SHL DUP2 MSTORE PUSH1 0x20 PUSH1 0x4 DUP3 ADD MSTORE PUSH1 0xC PUSH1 0x24 DUP3 ADD MSTORE PUSH12 0x24B73B30B634B210383630B7 PUSH1 0xA1 SHL PUSH1 0x44 DUP3 ADD MSTORE PUSH1 0x64 SWAP1 REVERT JUMPDEST PUSH1 0x2 PUSH1 0x0 SLOAD EQ PUSH2 0xA19 JUMPI PUSH1 0x2 PUSH1 0x0 SSTORE JUMP JUMPDEST PUSH1 0x40 MLOAD PUSH3 0x461BCD PUSH1 0xE5 SHL DUP2 MSTORE PUSH1 0x20 PUSH1 0x4 DUP3 ADD MSTORE PUSH1 0x1F PUSH1 0x24 DUP3 ADD MSTORE PUSH32 0x5265656E7472616E637947756172643A207265656E7472616E742063616C6C00 PUSH1 0x44 DUP3 ADD MSTORE PUSH1 0x64 SWAP1 REVERT JUMPDEST RETURNDATASIZE ISZERO PUSH2 0xA99 JUMPI RETURNDATASIZE SWAP1 PUSH8 0xFFFFFFFFFFFFFFFF DUP3 GT PUSH2 0x994 JUMPI PUSH1 0x40 MLOAD SWAP2 PUSH2 0xA8D PUSH1 0x1F DUP3 ADD PUSH1 0x1F NOT AND PUSH1 0x20 ADD DUP5 PUSH2 0x972 JUMP JUMPDEST DUP3 MSTORE RETURNDATASIZE PUSH1 0x0 PUSH1 0x20 DUP5 ADD RETURNDATACOPY JUMP JUMPDEST PUSH1 0x60 SWAP1 JUMP JUMPDEST SWAP2 SWAP1 DUP3 ADD DUP1 SWAP3 GT PUSH2 0x9B7 JUMPI JUMP JUMPDEST PUSH1 0x1 PUSH1 0x1 PUSH1 0xA0 SHL SUB AND PUSH1 0x0 DUP2 DUP2 MSTORE PUSH1 0x4 PUSH1 0x20 MSTORE PUSH1 0x40 SWAP1 KECCAK256 PUSH1 0x2 DUP2 ADD DUP1 SLOAD SWAP3 SWAP5 SWAP4 SWAP3 PUSH1 0xFF DUP2 AND DUP1 PUSH2 0xB5F JUMPI JUMPDEST ISZERO PUSH2 0xB3A JUMPI POP POP SWAP2 PUSH1 0x60 SWAP2 PUSH1 0x3 DUP5 PUSH2 0xB14 PUSH1 0x1 PUSH32 0xC8C928F301EBE78BB4C6C5376D72CF4169BD78ECB3CDB6C2BABDE81E5B0C38CC SWAP8 ADD SWAP4 DUP5 SLOAD PUSH2 0xA9E JUMP JUMPDEST DUP1 SWAP4 SSTORE ADD PUSH2 0xB23 DUP4 DUP3 SLOAD PUSH2 0xA9E JUMP JUMPDEST SWAP1 SSTORE PUSH1 0x40 MLOAD SWAP2 PUSH1 0x0 DUP4 MSTORE PUSH1 0x20 DUP4 ADD MSTORE PUSH1 0x40 DUP3 ADD MSTORE LOG2 JUMP JUMPDEST PUSH1 0x3 SWAP5 SWAP6 POP PUSH2 0xB50 PUSH1 0x1 SWAP3 SWAP4 SWAP5 TIMESTAMP DUP7 SSTORE TIMESTAMP PUSH2 0xA9E JUMP JUMPDEST DUP5 DUP4 ADD SSTORE PUSH1 0xFF NOT AND OR SWAP1 SSTORE ADD SSTORE JUMP JUMPDEST POP PUSH1 0x1 DUP4 ADD SLOAD TIMESTAMP LT PUSH2 0xAD6 JUMP INVALID LOG2 PUSH5 0x6970667358 0x22 SLT KECCAK256 0xB0 0xE7 0xA9 EXTCODEHASH 0xA6 DUP14 AND MULMOD CALLVALUE 0x5E MSIZE PUSH15 0xEECD7AFE0A58E2DDE800482766FEB8 CREATE2 PUSH21 0x95142664736F6C6343000813003300000000000000 "},"methodIdentifiers":{"DAILY_PRICE()":"50ada728","MONTHLY_PRICE()":"9f809c8f","PAYMENT_RECIPIENT()":"a54069f4","YEARLY_PRICE()":"8fb456d7","getETHPrice()":"a607a8d9","getSubscriptionStatus(address)":"1ddda9b6","owner()":"8da5cb5b","priceFeed()":"741bef1a","renounceOwnership()":"715018a6","setPriceFeed(address)":"724e78da","setUSDCToken(address)":"0f5a9d01","subscribeWithETH(uint256)":"92112162","subscribeWithUSDC(uint256)":"a0644377","transferOwnership(address)":"f2fde38b","usdcToken()":"11eac855","userSubscriptions(address)":"cf14b9e4"}}}}}