{"contracts/SubscriptionV3.sol":{"SubscriptionV3":{"abi":[{"inputs":[{"internalType":"address","name":"_revenueDistribution","type":"address"}],"stateMutability":"nonpayable","type":"constructor"},{"anonymous":false,"inputs":[{"indexed":true,"internalType":"address","name":"previousOwner","type":"address"},{"indexed":true,"internalType":"address","name":"newOwner","type":"address"}],"name":"OwnershipTransferred","type":"event"},{"anonymous":false,"inputs":[{"indexed":true,"internalType":"address","name":"newContract","type":"address"}],"name":"RevenueDistributionUpdated","type":"event"},{"anonymous":false,"inputs":[{"indexed":true,"internalType":"address","name":"user","type":"address"},{"indexed":false,"internalType":"uint256","name":"plan","type":"uint256"},{"indexed":false,"internalType":"uint256","name":"amount","type":"uint256"},{"indexed":false,"internalType":"uint256","name":"duration","type":"uint256"}],"name":"Subscribed","type":"event"},{"anonymous":false,"inputs":[{"indexed":true,"internalType":"address","name":"user","type":"address"},{"indexed":false,"internalType":"uint256","name":"plan","type":"uint256"},{"indexed":false,"internalType":"uint256","name":"amount","type":"uint256"},{"indexed":false,"internalType":"uint256","name":"newEndTime","type":"uint256"}],"name":"SubscriptionExtended","type":"event"},{"anonymous":false,"inputs":[{"indexed":true,"internalType":"address","name":"newToken","type":"address"}],"name":"USDCTokenUpdated","type":"event"},{"inputs":[],"name":"MONTHLY_PRICE","outputs":[{"internalType":"uint256","name":"","type":"uint256"}],"stateMutability":"view","type":"function"},{"inputs":[],"name":"THREE_MONTH_PRICE","outputs":[{"internalType":"uint256","name":"","type":"uint256"}],"stateMutability":"view","type":"function"},{"inputs":[],"name":"YEARLY_PRICE","outputs":[{"internalType":"uint256","name":"","type":"uint256"}],"stateMutability":"view","type":"function"},{"inputs":[],"name":"cancelSubscription","outputs":[],"stateMutability":"nonpayable","type":"function"},{"inputs":[],"name":"getETHPrice","outputs":[{"internalType":"uint256","name":"","type":"uint256"}],"stateMutability":"pure","type":"function"},{"inputs":[{"internalType":"address","name":"user","type":"address"}],"name":"getSubscriptionStatus","outputs":[{"internalType":"bool","name":"isActive","type":"bool"},{"internalType":"uint256","name":"remainingTime","type":"uint256"},{"internalType":"uint256","name":"endTime","type":"uint256"}],"stateMutability":"view","type":"function"},{"inputs":[{"internalType":"address","name":"user","type":"address"}],"name":"isSubscribed","outputs":[{"internalType":"bool","name":"","type":"bool"}],"stateMutability":"view","type":"function"},{"inputs":[],"name":"owner","outputs":[{"internalType":"address","name":"","type":"address"}],"stateMutability":"view","type":"function"},{"inputs":[],"name":"renounceOwnership","outputs":[],"stateMutability":"nonpayable","type":"function"},{"inputs":[],"name":"revenueDistribution","outputs":[{"internalType":"address","name":"","type":"address"}],"stateMutability":"view","type":"function"},{"inputs":[{"internalType":"address","name":"_revenueDistribution","type":"address"}],"name":"setRevenueDistribution","outputs":[],"stateMutability":"nonpayable","type":"function"},{"inputs":[{"internalType":"address","name":"_usdcToken","type":"address"}],"name":"setUSDCToken","outputs":[],"stateMutability":"nonpayable","type":"function"},{"inputs":[{"internalType":"uint256","name":"plan","type":"uint256"}],"name":"subscribeWithETH","outputs":[],"stateMutability":"payable","type":"function"},{"inputs":[{"internalType":"uint256","name":"plan","type":"uint256"}],"name":"subscribeWithUSDC","outputs":[],"stateMutability":"nonpayable","type":"function"},{"inputs":[{"internalType":"address","name":"newOwner","type":"address"}],"name":"transferOwnership","outputs":[],"stateMutability":"nonpayable","type":"function"},{"inputs":[],"name":"usdcToken","outputs":[{"internalType":"address","name":"","type":"address"}],"stateMutability":"view","type":"function"},{"inputs":[{"internalType":"address","name":"","type":"address"}],"name":"userSubscriptions","outputs":[{"internalType":"uint256","name":"startTime","type":"uint256"},{"internalType":"uint256","name":"endTime","type":"uint256"},{"internalType":"bool","name":"isActive","type":"bool"},{"internalType":"uint256","name":"totalPaid","type":"uint256"}],"stateMutability":"view","type":"function"},{"stateMutability":"payable","type":"receive"}],"evm":{"bytecode":{"linkReferences":{},"object":"6080346101aa57601f610f9338819003918201601f19168301916001600160401b038311848410176101af578084926020946040528339810103126101aa57516001600160a01b0390818116908190036101aa576001600055610061336101c5565b600380546001600160a01b031990811673036cbd53842c5426634e7929541ec2318f3dcf7e179091558115610159576002541617600255339060015416036101155733156100c1576100b2336101c5565b604051610d84908161020f8239f35b60405162461bcd60e51b815260206004820152602660248201527f4f776e61626c653a206e6577206f776e657220697320746865207a65726f206160448201526564647265737360d01b6064820152608490fd5b606460405162461bcd60e51b815260206004820152602060248201527f4f776e61626c653a2063616c6c6572206973206e6f7420746865206f776e65726044820152fd5b60405162461bcd60e51b8152602060048201526024808201527f496e76616c696420726576656e756520646973747269627574696f6e206164646044820152637265737360e01b6064820152608490fd5b600080fd5b634e487b7160e01b600052604160045260246000fd5b600180546001600160a01b039283166001600160a01b0319821681179092559091167f8be0079c531659141344cd1fd0a4f28419497f9722a3daafe3b4186f6b6457e0600080a356fe6080604081815260049081361015610022575b505050361561002057600080fd5b005b600092833560e01c90816304ada99914610a5e5750806307db702a14610a355780630f5a9d01146109c357806311eac8551461099a5780631ddda9b6146108f057806324e9edb01461087757806364bcbe4714610805578063715018a6146107a55780638da5cb5b1461077c5780638fb456d71461075d57806392112162146105275780639f809c8f14610509578063a0644377146102c4578063a607a8d9146102a0578063b92ae87c14610221578063cf14b9e4146101bc5763f2fde38b0361001257346101b85760203660031901126101b8576001600160a01b038235818116939192908490036101b457610117610a7b565b8315610162575050600154826bffffffffffffffffffffffff60a01b821617600155167f8be0079c531659141344cd1fd0a4f28419497f9722a3daafe3b4186f6b6457e0600080a380f35b906020608492519162461bcd60e51b8352820152602660248201527f4f776e61626c653a206e6577206f776e657220697320746865207a65726f206160448201526564647265737360d01b6064820152fd5b8480fd5b8280fd5b5090346101b85760203660031901126101b85780356001600160a01b0381169081900361021d57928291608094825260205220805491600182015491600360ff60028301541691015492825194855260208501521515908301526060820152f35b8380fd5b5090346101b85760203660031901126101b85780356001600160a01b0381169081900361021d57928291602094825284522090805161025f81610ad3565b8254815260018301549081858201526060600360ff6002870154161515958686850152015491015282610296575b50519015158152f35b421091503861028d565b8382346102c057816003193601126102c05760209051642e90edd0008152f35b5080fd5b50346101b8576020918260031936011261021d578035926102e3610bb6565b6001841015806104fe575b6102f790610b5e565b61030084610c0c565b92909160018060a01b03908781836003541660648951809481936323b872dd60e01b8352338a8401523060248401528a60448401525af190811561049e5789916104e1575b50156104a85787818360035416604485600254168a51948593849263095ea7b360e01b84528a8401528a60248401525af190811561049e578991610471575b501561043857509086916002541690813b156101b8578360248492838951958694859363397717a560e11b85528401525af1801561042e5761041a575b50506104107f5ad333a6d56a7ddb1e78d9ecb8047e9dafcb890a41a227ede8d950259a1f0f75936103f3838533610c4f565b519283923396846040919493926060820195825260208201520152565b0390a26001815580f35b61042390610b05565b6101b45784386103c1565b85513d84823e3d90fd5b8260649187519162461bcd60e51b835282015260146024820152731554d110c8185c1c1c9bdd985b0819985a5b195960621b6044820152fd5b6104919150823d8411610497575b6104898183610b19565b810190610b99565b38610384565b503d61047f565b87513d8b823e3d90fd5b8260649187519162461bcd60e51b835282015260146024820152731554d110c81d1c985b9cd9995c8819985a5b195960621b6044820152fd5b6104f89150823d8411610497576104898183610b19565b38610345565b5060038411156102ee565b8382346102c057816003193601126102c05760209051622625a08152f35b509190602090816003193601126101b857803591610543610bb6565b600183101580610752575b61055790610b5e565b34156107225761056683610c0c565b929091670de0b6b3a764000080840290848204148415171561070f57637735940090048034106106d4576002546001600160a01b0316803b156106d05787829160248b518094819363397717a560e11b8352858a8401525af180156106c6576106b3575b50803411610608575b5050506104107f5ad333a6d56a7ddb1e78d9ecb8047e9dafcb890a41a227ede8d950259a1f0f759394956103f3838533610c4f565b868080610616819434610b3b565b335af13d156106ae573d67ffffffffffffffff811161069b57885190610645601f8201601f1916850183610b19565b815287833d92013e5b1561065957806105d3565b865162461bcd60e51b815291820152601b60248201527f4661696c656420746f20726566756e6420657863657373204554480000000000604482015260649150fd5b634e487b7160e01b885260418452602488fd5b61064e565b6106bf90979197610b05565b95386105ca565b89513d8a823e3d90fd5b8780fd5b875162461bcd60e51b81528084018390526015602482015274125b9cdd59999a58da595b9d08115512081cd95b9d605a1b6044820152606490fd5b634e487b7160e01b875260118352602487fd5b845162461bcd60e51b815291820152600b60248201526a139bc8115512081cd95b9d60aa1b604482015260649150fd5b50600383111561054e565b8382346102c057816003193601126102c0576020905163017d78408152f35b8382346102c057816003193601126102c05760015490516001600160a01b039091168152602090f35b83346108025780600319360112610802576107be610a7b565b600180546001600160a01b0319811690915581906001600160a01b03167f8be0079c531659141344cd1fd0a4f28419497f9722a3daafe3b4186f6b6457e08280a380f35b80fd5b5050346102c05760203660031901126102c057356001600160a01b038116908190036102c057610833610a7b565b61083e811515610d10565b600280546001600160a01b031916821790557feb164ffa0272f758e3e474d09169dd8ec58d08cf141f9ba9e4aff1ae0e03d4418280a280f35b5090346101b857826003193601126101b8573383528060205260ff6002838520015416156108b5573383526020528120600201805460ff1916905580f35b6020606492519162461bcd60e51b8352820152601660248201527527379030b1ba34bb329039bab139b1b934b83a34b7b760511b6044820152fd5b5082346108025760203660031901126108025782356001600160a01b03811693908490036102c05760609382526020528181209180519161093083610ad3565b835483526001840154602084019381855286600360ff600289015416151597888785015201549101528461098f575b428111156109885761097391504290610b3b565b915b5191815193151584526020840152820152f35b5091610975565b80945042109361095f565b8382346102c057816003193601126102c05760035490516001600160a01b039091168152602090f35b5050346102c05760203660031901126102c057356001600160a01b038116908190036102c0576109f1610a7b565b6109fc811515610d10565b600380546001600160a01b031916821790557f60ecdd2cf009b737c2bad96928fb8b73fbcfee8a8bcf6e83f551f23895625e2f8280a280f35b8382346102c057816003193601126102c05760025490516001600160a01b039091168152602090f35b8490346102c057816003193601126102c057806266ff3060209252f35b6001546001600160a01b03163303610a8f57565b606460405162461bcd60e51b815260206004820152602060248201527f4f776e61626c653a2063616c6c6572206973206e6f7420746865206f776e65726044820152fd5b6080810190811067ffffffffffffffff821117610aef57604052565b634e487b7160e01b600052604160045260246000fd5b67ffffffffffffffff8111610aef57604052565b90601f8019910116810190811067ffffffffffffffff821117610aef57604052565b91908203918211610b4857565b634e487b7160e01b600052601160045260246000fd5b15610b6557565b60405162461bcd60e51b815260206004820152600c60248201526b24b73b30b634b210383630b760a11b6044820152606490fd5b90816020910312610bb157518015158103610bb15790565b600080fd5b600260005414610bc7576002600055565b60405162461bcd60e51b815260206004820152601f60248201527f5265656e7472616e637947756172643a207265656e7472616e742063616c6c006044820152606490fd5b60018103610c215750622625a09062278d0090565b600203610c34576266ff30906276a70090565b63017d7840906301e1338090565b91908201809211610b4857565b6001600160a01b031660008181526004602052604090206002810180549294939260ff811680610d03575b15610cde57505091606091600384610cb860017fc8c928f301ebe78bb4c6c5376d72cf4169bd78ecb3cdb6c2babde81e5b0c38cc9701938454610c42565b80935501610cc7838254610c42565b9055604051916000835260208301526040820152a2565b6003949550610cf4600192939442865542610c42565b8483015560ff19161790550155565b5060018301544210610c7a565b15610d1757565b60405162461bcd60e51b815260206004820152600f60248201526e496e76616c6964206164647265737360881b6044820152606490fdfea26469706673582212205df9abd0bc4283382a2cddc344e03ad328d76f6e4c8fe26943138e021e080a3064736f6c63430008130033","opcodes":"PUSH1 0x80 CALLVALUE PUSH2 0x1AA JUMPI PUSH1 0x1F PUSH2 0xF93 CODESIZE DUP2 SWAP1 SUB SWAP2 DUP3 ADD PUSH1 0x1F NOT AND DUP4 ADD SWAP2 PUSH1 0x1 PUSH1 0x1 PUSH1 0x40 SHL SUB DUP4 GT DUP5 DUP5 LT OR PUSH2 0x1AF JUMPI DUP1 DUP5 SWAP3 PUSH1 0x20 SWAP5 PUSH1 0x40 MSTORE DUP4 CODECOPY DUP2 ADD SUB SLT PUSH2 0x1AA JUMPI MLOAD PUSH1 0x1 PUSH1 0x1 PUSH1 0xA0 SHL SUB SWAP1 DUP2 DUP2 AND SWAP1 DUP2 SWAP1 SUB PUSH2 0x1AA JUMPI PUSH1 0x1 PUSH1 0x0 SSTORE PUSH2 0x61 CALLER PUSH2 0x1C5 JUMP JUMPDEST PUSH1 0x3 DUP1 SLOAD PUSH1 0x1 PUSH1 0x1 PUSH1 0xA0 SHL SUB NOT SWAP1 DUP2 AND PUSH20 0x36CBD53842C5426634E7929541EC2318F3DCF7E OR SWAP1 SWAP2 SSTORE DUP2 ISZERO PUSH2 0x159 JUMPI PUSH1 0x2 SLOAD AND OR PUSH1 0x2 SSTORE CALLER SWAP1 PUSH1 0x1 SLOAD AND SUB PUSH2 0x115 JUMPI CALLER ISZERO PUSH2 0xC1 JUMPI PUSH2 0xB2 CALLER PUSH2 0x1C5 JUMP JUMPDEST PUSH1 0x40 MLOAD PUSH2 0xD84 SWAP1 DUP2 PUSH2 0x20F DUP3 CODECOPY RETURN JUMPDEST PUSH1 0x40 MLOAD PUSH3 0x461BCD PUSH1 0xE5 SHL DUP2 MSTORE PUSH1 0x20 PUSH1 0x4 DUP3 ADD MSTORE PUSH1 0x26 PUSH1 0x24 DUP3 ADD MSTORE PUSH32 0x4F776E61626C653A206E6577206F776E657220697320746865207A65726F2061 PUSH1 0x44 DUP3 ADD MSTORE PUSH6 0x646472657373 PUSH1 0xD0 SHL PUSH1 0x64 DUP3 ADD MSTORE PUSH1 0x84 SWAP1 REVERT JUMPDEST PUSH1 0x64 PUSH1 0x40 MLOAD PUSH3 0x461BCD PUSH1 0xE5 SHL DUP2 MSTORE PUSH1 0x20 PUSH1 0x4 DUP3 ADD MSTORE PUSH1 0x20 PUSH1 0x24 DUP3 ADD MSTORE PUSH32 0x4F776E61626C653A2063616C6C6572206973206E6F7420746865206F776E6572 PUSH1 0x44 DUP3 ADD MSTORE REVERT JUMPDEST PUSH1 0x40 MLOAD PUSH3 0x461BCD PUSH1 0xE5 SHL DUP2 MSTORE PUSH1 0x20 PUSH1 0x4 DUP3 ADD MSTORE PUSH1 0x24 DUP1 DUP3 ADD MSTORE PUSH32 0x496E76616C696420726576656E756520646973747269627574696F6E20616464 PUSH1 0x44 DUP3 ADD MSTORE PUSH4 0x72657373 PUSH1 0xE0 SHL PUSH1 0x64 DUP3 ADD MSTORE PUSH1 0x84 SWAP1 REVERT JUMPDEST PUSH1 0x0 DUP1 REVERT JUMPDEST PUSH4 0x4E487B71 PUSH1 0xE0 SHL PUSH1 0x0 MSTORE PUSH1 0x41 PUSH1 0x4 MSTORE PUSH1 0x24 PUSH1 0x0 REVERT JUMPDEST PUSH1 0x1 DUP1 SLOAD PUSH1 0x1 PUSH1 0x1 PUSH1 0xA0 SHL SUB SWAP3 DUP4 AND PUSH1 0x1 PUSH1 0x1 PUSH1 0xA0 SHL SUB NOT DUP3 AND DUP2 OR SWAP1 SWAP3 SSTORE SWAP1 SWAP2 AND PUSH32 0x8BE0079C531659141344CD1FD0A4F28419497F9722A3DAAFE3B4186F6B6457E0 PUSH1 0x0 DUP1 LOG3 JUMP INVALID PUSH1 0x80 PUSH1 0x40 DUP2 DUP2 MSTORE PUSH1 0x4 SWAP1 DUP2 CALLDATASIZE LT ISZERO PUSH2 0x22 JUMPI JUMPDEST POP POP POP CALLDATASIZE ISZERO PUSH2 0x20 JUMPI PUSH1 0x0 DUP1 REVERT JUMPDEST STOP JUMPDEST PUSH1 0x0 SWAP3 DUP4 CALLDATALOAD PUSH1 0xE0 SHR SWAP1 DUP2 PUSH4 0x4ADA999 EQ PUSH2 0xA5E JUMPI POP DUP1 PUSH4 0x7DB702A EQ PUSH2 0xA35 JUMPI DUP1 PUSH4 0xF5A9D01 EQ PUSH2 0x9C3 JUMPI DUP1 PUSH4 0x11EAC855 EQ PUSH2 0x99A JUMPI DUP1 PUSH4 0x1DDDA9B6 EQ PUSH2 0x8F0 JUMPI DUP1 PUSH4 0x24E9EDB0 EQ PUSH2 0x877 JUMPI DUP1 PUSH4 0x64BCBE47 EQ PUSH2 0x805 JUMPI DUP1 PUSH4 0x715018A6 EQ PUSH2 0x7A5 JUMPI DUP1 PUSH4 0x8DA5CB5B EQ PUSH2 0x77C JUMPI DUP1 PUSH4 0x8FB456D7 EQ PUSH2 0x75D JUMPI DUP1 PUSH4 0x92112162 EQ PUSH2 0x527 JUMPI DUP1 PUSH4 0x9F809C8F EQ PUSH2 0x509 JUMPI DUP1 PUSH4 0xA0644377 EQ PUSH2 0x2C4 JUMPI DUP1 PUSH4 0xA607A8D9 EQ PUSH2 0x2A0 JUMPI DUP1 PUSH4 0xB92AE87C EQ PUSH2 0x221 JUMPI DUP1 PUSH4 0xCF14B9E4 EQ PUSH2 0x1BC JUMPI PUSH4 0xF2FDE38B SUB PUSH2 0x12 JUMPI CALLVALUE PUSH2 0x1B8 JUMPI PUSH1 0x20 CALLDATASIZE PUSH1 0x3 NOT ADD SLT PUSH2 0x1B8 JUMPI PUSH1 0x1 PUSH1 0x1 PUSH1 0xA0 SHL SUB DUP3 CALLDATALOAD DUP2 DUP2 AND SWAP4 SWAP2 SWAP3 SWAP1 DUP5 SWAP1 SUB PUSH2 0x1B4 JUMPI PUSH2 0x117 PUSH2 0xA7B JUMP JUMPDEST DUP4 ISZERO PUSH2 0x162 JUMPI POP POP PUSH1 0x1 SLOAD DUP3 PUSH12 0xFFFFFFFFFFFFFFFFFFFFFFFF PUSH1 0xA0 SHL DUP3 AND OR PUSH1 0x1 SSTORE AND PUSH32 0x8BE0079C531659141344CD1FD0A4F28419497F9722A3DAAFE3B4186F6B6457E0 PUSH1 0x0 DUP1 LOG3 DUP1 RETURN JUMPDEST SWAP1 PUSH1 0x20 PUSH1 0x84 SWAP3 MLOAD SWAP2 PUSH3 0x461BCD PUSH1 0xE5 SHL DUP4 MSTORE DUP3 ADD MSTORE PUSH1 0x26 PUSH1 0x24 DUP3 ADD MSTORE PUSH32 0x4F776E61626C653A206E6577206F776E657220697320746865207A65726F2061 PUSH1 0x44 DUP3 ADD MSTORE PUSH6 0x646472657373 PUSH1 0xD0 SHL PUSH1 0x64 DUP3 ADD MSTORE REVERT JUMPDEST DUP5 DUP1 REVERT JUMPDEST DUP3 DUP1 REVERT JUMPDEST POP SWAP1 CALLVALUE PUSH2 0x1B8 JUMPI PUSH1 0x20 CALLDATASIZE PUSH1 0x3 NOT ADD SLT PUSH2 0x1B8 JUMPI DUP1 CALLDATALOAD PUSH1 0x1 PUSH1 0x1 PUSH1 0xA0 SHL SUB DUP2 AND SWAP1 DUP2 SWAP1 SUB PUSH2 0x21D JUMPI SWAP3 DUP3 SWAP2 PUSH1 0x80 SWAP5 DUP3 MSTORE PUSH1 0x20 MSTORE KECCAK256 DUP1 SLOAD SWAP2 PUSH1 0x1 DUP3 ADD SLOAD SWAP2 PUSH1 0x3 PUSH1 0xFF PUSH1 0x2 DUP4 ADD SLOAD AND SWAP2 ADD SLOAD SWAP3 DUP3 MLOAD SWAP5 DUP6 MSTORE PUSH1 0x20 DUP6 ADD MSTORE ISZERO ISZERO SWAP1 DUP4 ADD MSTORE PUSH1 0x60 DUP3 ADD MSTORE RETURN JUMPDEST DUP4 DUP1 REVERT JUMPDEST POP SWAP1 CALLVALUE PUSH2 0x1B8 JUMPI PUSH1 0x20 CALLDATASIZE PUSH1 0x3 NOT ADD SLT PUSH2 0x1B8 JUMPI DUP1 CALLDATALOAD PUSH1 0x1 PUSH1 0x1 PUSH1 0xA0 SHL SUB DUP2 AND SWAP1 DUP2 SWAP1 SUB PUSH2 0x21D JUMPI SWAP3 DUP3 SWAP2 PUSH1 0x20 SWAP5 DUP3 MSTORE DUP5 MSTORE KECCAK256 SWAP1 DUP1 MLOAD PUSH2 0x25F DUP2 PUSH2 0xAD3 JUMP JUMPDEST DUP3 SLOAD DUP2 MSTORE PUSH1 0x1 DUP4 ADD SLOAD SWAP1 DUP2 DUP6 DUP3 ADD MSTORE PUSH1 0x60 PUSH1 0x3 PUSH1 0xFF PUSH1 0x2 DUP8 ADD SLOAD AND ISZERO ISZERO SWAP6 DUP7 DUP7 DUP6 ADD MSTORE ADD SLOAD SWAP2 ADD MSTORE DUP3 PUSH2 0x296 JUMPI JUMPDEST POP MLOAD SWAP1 ISZERO ISZERO DUP2 MSTORE RETURN JUMPDEST TIMESTAMP LT SWAP2 POP CODESIZE PUSH2 0x28D JUMP JUMPDEST DUP4 DUP3 CALLVALUE PUSH2 0x2C0 JUMPI DUP2 PUSH1 0x3 NOT CALLDATASIZE ADD SLT PUSH2 0x2C0 JUMPI PUSH1 0x20 SWAP1 MLOAD PUSH5 0x2E90EDD000 DUP2 MSTORE RETURN JUMPDEST POP DUP1 REVERT JUMPDEST POP CALLVALUE PUSH2 0x1B8 JUMPI PUSH1 0x20 SWAP2 DUP3 PUSH1 0x3 NOT CALLDATASIZE ADD SLT PUSH2 0x21D JUMPI DUP1 CALLDATALOAD SWAP3 PUSH2 0x2E3 PUSH2 0xBB6 JUMP JUMPDEST PUSH1 0x1 DUP5 LT ISZERO DUP1 PUSH2 0x4FE JUMPI JUMPDEST PUSH2 0x2F7 SWAP1 PUSH2 0xB5E JUMP JUMPDEST PUSH2 0x300 DUP5 PUSH2 0xC0C JUMP JUMPDEST SWAP3 SWAP1 SWAP2 PUSH1 0x1 DUP1 PUSH1 0xA0 SHL SUB SWAP1 DUP8 DUP2 DUP4 PUSH1 0x3 SLOAD AND PUSH1 0x64 DUP10 MLOAD DUP1 SWAP5 DUP2 SWAP4 PUSH4 0x23B872DD PUSH1 0xE0 SHL DUP4 MSTORE CALLER DUP11 DUP5 ADD MSTORE ADDRESS PUSH1 0x24 DUP5 ADD MSTORE DUP11 PUSH1 0x44 DUP5 ADD MSTORE GAS CALL SWAP1 DUP2 ISZERO PUSH2 0x49E JUMPI DUP10 SWAP2 PUSH2 0x4E1 JUMPI JUMPDEST POP ISZERO PUSH2 0x4A8 JUMPI DUP8 DUP2 DUP4 PUSH1 0x3 SLOAD AND PUSH1 0x44 DUP6 PUSH1 0x2 SLOAD AND DUP11 MLOAD SWAP5 DUP6 SWAP4 DUP5 SWAP3 PUSH4 0x95EA7B3 PUSH1 0xE0 SHL DUP5 MSTORE DUP11 DUP5 ADD MSTORE DUP11 PUSH1 0x24 DUP5 ADD MSTORE GAS CALL SWAP1 DUP2 ISZERO PUSH2 0x49E JUMPI DUP10 SWAP2 PUSH2 0x471 JUMPI JUMPDEST POP ISZERO PUSH2 0x438 JUMPI POP SWAP1 DUP7 SWAP2 PUSH1 0x2 SLOAD AND SWAP1 DUP2 EXTCODESIZE ISZERO PUSH2 0x1B8 JUMPI DUP4 PUSH1 0x24 DUP5 SWAP3 DUP4 DUP10 MLOAD SWAP6 DUP7 SWAP5 DUP6 SWAP4 PUSH4 0x397717A5 PUSH1 0xE1 SHL DUP6 MSTORE DUP5 ADD MSTORE GAS CALL DUP1 ISZERO PUSH2 0x42E JUMPI PUSH2 0x41A JUMPI JUMPDEST POP POP PUSH2 0x410 PUSH32 0x5AD333A6D56A7DDB1E78D9ECB8047E9DAFCB890A41A227EDE8D950259A1F0F75 SWAP4 PUSH2 0x3F3 DUP4 DUP6 CALLER PUSH2 0xC4F JUMP JUMPDEST MLOAD SWAP3 DUP4 SWAP3 CALLER SWAP7 DUP5 PUSH1 0x40 SWAP2 SWAP5 SWAP4 SWAP3 PUSH1 0x60 DUP3 ADD SWAP6 DUP3 MSTORE PUSH1 0x20 DUP3 ADD MSTORE ADD MSTORE JUMP JUMPDEST SUB SWAP1 LOG2 PUSH1 0x1 DUP2 SSTORE DUP1 RETURN JUMPDEST PUSH2 0x423 SWAP1 PUSH2 0xB05 JUMP JUMPDEST PUSH2 0x1B4 JUMPI DUP5 CODESIZE PUSH2 0x3C1 JUMP JUMPDEST DUP6 MLOAD RETURNDATASIZE DUP5 DUP3 RETURNDATACOPY RETURNDATASIZE SWAP1 REVERT JUMPDEST DUP3 PUSH1 0x64 SWAP2 DUP8 MLOAD SWAP2 PUSH3 0x461BCD PUSH1 0xE5 SHL DUP4 MSTORE DUP3 ADD MSTORE PUSH1 0x14 PUSH1 0x24 DUP3 ADD MSTORE PUSH20 0x1554D110C8185C1C1C9BDD985B0819985A5B1959 PUSH1 0x62 SHL PUSH1 0x44 DUP3 ADD MSTORE REVERT JUMPDEST PUSH2 0x491 SWAP2 POP DUP3 RETURNDATASIZE DUP5 GT PUSH2 0x497 JUMPI JUMPDEST PUSH2 0x489 DUP2 DUP4 PUSH2 0xB19 JUMP JUMPDEST DUP2 ADD SWAP1 PUSH2 0xB99 JUMP JUMPDEST CODESIZE PUSH2 0x384 JUMP JUMPDEST POP RETURNDATASIZE PUSH2 0x47F JUMP JUMPDEST DUP8 MLOAD RETURNDATASIZE DUP12 DUP3 RETURNDATACOPY RETURNDATASIZE SWAP1 REVERT JUMPDEST DUP3 PUSH1 0x64 SWAP2 DUP8 MLOAD SWAP2 PUSH3 0x461BCD PUSH1 0xE5 SHL DUP4 MSTORE DUP3 ADD MSTORE PUSH1 0x14 PUSH1 0x24 DUP3 ADD MSTORE PUSH20 0x1554D110C81D1C985B9CD9995C8819985A5B1959 PUSH1 0x62 SHL PUSH1 0x44 DUP3 ADD MSTORE REVERT JUMPDEST PUSH2 0x4F8 SWAP2 POP DUP3 RETURNDATASIZE DUP5 GT PUSH2 0x497 JUMPI PUSH2 0x489 DUP2 DUP4 PUSH2 0xB19 JUMP JUMPDEST CODESIZE PUSH2 0x345 JUMP JUMPDEST POP PUSH1 0x3 DUP5 GT ISZERO PUSH2 0x2EE JUMP JUMPDEST DUP4 DUP3 CALLVALUE PUSH2 0x2C0 JUMPI DUP2 PUSH1 0x3 NOT CALLDATASIZE ADD SLT PUSH2 0x2C0 JUMPI PUSH1 0x20 SWAP1 MLOAD PUSH3 0x2625A0 DUP2 MSTORE RETURN JUMPDEST POP SWAP2 SWAP1 PUSH1 0x20 SWAP1 DUP2 PUSH1 0x3 NOT CALLDATASIZE ADD SLT PUSH2 0x1B8 JUMPI DUP1 CALLDATALOAD SWAP2 PUSH2 0x543 PUSH2 0xBB6 JUMP JUMPDEST PUSH1 0x1 DUP4 LT ISZERO DUP1 PUSH2 0x752 JUMPI JUMPDEST PUSH2 0x557 SWAP1 PUSH2 0xB5E JUMP JUMPDEST CALLVALUE ISZERO PUSH2 0x722 JUMPI PUSH2 0x566 DUP4 PUSH2 0xC0C JUMP JUMPDEST SWAP3 SWAP1 SWAP2 PUSH8 0xDE0B6B3A7640000 DUP1 DUP5 MUL SWAP1 DUP5 DUP3 DIV EQ DUP5 ISZERO OR ISZERO PUSH2 0x70F JUMPI PUSH4 0x77359400 SWAP1 DIV DUP1 CALLVALUE LT PUSH2 0x6D4 JUMPI PUSH1 0x2 SLOAD PUSH1 0x1 PUSH1 0x1 PUSH1 0xA0 SHL SUB AND DUP1 EXTCODESIZE ISZERO PUSH2 0x6D0 JUMPI DUP8 DUP3 SWAP2 PUSH1 0x24 DUP12 MLOAD DUP1 SWAP5 DUP2 SWAP4 PUSH4 0x397717A5 PUSH1 0xE1 SHL DUP4 MSTORE DUP6 DUP11 DUP5 ADD MSTORE GAS CALL DUP1 ISZERO PUSH2 0x6C6 JUMPI PUSH2 0x6B3 JUMPI JUMPDEST POP DUP1 CALLVALUE GT PUSH2 0x608 JUMPI JUMPDEST POP POP POP PUSH2 0x410 PUSH32 0x5AD333A6D56A7DDB1E78D9ECB8047E9DAFCB890A41A227EDE8D950259A1F0F75 SWAP4 SWAP5 SWAP6 PUSH2 0x3F3 DUP4 DUP6 CALLER PUSH2 0xC4F JUMP JUMPDEST DUP7 DUP1 DUP1 PUSH2 0x616 DUP2 SWAP5 CALLVALUE PUSH2 0xB3B JUMP JUMPDEST CALLER GAS CALL RETURNDATASIZE ISZERO PUSH2 0x6AE JUMPI RETURNDATASIZE PUSH8 0xFFFFFFFFFFFFFFFF DUP2 GT PUSH2 0x69B JUMPI DUP9 MLOAD SWAP1 PUSH2 0x645 PUSH1 0x1F DUP3 ADD PUSH1 0x1F NOT AND DUP6 ADD DUP4 PUSH2 0xB19 JUMP JUMPDEST DUP2 MSTORE DUP8 DUP4 RETURNDATASIZE SWAP3 ADD RETURNDATACOPY JUMPDEST ISZERO PUSH2 0x659 JUMPI DUP1 PUSH2 0x5D3 JUMP JUMPDEST DUP7 MLOAD PUSH3 0x461BCD PUSH1 0xE5 SHL DUP2 MSTORE SWAP2 DUP3 ADD MSTORE PUSH1 0x1B PUSH1 0x24 DUP3 ADD MSTORE PUSH32 0x4661696C656420746F20726566756E6420657863657373204554480000000000 PUSH1 0x44 DUP3 ADD MSTORE PUSH1 0x64 SWAP2 POP REVERT JUMPDEST PUSH4 0x4E487B71 PUSH1 0xE0 SHL DUP9 MSTORE PUSH1 0x41 DUP5 MSTORE PUSH1 0x24 DUP9 REVERT JUMPDEST PUSH2 0x64E JUMP JUMPDEST PUSH2 0x6BF SWAP1 SWAP8 SWAP2 SWAP8 PUSH2 0xB05 JUMP JUMPDEST SWAP6 CODESIZE PUSH2 0x5CA JUMP JUMPDEST DUP10 MLOAD RETURNDATASIZE DUP11 DUP3 RETURNDATACOPY RETURNDATASIZE SWAP1 REVERT JUMPDEST DUP8 DUP1 REVERT JUMPDEST DUP8 MLOAD PUSH3 0x461BCD PUSH1 0xE5 SHL DUP2 MSTORE DUP1 DUP5 ADD DUP4 SWAP1 MSTORE PUSH1 0x15 PUSH1 0x24 DUP3 ADD MSTORE PUSH21 0x125B9CDD59999A58DA595B9D08115512081CD95B9D PUSH1 0x5A SHL PUSH1 0x44 DUP3 ADD MSTORE PUSH1 0x64 SWAP1 REVERT JUMPDEST PUSH4 0x4E487B71 PUSH1 0xE0 SHL DUP8 MSTORE PUSH1 0x11 DUP4 MSTORE PUSH1 0x24 DUP8 REVERT JUMPDEST DUP5 MLOAD PUSH3 0x461BCD PUSH1 0xE5 SHL DUP2 MSTORE SWAP2 DUP3 ADD MSTORE PUSH1 0xB PUSH1 0x24 DUP3 ADD MSTORE PUSH11 0x139BC8115512081CD95B9D PUSH1 0xAA SHL PUSH1 0x44 DUP3 ADD MSTORE PUSH1 0x64 SWAP2 POP REVERT JUMPDEST POP PUSH1 0x3 DUP4 GT ISZERO PUSH2 0x54E JUMP JUMPDEST DUP4 DUP3 CALLVALUE PUSH2 0x2C0 JUMPI DUP2 PUSH1 0x3 NOT CALLDATASIZE ADD SLT PUSH2 0x2C0 JUMPI PUSH1 0x20 SWAP1 MLOAD PUSH4 0x17D7840 DUP2 MSTORE RETURN JUMPDEST DUP4 DUP3 CALLVALUE PUSH2 0x2C0 JUMPI DUP2 PUSH1 0x3 NOT CALLDATASIZE ADD SLT PUSH2 0x2C0 JUMPI PUSH1 0x1 SLOAD SWAP1 MLOAD PUSH1 0x1 PUSH1 0x1 PUSH1 0xA0 SHL SUB SWAP1 SWAP2 AND DUP2 MSTORE PUSH1 0x20 SWAP1 RETURN JUMPDEST DUP4 CALLVALUE PUSH2 0x802 JUMPI DUP1 PUSH1 0x3 NOT CALLDATASIZE ADD SLT PUSH2 0x802 JUMPI PUSH2 0x7BE PUSH2 0xA7B JUMP JUMPDEST PUSH1 0x1 DUP1 SLOAD PUSH1 0x1 PUSH1 0x1 PUSH1 0xA0 SHL SUB NOT DUP2 AND SWAP1 SWAP2 SSTORE DUP2 SWAP1 PUSH1 0x1 PUSH1 0x1 PUSH1 0xA0 SHL SUB AND PUSH32 0x8BE0079C531659141344CD1FD0A4F28419497F9722A3DAAFE3B4186F6B6457E0 DUP3 DUP1 LOG3 DUP1 RETURN JUMPDEST DUP1 REVERT JUMPDEST POP POP CALLVALUE PUSH2 0x2C0 JUMPI PUSH1 0x20 CALLDATASIZE PUSH1 0x3 NOT ADD SLT PUSH2 0x2C0 JUMPI CALLDATALOAD PUSH1 0x1 PUSH1 0x1 PUSH1 0xA0 SHL SUB DUP2 AND SWAP1 DUP2 SWAP1 SUB PUSH2 0x2C0 JUMPI PUSH2 0x833 PUSH2 0xA7B JUMP JUMPDEST PUSH2 0x83E DUP2 ISZERO ISZERO PUSH2 0xD10 JUMP JUMPDEST PUSH1 0x2 DUP1 SLOAD PUSH1 0x1 PUSH1 0x1 PUSH1 0xA0 SHL SUB NOT AND DUP3 OR SWAP1 SSTORE PUSH32 0xEB164FFA0272F758E3E474D09169DD8EC58D08CF141F9BA9E4AFF1AE0E03D441 DUP3 DUP1 LOG2 DUP1 RETURN JUMPDEST POP SWAP1 CALLVALUE PUSH2 0x1B8 JUMPI DUP3 PUSH1 0x3 NOT CALLDATASIZE ADD SLT PUSH2 0x1B8 JUMPI CALLER DUP4 MSTORE DUP1 PUSH1 0x20 MSTORE PUSH1 0xFF PUSH1 0x2 DUP4 DUP6 KECCAK256 ADD SLOAD AND ISZERO PUSH2 0x8B5 JUMPI CALLER DUP4 MSTORE PUSH1 0x20 MSTORE DUP2 KECCAK256 PUSH1 0x2 ADD DUP1 SLOAD PUSH1 0xFF NOT AND SWAP1 SSTORE DUP1 RETURN JUMPDEST PUSH1 0x20 PUSH1 0x64 SWAP3 MLOAD SWAP2 PUSH3 0x461BCD PUSH1 0xE5 SHL DUP4 MSTORE DUP3 ADD MSTORE PUSH1 0x16 PUSH1 0x24 DUP3 ADD MSTORE PUSH22 0x27379030B1BA34BB329039BAB139B1B934B83A34B7B7 PUSH1 0x51 SHL PUSH1 0x44 DUP3 ADD MSTORE REVERT JUMPDEST POP DUP3 CALLVALUE PUSH2 0x802 JUMPI PUSH1 0x20 CALLDATASIZE PUSH1 0x3 NOT ADD SLT PUSH2 0x802 JUMPI DUP3 CALLDATALOAD PUSH1 0x1 PUSH1 0x1 PUSH1 0xA0 SHL SUB DUP2 AND SWAP4 SWAP1 DUP5 SWAP1 SUB PUSH2 0x2C0 JUMPI PUSH1 0x60 SWAP4 DUP3 MSTORE PUSH1 0x20 MSTORE DUP2 DUP2 KECCAK256 SWAP2 DUP1 MLOAD SWAP2 PUSH2 0x930 DUP4 PUSH2 0xAD3 JUMP JUMPDEST DUP4 SLOAD DUP4 MSTORE PUSH1 0x1 DUP5 ADD SLOAD PUSH1 0x20 DUP5 ADD SWAP4 DUP2 DUP6 MSTORE DUP7 PUSH1 0x3 PUSH1 0xFF PUSH1 0x2 DUP10 ADD SLOAD AND ISZERO ISZERO SWAP8 DUP9 DUP8 DUP6 ADD MSTORE ADD SLOAD SWAP2 ADD MSTORE DUP5 PUSH2 0x98F JUMPI JUMPDEST TIMESTAMP DUP2 GT ISZERO PUSH2 0x988 JUMPI PUSH2 0x973 SWAP2 POP TIMESTAMP SWAP1 PUSH2 0xB3B JUMP JUMPDEST SWAP2 JUMPDEST MLOAD SWAP2 DUP2 MLOAD SWAP4 ISZERO ISZERO DUP5 MSTORE PUSH1 0x20 DUP5 ADD MSTORE DUP3 ADD MSTORE RETURN JUMPDEST POP SWAP2 PUSH2 0x975 JUMP JUMPDEST DUP1 SWAP5 POP TIMESTAMP LT SWAP4 PUSH2 0x95F JUMP JUMPDEST DUP4 DUP3 CALLVALUE PUSH2 0x2C0 JUMPI DUP2 PUSH1 0x3 NOT CALLDATASIZE ADD SLT PUSH2 0x2C0 JUMPI PUSH1 0x3 SLOAD SWAP1 MLOAD PUSH1 0x1 PUSH1 0x1 PUSH1 0xA0 SHL SUB SWAP1 SWAP2 AND DUP2 MSTORE PUSH1 0x20 SWAP1 RETURN JUMPDEST POP POP CALLVALUE PUSH2 0x2C0 JUMPI PUSH1 0x20 CALLDATASIZE PUSH1 0x3 NOT ADD SLT PUSH2 0x2C0 JUMPI CALLDATALOAD PUSH1 0x1 PUSH1 0x1 PUSH1 0xA0 SHL SUB DUP2 AND SWAP1 DUP2 SWAP1 SUB PUSH2 0x2C0 JUMPI PUSH2 0x9F1 PUSH2 0xA7B JUMP JUMPDEST PUSH2 0x9FC DUP2 ISZERO ISZERO PUSH2 0xD10 JUMP JUMPDEST PUSH1 0x3 DUP1 SLOAD PUSH1 0x1 PUSH1 0x1 PUSH1 0xA0 SHL SUB NOT AND DUP3 OR SWAP1 SSTORE PUSH32 0x60ECDD2CF009B737C2BAD96928FB8B73FBCFEE8A8BCF6E83F551F23895625E2F DUP3 DUP1 LOG2 DUP1 RETURN JUMPDEST DUP4 DUP3 CALLVALUE PUSH2 0x2C0 JUMPI DUP2 PUSH1 0x3 NOT CALLDATASIZE ADD SLT PUSH2 0x2C0 JUMPI PUSH1 0x2 SLOAD SWAP1 MLOAD PUSH1 0x1 PUSH1 0x1 PUSH1 0xA0 SHL SUB SWAP1 SWAP2 AND DUP2 MSTORE PUSH1 0x20 SWAP1 RETURN JUMPDEST DUP5 SWAP1 CALLVALUE PUSH2 0x2C0 JUMPI DUP2 PUSH1 0x3 NOT CALLDATASIZE ADD SLT PUSH2 0x2C0 JUMPI DUP1 PUSH3 0x66FF30 PUSH1 0x20 SWAP3 MSTORE RETURN JUMPDEST PUSH1 0x1 SLOAD PUSH1 0x1 PUSH1 0x1 PUSH1 0xA0 SHL SUB AND CALLER SUB PUSH2 0xA8F JUMPI JUMP JUMPDEST PUSH1 0x64 PUSH1 0x40 MLOAD PUSH3 0x461BCD PUSH1 0xE5 SHL DUP2 MSTORE PUSH1 0x20 PUSH1 0x4 DUP3 ADD MSTORE PUSH1 0x20 PUSH1 0x24 DUP3 ADD MSTORE PUSH32 0x4F776E61626C653A2063616C6C6572206973206E6F7420746865206F776E6572 PUSH1 0x44 DUP3 ADD MSTORE REVERT JUMPDEST PUSH1 0x80 DUP2 ADD SWAP1 DUP2 LT PUSH8 0xFFFFFFFFFFFFFFFF DUP3 GT OR PUSH2 0xAEF JUMPI PUSH1 0x40 MSTORE JUMP JUMPDEST PUSH4 0x4E487B71 PUSH1 0xE0 SHL PUSH1 0x0 MSTORE PUSH1 0x41 PUSH1 0x4 MSTORE PUSH1 0x24 PUSH1 0x0 REVERT JUMPDEST PUSH8 0xFFFFFFFFFFFFFFFF DUP2 GT PUSH2 0xAEF JUMPI PUSH1 0x40 MSTORE JUMP JUMPDEST SWAP1 PUSH1 0x1F DUP1 NOT SWAP2 ADD AND DUP2 ADD SWAP1 DUP2 LT PUSH8 0xFFFFFFFFFFFFFFFF DUP3 GT OR PUSH2 0xAEF JUMPI PUSH1 0x40 MSTORE JUMP JUMPDEST SWAP2 SWAP1 DUP3 SUB SWAP2 DUP3 GT PUSH2 0xB48 JUMPI JUMP JUMPDEST PUSH4 0x4E487B71 PUSH1 0xE0 SHL PUSH1 0x0 MSTORE PUSH1 0x11 PUSH1 0x4 MSTORE PUSH1 0x24 PUSH1 0x0 REVERT JUMPDEST ISZERO PUSH2 0xB65 JUMPI JUMP JUMPDEST PUSH1 0x40 MLOAD PUSH3 0x461BCD PUSH1 0xE5 SHL DUP2 MSTORE PUSH1 0x20 PUSH1 0x4 DUP3 ADD MSTORE PUSH1 0xC PUSH1 0x24 DUP3 ADD MSTORE PUSH12 0x24B73B30B634B210383630B7 PUSH1 0xA1 SHL PUSH1 0x44 DUP3 ADD MSTORE PUSH1 0x64 SWAP1 REVERT JUMPDEST SWAP1 DUP2 PUSH1 0x20 SWAP2 SUB SLT PUSH2 0xBB1 JUMPI MLOAD DUP1 ISZERO ISZERO DUP2 SUB PUSH2 0xBB1 JUMPI SWAP1 JUMP JUMPDEST PUSH1 0x0 DUP1 REVERT JUMPDEST PUSH1 0x2 PUSH1 0x0 SLOAD EQ PUSH2 0xBC7 JUMPI PUSH1 0x2 PUSH1 0x0 SSTORE JUMP JUMPDEST PUSH1 0x40 MLOAD PUSH3 0x461BCD PUSH1 0xE5 SHL DUP2 MSTORE PUSH1 0x20 PUSH1 0x4 DUP3 ADD MSTORE PUSH1 0x1F PUSH1 0x24 DUP3 ADD MSTORE PUSH32 0x5265656E7472616E637947756172643A207265656E7472616E742063616C6C00 PUSH1 0x44 DUP3 ADD MSTORE PUSH1 0x64 SWAP1 REVERT JUMPDEST PUSH1 0x1 DUP2 SUB PUSH2 0xC21 JUMPI POP PUSH3 0x2625A0 SWAP1 PUSH3 0x278D00 SWAP1 JUMP JUMPDEST PUSH1 0x2 SUB PUSH2 0xC34 JUMPI PUSH3 0x66FF30 SWAP1 PUSH3 0x76A700 SWAP1 JUMP JUMPDEST PUSH4 0x17D7840 SWAP1 PUSH4 0x1E13380 SWAP1 JUMP JUMPDEST SWAP2 SWAP1 DUP3 ADD DUP1 SWAP3 GT PUSH2 0xB48 JUMPI JUMP JUMPDEST PUSH1 0x1 PUSH1 0x1 PUSH1 0xA0 SHL SUB AND PUSH1 0x0 DUP2 DUP2 MSTORE PUSH1 0x4 PUSH1 0x20 MSTORE PUSH1 0x40 SWAP1 KECCAK256 PUSH1 0x2 DUP2 ADD DUP1 SLOAD SWAP3 SWAP5 SWAP4 SWAP3 PUSH1 0xFF DUP2 AND DUP1 PUSH2 0xD03 JUMPI JUMPDEST ISZERO PUSH2 0xCDE JUMPI POP POP SWAP2 PUSH1 0x60 SWAP2 PUSH1 0x3 DUP5 PUSH2 0xCB8 PUSH1 0x1 PUSH32 0xC8C928F301EBE78BB4C6C5376D72CF4169BD78ECB3CDB6C2BABDE81E5B0C38CC SWAP8 ADD SWAP4 DUP5 SLOAD PUSH2 0xC42 JUMP JUMPDEST DUP1 SWAP4 SSTORE ADD PUSH2 0xCC7 DUP4 DUP3 SLOAD PUSH2 0xC42 JUMP JUMPDEST SWAP1 SSTORE PUSH1 0x40 MLOAD SWAP2 PUSH1 0x0 DUP4 MSTORE PUSH1 0x20 DUP4 ADD MSTORE PUSH1 0x40 DUP3 ADD MSTORE LOG2 JUMP JUMPDEST PUSH1 0x3 SWAP5 SWAP6 POP PUSH2 0xCF4 PUSH1 0x1 SWAP3 SWAP4 SWAP5 TIMESTAMP DUP7 SSTORE TIMESTAMP PUSH2 0xC42 JUMP JUMPDEST DUP5 DUP4 ADD SSTORE PUSH1 0xFF NOT AND OR SWAP1 SSTORE ADD SSTORE JUMP JUMPDEST POP PUSH1 0x1 DUP4 ADD SLOAD TIMESTAMP LT PUSH2 0xC7A JUMP JUMPDEST ISZERO PUSH2 0xD17 JUMPI JUMP JUMPDEST PUSH1 0x40 MLOAD PUSH3 0x461BCD PUSH1 0xE5 SHL DUP2 MSTORE PUSH1 0x20 PUSH1 0x4 DUP3 ADD MSTORE PUSH1 0xF PUSH1 0x24 DUP3 ADD MSTORE PUSH15 0x496E76616C69642061646472657373 PUSH1 0x88 SHL PUSH1 0x44 DUP3 ADD MSTORE PUSH1 0x64 SWAP1 REVERT INVALID LOG2 PUSH5 0x6970667358 0x22 SLT KECCAK256 0x5D 0xF9 0xAB 0xD0 0xBC TIMESTAMP DUP4 CODESIZE 0x2A 0x2C 0xDD 0xC3 PREVRANDAO 0xE0 GASPRICE 0xD3 0x28 0xD7 PUSH16 0x6E4C8FE26943138E021E080A3064736F PUSH13 0x63430008130033000000000000 "},"methodIdentifiers":{"MONTHLY_PRICE()":"9f809c8f","THREE_MONTH_PRICE()":"04ada999","YEARLY_PRICE()":"8fb456d7","cancelSubscription()":"24e9edb0","getETHPrice()":"a607a8d9","getSubscriptionStatus(address)":"1ddda9b6","isSubscribed(address)":"b92ae87c","owner()":"8da5cb5b","renounceOwnership()":"715018a6","revenueDistribution()":"07db702a","setRevenueDistribution(address)":"64bcbe47","setUSDCToken(address)":"0f5a9d01","subscribeWithETH(uint256)":"92112162","subscribeWithUSDC(uint256)":"a0644377","transferOwnership(address)":"f2fde38b","usdcToken()":"11eac855","userSubscriptions(address)":"cf14b9e4"}}}}}