{
  "_format": "hh-sol-artifact-1",
  "contractName": "SubscriptionV3",
  "sourceName": "contracts/SubscriptionV3.sol",
  "abi": [
    {
      "inputs": [
        {
          "internalType": "address",
          "name": "_revenueDistribution",
          "type": "address"
        }
      ],
      "stateMutability": "nonpayable",
      "type": "constructor"
    },
    {
      "anonymous": false,
      "inputs": [
        {
          "indexed": true,
          "internalType": "address",
          "name": "previousOwner",
          "type": "address"
        },
        {
          "indexed": true,
          "internalType": "address",
          "name": "newOwner",
          "type": "address"
        }
      ],
      "name": "OwnershipTransferred",
      "type": "event"
    },
    {
      "anonymous": false,
      "inputs": [
        {
          "indexed": true,
          "internalType": "address",
          "name": "newContract",
          "type": "address"
        }
      ],
      "name": "RevenueDistributionUpdated",
      "type": "event"
    },
    {
      "anonymous": false,
      "inputs": [
        {
          "indexed": true,
          "internalType": "address",
          "name": "user",
          "type": "address"
        },
        {
          "indexed": false,
          "internalType": "uint256",
          "name": "plan",
          "type": "uint256"
        },
        {
          "indexed": false,
          "internalType": "uint256",
          "name": "amount",
          "type": "uint256"
        },
        {
          "indexed": false,
          "internalType": "uint256",
          "name": "duration",
          "type": "uint256"
        }
      ],
      "name": "Subscribed",
      "type": "event"
    },
    {
      "anonymous": false,
      "inputs": [
        {
          "indexed": true,
          "internalType": "address",
          "name": "user",
          "type": "address"
        },
        {
          "indexed": false,
          "internalType": "uint256",
          "name": "plan",
          "type": "uint256"
        },
        {
          "indexed": false,
          "internalType": "uint256",
          "name": "amount",
          "type": "uint256"
        },
        {
          "indexed": false,
          "internalType": "uint256",
          "name": "newEndTime",
          "type": "uint256"
        }
      ],
      "name": "SubscriptionExtended",
      "type": "event"
    },
    {
      "anonymous": false,
      "inputs": [
        {
          "indexed": true,
          "internalType": "address",
          "name": "newToken",
          "type": "address"
        }
      ],
      "name": "USDCTokenUpdated",
      "type": "event"
    },
    {
      "inputs": [],
      "name": "MONTHLY_PRICE",
      "outputs": [
        {
          "internalType": "uint256",
          "name": "",
          "type": "uint256"
        }
      ],
      "stateMutability": "view",
      "type": "function"
    },
    {
      "inputs": [],
      "name": "THREE_MONTH_PRICE",
      "outputs": [
        {
          "internalType": "uint256",
          "name": "",
          "type": "uint256"
        }
      ],
      "stateMutability": "view",
      "type": "function"
    },
    {
      "inputs": [],
      "name": "YEARLY_PRICE",
      "outputs": [
        {
          "internalType": "uint256",
          "name": "",
          "type": "uint256"
        }
      ],
      "stateMutability": "view",
      "type": "function"
    },
    {
      "inputs": [],
      "name": "cancelSubscription",
      "outputs": [],
      "stateMutability": "nonpayable",
      "type": "function"
    },
    {
      "inputs": [],
      "name": "getETHPrice",
      "outputs": [
        {
          "internalType": "uint256",
          "name": "",
          "type": "uint256"
        }
      ],
      "stateMutability": "pure",
      "type": "function"
    },
    {
      "inputs": [
        {
          "internalType": "address",
          "name": "user",
          "type": "address"
        }
      ],
      "name": "getSubscriptionStatus",
      "outputs": [
        {
          "internalType": "bool",
          "name": "isActive",
          "type": "bool"
        },
        {
          "internalType": "uint256",
          "name": "remainingTime",
          "type": "uint256"
        },
        {
          "internalType": "uint256",
          "name": "endTime",
          "type": "uint256"
        }
      ],
      "stateMutability": "view",
      "type": "function"
    },
    {
      "inputs": [
        {
          "internalType": "address",
          "name": "user",
          "type": "address"
        }
      ],
      "name": "isSubscribed",
      "outputs": [
        {
          "internalType": "bool",
          "name": "",
          "type": "bool"
        }
      ],
      "stateMutability": "view",
      "type": "function"
    },
    {
      "inputs": [],
      "name": "owner",
      "outputs": [
        {
          "internalType": "address",
          "name": "",
          "type": "address"
        }
      ],
      "stateMutability": "view",
      "type": "function"
    },
    {
      "inputs": [],
      "name": "renounceOwnership",
      "outputs": [],
      "stateMutability": "nonpayable",
      "type": "function"
    },
    {
      "inputs": [],
      "name": "revenueDistribution",
      "outputs": [
        {
          "internalType": "address",
          "name": "",
          "type": "address"
        }
      ],
      "stateMutability": "view",
      "type": "function"
    },
    {
      "inputs": [
        {
          "internalType": "address",
          "name": "_revenueDistribution",
          "type": "address"
        }
      ],
      "name": "setRevenueDistribution",
      "outputs": [],
      "stateMutability": "nonpayable",
      "type": "function"
    },
    {
      "inputs": [
        {
          "internalType": "address",
          "name": "_usdcToken",
          "type": "address"
        }
      ],
      "name": "setUSDCToken",
      "outputs": [],
      "stateMutability": "nonpayable",
      "type": "function"
    },
    {
      "inputs": [
        {
          "internalType": "uint256",
          "name": "plan",
          "type": "uint256"
        }
      ],
      "name": "subscribeWithETH",
      "outputs": [],
      "stateMutability": "payable",
      "type": "function"
    },
    {
      "inputs": [
        {
          "internalType": "uint256",
          "name": "plan",
          "type": "uint256"
        }
      ],
      "name": "subscribeWithUSDC",
      "outputs": [],
      "stateMutability": "nonpayable",
      "type": "function"
    },
    {
      "inputs": [
        {
          "internalType": "address",
          "name": "newOwner",
          "type": "address"
        }
      ],
      "name": "transferOwnership",
      "outputs": [],
      "stateMutability": "nonpayable",
      "type": "function"
    },
    {
      "inputs": [],
      "name": "usdcToken",
      "outputs": [
        {
          "internalType": "address",
          "name": "",
          "type": "address"
        }
      ],
      "stateMutability": "view",
      "type": "function"
    },
    {
      "inputs": [
        {
          "internalType": "address",
          "name": "",
          "type": "address"
        }
      ],
      "name": "userSubscriptions",
      "outputs": [
        {
          "internalType": "uint256",
          "name": "startTime",
          "type": "uint256"
        },
        {
          "internalType": "uint256",
          "name": "endTime",
          "type": "uint256"
        },
        {
          "internalType": "bool",
          "name": "isActive",
          "type": "bool"
        },
        {
          "internalType": "uint256",
          "name": "totalPaid",
          "type": "uint256"
        }
      ],
      "stateMutability": "view",
      "type": "function"
    },
    {
      "stateMutability": "payable",
      "type": "receive"
    }
  ],
  "bytecode": "0x6080346101aa57601f610f9338819003918201601f19168301916001600160401b038311848410176101af578084926020946040528339810103126101aa57516001600160a01b0390818116908190036101aa576001600055610061336101c5565b600380546001600160a01b031990811673036cbd53842c5426634e7929541ec2318f3dcf7e179091558115610159576002541617600255339060015416036101155733156100c1576100b2336101c5565b604051610d84908161020f8239f35b60405162461bcd60e51b815260206004820152602660248201527f4f776e61626c653a206e6577206f776e657220697320746865207a65726f206160448201526564647265737360d01b6064820152608490fd5b606460405162461bcd60e51b815260206004820152602060248201527f4f776e61626c653a2063616c6c6572206973206e6f7420746865206f776e65726044820152fd5b60405162461bcd60e51b8152602060048201526024808201527f496e76616c696420726576656e756520646973747269627574696f6e206164646044820152637265737360e01b6064820152608490fd5b600080fd5b634e487b7160e01b600052604160045260246000fd5b600180546001600160a01b039283166001600160a01b0319821681179092559091167f8be0079c531659141344cd1fd0a4f28419497f9722a3daafe3b4186f6b6457e0600080a356fe6080604081815260049081361015610022575b505050361561002057600080fd5b005b600092833560e01c90816304ada99914610a5e5750806307db702a14610a355780630f5a9d01146109c357806311eac8551461099a5780631ddda9b6146108f057806324e9edb01461087757806364bcbe4714610805578063715018a6146107a55780638da5cb5b1461077c5780638fb456d71461075d57806392112162146105275780639f809c8f14610509578063a0644377146102c4578063a607a8d9146102a0578063b92ae87c14610221578063cf14b9e4146101bc5763f2fde38b0361001257346101b85760203660031901126101b8576001600160a01b038235818116939192908490036101b457610117610a7b565b8315610162575050600154826bffffffffffffffffffffffff60a01b821617600155167f8be0079c531659141344cd1fd0a4f28419497f9722a3daafe3b4186f6b6457e0600080a380f35b906020608492519162461bcd60e51b8352820152602660248201527f4f776e61626c653a206e6577206f776e657220697320746865207a65726f206160448201526564647265737360d01b6064820152fd5b8480fd5b8280fd5b5090346101b85760203660031901126101b85780356001600160a01b0381169081900361021d57928291608094825260205220805491600182015491600360ff60028301541691015492825194855260208501521515908301526060820152f35b8380fd5b5090346101b85760203660031901126101b85780356001600160a01b0381169081900361021d57928291602094825284522090805161025f81610ad3565b8254815260018301549081858201526060600360ff6002870154161515958686850152015491015282610296575b50519015158152f35b421091503861028d565b8382346102c057816003193601126102c05760209051642e90edd0008152f35b5080fd5b50346101b8576020918260031936011261021d578035926102e3610bb6565b6001841015806104fe575b6102f790610b5e565b61030084610c0c565b92909160018060a01b03908781836003541660648951809481936323b872dd60e01b8352338a8401523060248401528a60448401525af190811561049e5789916104e1575b50156104a85787818360035416604485600254168a51948593849263095ea7b360e01b84528a8401528a60248401525af190811561049e578991610471575b501561043857509086916002541690813b156101b8578360248492838951958694859363397717a560e11b85528401525af1801561042e5761041a575b50506104107f5ad333a6d56a7ddb1e78d9ecb8047e9dafcb890a41a227ede8d950259a1f0f75936103f3838533610c4f565b519283923396846040919493926060820195825260208201520152565b0390a26001815580f35b61042390610b05565b6101b45784386103c1565b85513d84823e3d90fd5b8260649187519162461bcd60e51b835282015260146024820152731554d110c8185c1c1c9bdd985b0819985a5b195960621b6044820152fd5b6104919150823d8411610497575b6104898183610b19565b810190610b99565b38610384565b503d61047f565b87513d8b823e3d90fd5b8260649187519162461bcd60e51b835282015260146024820152731554d110c81d1c985b9cd9995c8819985a5b195960621b6044820152fd5b6104f89150823d8411610497576104898183610b19565b38610345565b5060038411156102ee565b8382346102c057816003193601126102c05760209051622625a08152f35b509190602090816003193601126101b857803591610543610bb6565b600183101580610752575b61055790610b5e565b34156107225761056683610c0c565b929091670de0b6b3a764000080840290848204148415171561070f57637735940090048034106106d4576002546001600160a01b0316803b156106d05787829160248b518094819363397717a560e11b8352858a8401525af180156106c6576106b3575b50803411610608575b5050506104107f5ad333a6d56a7ddb1e78d9ecb8047e9dafcb890a41a227ede8d950259a1f0f759394956103f3838533610c4f565b868080610616819434610b3b565b335af13d156106ae573d67ffffffffffffffff811161069b57885190610645601f8201601f1916850183610b19565b815287833d92013e5b1561065957806105d3565b865162461bcd60e51b815291820152601b60248201527f4661696c656420746f20726566756e6420657863657373204554480000000000604482015260649150fd5b634e487b7160e01b885260418452602488fd5b61064e565b6106bf90979197610b05565b95386105ca565b89513d8a823e3d90fd5b8780fd5b875162461bcd60e51b81528084018390526015602482015274125b9cdd59999a58da595b9d08115512081cd95b9d605a1b6044820152606490fd5b634e487b7160e01b875260118352602487fd5b845162461bcd60e51b815291820152600b60248201526a139bc8115512081cd95b9d60aa1b604482015260649150fd5b50600383111561054e565b8382346102c057816003193601126102c0576020905163017d78408152f35b8382346102c057816003193601126102c05760015490516001600160a01b039091168152602090f35b83346108025780600319360112610802576107be610a7b565b600180546001600160a01b0319811690915581906001600160a01b03167f8be0079c531659141344cd1fd0a4f28419497f9722a3daafe3b4186f6b6457e08280a380f35b80fd5b5050346102c05760203660031901126102c057356001600160a01b038116908190036102c057610833610a7b565b61083e811515610d10565b600280546001600160a01b031916821790557feb164ffa0272f758e3e474d09169dd8ec58d08cf141f9ba9e4aff1ae0e03d4418280a280f35b5090346101b857826003193601126101b8573383528060205260ff6002838520015416156108b5573383526020528120600201805460ff1916905580f35b6020606492519162461bcd60e51b8352820152601660248201527527379030b1ba34bb329039bab139b1b934b83a34b7b760511b6044820152fd5b5082346108025760203660031901126108025782356001600160a01b03811693908490036102c05760609382526020528181209180519161093083610ad3565b835483526001840154602084019381855286600360ff600289015416151597888785015201549101528461098f575b428111156109885761097391504290610b3b565b915b5191815193151584526020840152820152f35b5091610975565b80945042109361095f565b8382346102c057816003193601126102c05760035490516001600160a01b039091168152602090f35b5050346102c05760203660031901126102c057356001600160a01b038116908190036102c0576109f1610a7b565b6109fc811515610d10565b600380546001600160a01b031916821790557f60ecdd2cf009b737c2bad96928fb8b73fbcfee8a8bcf6e83f551f23895625e2f8280a280f35b8382346102c057816003193601126102c05760025490516001600160a01b039091168152602090f35b8490346102c057816003193601126102c057806266ff3060209252f35b6001546001600160a01b03163303610a8f57565b606460405162461bcd60e51b815260206004820152602060248201527f4f776e61626c653a2063616c6c6572206973206e6f7420746865206f776e65726044820152fd5b6080810190811067ffffffffffffffff821117610aef57604052565b634e487b7160e01b600052604160045260246000fd5b67ffffffffffffffff8111610aef57604052565b90601f8019910116810190811067ffffffffffffffff821117610aef57604052565b91908203918211610b4857565b634e487b7160e01b600052601160045260246000fd5b15610b6557565b60405162461bcd60e51b815260206004820152600c60248201526b24b73b30b634b210383630b760a11b6044820152606490fd5b90816020910312610bb157518015158103610bb15790565b600080fd5b600260005414610bc7576002600055565b60405162461bcd60e51b815260206004820152601f60248201527f5265656e7472616e637947756172643a207265656e7472616e742063616c6c006044820152606490fd5b60018103610c215750622625a09062278d0090565b600203610c34576266ff30906276a70090565b63017d7840906301e1338090565b91908201809211610b4857565b6001600160a01b031660008181526004602052604090206002810180549294939260ff811680610d03575b15610cde57505091606091600384610cb860017fc8c928f301ebe78bb4c6c5376d72cf4169bd78ecb3cdb6c2babde81e5b0c38cc9701938454610c42565b80935501610cc7838254610c42565b9055604051916000835260208301526040820152a2565b6003949550610cf4600192939442865542610c42565b8483015560ff19161790550155565b5060018301544210610c7a565b15610d1757565b60405162461bcd60e51b815260206004820152600f60248201526e496e76616c6964206164647265737360881b6044820152606490fdfea26469706673582212205df9abd0bc4283382a2cddc344e03ad328d76f6e4c8fe26943138e021e080a3064736f6c63430008130033",
  "linkReferences": {},
  "deployedLinkReferences": {}
}