{
  "_format": "hh-sol-artifact-1",
  "contractName": "SubscriptionV2",
  "sourceName": "contracts/SubscriptionV2.sol",
  "abi": [
    {
      "inputs": [
        {
          "internalType": "address",
          "name": "_priceFeed",
          "type": "address"
        }
      ],
      "stateMutability": "nonpayable",
      "type": "constructor"
    },
    {
      "anonymous": false,
      "inputs": [
        {
          "indexed": true,
          "internalType": "address",
          "name": "previousOwner",
          "type": "address"
        },
        {
          "indexed": true,
          "internalType": "address",
          "name": "newOwner",
          "type": "address"
        }
      ],
      "name": "OwnershipTransferred",
      "type": "event"
    },
    {
      "anonymous": false,
      "inputs": [
        {
          "indexed": false,
          "internalType": "address",
          "name": "newPriceFeed",
          "type": "address"
        }
      ],
      "name": "PriceFeedUpdated",
      "type": "event"
    },
    {
      "anonymous": false,
      "inputs": [
        {
          "indexed": true,
          "internalType": "address",
          "name": "user",
          "type": "address"
        },
        {
          "indexed": false,
          "internalType": "uint256",
          "name": "plan",
          "type": "uint256"
        },
        {
          "indexed": false,
          "internalType": "uint256",
          "name": "amount",
          "type": "uint256"
        },
        {
          "indexed": false,
          "internalType": "uint256",
          "name": "duration",
          "type": "uint256"
        }
      ],
      "name": "Subscribed",
      "type": "event"
    },
    {
      "anonymous": false,
      "inputs": [
        {
          "indexed": true,
          "internalType": "address",
          "name": "user",
          "type": "address"
        },
        {
          "indexed": false,
          "internalType": "uint256",
          "name": "plan",
          "type": "uint256"
        },
        {
          "indexed": false,
          "internalType": "uint256",
          "name": "amount",
          "type": "uint256"
        },
        {
          "indexed": false,
          "internalType": "uint256",
          "name": "newEndTime",
          "type": "uint256"
        }
      ],
      "name": "SubscriptionExtended",
      "type": "event"
    },
    {
      "anonymous": false,
      "inputs": [
        {
          "indexed": false,
          "internalType": "address",
          "name": "newUSDCToken",
          "type": "address"
        }
      ],
      "name": "USDCTokenUpdated",
      "type": "event"
    },
    {
      "inputs": [],
      "name": "DAILY_PRICE",
      "outputs": [
        {
          "internalType": "uint256",
          "name": "",
          "type": "uint256"
        }
      ],
      "stateMutability": "view",
      "type": "function"
    },
    {
      "inputs": [],
      "name": "MONTHLY_PRICE",
      "outputs": [
        {
          "internalType": "uint256",
          "name": "",
          "type": "uint256"
        }
      ],
      "stateMutability": "view",
      "type": "function"
    },
    {
      "inputs": [],
      "name": "PAYMENT_RECIPIENT",
      "outputs": [
        {
          "internalType": "address",
          "name": "",
          "type": "address"
        }
      ],
      "stateMutability": "view",
      "type": "function"
    },
    {
      "inputs": [],
      "name": "YEARLY_PRICE",
      "outputs": [
        {
          "internalType": "uint256",
          "name": "",
          "type": "uint256"
        }
      ],
      "stateMutability": "view",
      "type": "function"
    },
    {
      "inputs": [],
      "name": "getETHPrice",
      "outputs": [
        {
          "internalType": "uint256",
          "name": "",
          "type": "uint256"
        }
      ],
      "stateMutability": "view",
      "type": "function"
    },
    {
      "inputs": [
        {
          "internalType": "address",
          "name": "user",
          "type": "address"
        }
      ],
      "name": "getSubscriptionStatus",
      "outputs": [
        {
          "internalType": "bool",
          "name": "isActive",
          "type": "bool"
        },
        {
          "internalType": "uint256",
          "name": "remainingTime",
          "type": "uint256"
        }
      ],
      "stateMutability": "view",
      "type": "function"
    },
    {
      "inputs": [],
      "name": "owner",
      "outputs": [
        {
          "internalType": "address",
          "name": "",
          "type": "address"
        }
      ],
      "stateMutability": "view",
      "type": "function"
    },
    {
      "inputs": [],
      "name": "priceFeed",
      "outputs": [
        {
          "internalType": "address",
          "name": "",
          "type": "address"
        }
      ],
      "stateMutability": "view",
      "type": "function"
    },
    {
      "inputs": [],
      "name": "renounceOwnership",
      "outputs": [],
      "stateMutability": "nonpayable",
      "type": "function"
    },
    {
      "inputs": [
        {
          "internalType": "address",
          "name": "_priceFeed",
          "type": "address"
        }
      ],
      "name": "setPriceFeed",
      "outputs": [],
      "stateMutability": "nonpayable",
      "type": "function"
    },
    {
      "inputs": [
        {
          "internalType": "address",
          "name": "_usdcToken",
          "type": "address"
        }
      ],
      "name": "setUSDCToken",
      "outputs": [],
      "stateMutability": "nonpayable",
      "type": "function"
    },
    {
      "inputs": [
        {
          "internalType": "uint256",
          "name": "plan",
          "type": "uint256"
        }
      ],
      "name": "subscribeWithETH",
      "outputs": [],
      "stateMutability": "payable",
      "type": "function"
    },
    {
      "inputs": [
        {
          "internalType": "uint256",
          "name": "plan",
          "type": "uint256"
        }
      ],
      "name": "subscribeWithUSDC",
      "outputs": [],
      "stateMutability": "nonpayable",
      "type": "function"
    },
    {
      "inputs": [
        {
          "internalType": "address",
          "name": "newOwner",
          "type": "address"
        }
      ],
      "name": "transferOwnership",
      "outputs": [],
      "stateMutability": "nonpayable",
      "type": "function"
    },
    {
      "inputs": [],
      "name": "usdcToken",
      "outputs": [
        {
          "internalType": "address",
          "name": "",
          "type": "address"
        }
      ],
      "stateMutability": "view",
      "type": "function"
    },
    {
      "inputs": [
        {
          "internalType": "address",
          "name": "",
          "type": "address"
        }
      ],
      "name": "userSubscriptions",
      "outputs": [
        {
          "internalType": "uint256",
          "name": "startTime",
          "type": "uint256"
        },
        {
          "internalType": "uint256",
          "name": "endTime",
          "type": "uint256"
        },
        {
          "internalType": "bool",
          "name": "isActive",
          "type": "bool"
        },
        {
          "internalType": "uint256",
          "name": "totalPaid",
          "type": "uint256"
        }
      ],
      "stateMutability": "view",
      "type": "function"
    },
    {
      "stateMutability": "payable",
      "type": "receive"
    }
  ],
  "bytecode": "0x6080604052600280546001600160a01b03191673036cbd53842c5426634e7929541ec2318f3dcf7e17905534801561003657600080fd5b50604051610ef7380380610ef7833981016040819052610055916101b9565b60016000556100633361008d565b600380546001600160a01b0319166001600160a01b038316179055610087336100df565b506101e9565b600180546001600160a01b038381166001600160a01b0319831681179093556040519116919082907f8be0079c531659141344cd1fd0a4f28419497f9722a3daafe3b4186f6b6457e090600090a35050565b6100e761015d565b6001600160a01b0381166101515760405162461bcd60e51b815260206004820152602660248201527f4f776e61626c653a206e6577206f776e657220697320746865207a65726f206160448201526564647265737360d01b60648201526084015b60405180910390fd5b61015a8161008d565b50565b6001546001600160a01b031633146101b75760405162461bcd60e51b815260206004820181905260248201527f4f776e61626c653a2063616c6c6572206973206e6f7420746865206f776e65726044820152606401610148565b565b6000602082840312156101cb57600080fd5b81516001600160a01b03811681146101e257600080fd5b9392505050565b610cff806101f86000396000f3fe6080604052600436106100f75760003560e01c80638fb456d71161008a578063a54069f411610059578063a54069f41461029d578063a607a8d9146102c5578063cf14b9e4146102dd578063f2fde38b1461034b57600080fd5b80638fb456d714610231578063921121621461024e5780639f809c8f14610261578063a06443771461027d57600080fd5b8063715018a6116100c6578063715018a6146101be578063724e78da146101d3578063741bef1a146101f35780638da5cb5b1461021357600080fd5b80630f5a9d011461010357806311eac855146101255780631ddda9b61461016257806350ada7281461019957600080fd5b366100fe57005b600080fd5b34801561010f57600080fd5b5061012361011e366004610be3565b61036b565b005b34801561013157600080fd5b50600254610145906001600160a01b031681565b6040516001600160a01b0390911681526020015b60405180910390f35b34801561016e57600080fd5b5061018261017d366004610be3565b6103c8565b604080519215158352602083019190915201610159565b3480156101a557600080fd5b506101b0622625a081565b604051908152602001610159565b3480156101ca57600080fd5b50610123610454565b3480156101df57600080fd5b506101236101ee366004610be3565b610468565b3480156101ff57600080fd5b50600354610145906001600160a01b031681565b34801561021f57600080fd5b506001546001600160a01b0316610145565b34801561023d57600080fd5b506101b068015af1d78b58c4000081565b61012361025c366004610c13565b6104be565b34801561026d57600080fd5b506101b06722b1c8c1227a000081565b34801561028957600080fd5b50610123610298366004610c13565b61078f565b3480156102a957600080fd5b506101457349ec6fff8d915dc8f1ff382941d0c5dadf9f013b81565b3480156102d157600080fd5b50642e90edd0006101b0565b3480156102e957600080fd5b506103256102f8366004610be3565b60046020526000908152604090208054600182015460028301546003909301549192909160ff9091169084565b604080519485526020850193909352901515918301919091526060820152608001610159565b34801561035757600080fd5b50610123610366366004610be3565b610973565b6103736109e9565b600280546001600160a01b0319166001600160a01b0383169081179091556040519081527f60ecdd2cf009b737c2bad96928fb8b73fbcfee8a8bcf6e83f551f23895625e2f906020015b60405180910390a150565b6001600160a01b0381166000908152600460209081526040808320815160808101835281548152600182015493810193909352600281015460ff161580159284018390526003909101546060840152839291906104285750806020015142105b92504281602001511161043c57600061044c565b42816020015161044c9190610c42565b915050915091565b61045c6109e9565b6104666000610a43565b565b6104706109e9565b600380546001600160a01b0319166001600160a01b0383169081179091556040519081527fe5b20b8497e4f3e2435ef9c20e2e26b47497ee13745ce1c681ad6640653119e6906020016103bd565b6104c6610a95565b80600114806104d55750806002145b806104e05750806003145b6105205760405162461bcd60e51b815260206004820152600c60248201526b24b73b30b634b210383630b760a11b60448201526064015b60405180910390fd5b6000808260010361054657610539622625a0601e610c5b565b915062278d009050610576565b8260020361056357506722b1c8c1227a0000905062278d00610576565b5068015af1d78b58c4000090506301e133805b642e90edd00060008161059185670de0b6b3a7640000610c5b565b61059b9190610c72565b9050803410156105e55760405162461bcd60e51b8152602060048201526015602482015274125b9cdd59999a58da595b9d08115512081cd95b9d605a1b6044820152606401610517565b6040516000907349ec6fff8d915dc8f1ff382941d0c5dadf9f013b9083908381818185875af1925050503d806000811461063b576040519150601f19603f3d011682016040523d82523d6000602084013e610640565b606091505b50509050806106865760405162461bcd60e51b815260206004820152601260248201527108cc2d2d8cac840e8de40e6cadcc8408aa8960731b6044820152606401610517565b8134111561072f5760003361069b8434610c42565b604051600081818185875af1925050503d80600081146106d7576040519150601f19603f3d011682016040523d82523d6000602084013e6106dc565b606091505b505090508061072d5760405162461bcd60e51b815260206004820152601b60248201527f4661696c656420746f20726566756e64206578636573732045544800000000006044820152606401610517565b505b61073a338587610aee565b604080518781526020810187905290810185905233907f5ad333a6d56a7ddb1e78d9ecb8047e9dafcb890a41a227ede8d950259a1f0f759060600160405180910390a2505050505061078c6001600055565b50565b610797610a95565b80600114806107a65750806002145b806107b15750806003145b6107ec5760405162461bcd60e51b815260206004820152600c60248201526b24b73b30b634b210383630b760a11b6044820152606401610517565b6000808260010361081257610805622625a0601e610c5b565b915062278d009050610842565b8260020361082f57506722b1c8c1227a0000905062278d00610842565b5068015af1d78b58c4000090506301e133805b6002546040516323b872dd60e01b81523360048201527349ec6fff8d915dc8f1ff382941d0c5dadf9f013b6024820152604481018490526000916001600160a01b0316906323b872dd906064016020604051808303816000875af11580156108ae573d6000803e3d6000fd5b505050506040513d601f19601f820116820180604052508101906108d29190610c94565b9050806109185760405162461bcd60e51b81526020600482015260146024820152731554d110c81d1c985b9cd9995c8819985a5b195960621b6044820152606401610517565b610923338385610aee565b604080518581526020810185905290810183905233907f5ad333a6d56a7ddb1e78d9ecb8047e9dafcb890a41a227ede8d950259a1f0f759060600160405180910390a250505061078c6001600055565b61097b6109e9565b6001600160a01b0381166109e05760405162461bcd60e51b815260206004820152602660248201527f4f776e61626c653a206e6577206f776e657220697320746865207a65726f206160448201526564647265737360d01b6064820152608401610517565b61078c81610a43565b6001546001600160a01b031633146104665760405162461bcd60e51b815260206004820181905260248201527f4f776e61626c653a2063616c6c6572206973206e6f7420746865206f776e65726044820152606401610517565b600180546001600160a01b038381166001600160a01b0319831681179093556040519116919082907f8be0079c531659141344cd1fd0a4f28419497f9722a3daafe3b4186f6b6457e090600090a35050565b600260005403610ae75760405162461bcd60e51b815260206004820152601f60248201527f5265656e7472616e637947756172643a207265656e7472616e742063616c6c006044820152606401610517565b6002600055565b6001600160a01b0383166000908152600460205260409020600281015460ff168015610b1d5750428160010154115b15610bae5782816001016000828254610b369190610cb6565b9250508190555081816003016000828254610b519190610cb6565b90915550506001810154604080516000815260208101859052908101919091526001600160a01b038516907fc8c928f301ebe78bb4c6c5376d72cf4169bd78ecb3cdb6c2babde81e5b0c38cc9060600160405180910390a2610bdd565b42808255610bbd908490610cb6565b60018083019190915560028201805460ff19169091179055600381018290555b50505050565b600060208284031215610bf557600080fd5b81356001600160a01b0381168114610c0c57600080fd5b9392505050565b600060208284031215610c2557600080fd5b5035919050565b634e487b7160e01b600052601160045260246000fd5b81810381811115610c5557610c55610c2c565b92915050565b8082028115828204841417610c5557610c55610c2c565b600082610c8f57634e487b7160e01b600052601260045260246000fd5b500490565b600060208284031215610ca657600080fd5b81518015158114610c0c57600080fd5b80820180821115610c5557610c55610c2c56fea26469706673582212201d1d4bee37e31ab91a871de9e733b4aedc1c435395cb92284618903821889bcd64736f6c63430008130033",
  "linkReferences": {},
  "deployedLinkReferences": {}
}