{
  "_format": "hh-sol-artifact-1",
  "contractName": "SubscriptionV2",
  "sourceName": "contracts/SubscriptionV2.sol",
  "abi": [
    {
      "inputs": [
        {
          "internalType": "address",
          "name": "_priceFeed",
          "type": "address"
        }
      ],
      "stateMutability": "nonpayable",
      "type": "constructor"
    },
    {
      "anonymous": false,
      "inputs": [
        {
          "indexed": true,
          "internalType": "address",
          "name": "previousOwner",
          "type": "address"
        },
        {
          "indexed": true,
          "internalType": "address",
          "name": "newOwner",
          "type": "address"
        }
      ],
      "name": "OwnershipTransferred",
      "type": "event"
    },
    {
      "anonymous": false,
      "inputs": [
        {
          "indexed": false,
          "internalType": "address",
          "name": "newPriceFeed",
          "type": "address"
        }
      ],
      "name": "PriceFeedUpdated",
      "type": "event"
    },
    {
      "anonymous": false,
      "inputs": [
        {
          "indexed": true,
          "internalType": "address",
          "name": "user",
          "type": "address"
        },
        {
          "indexed": false,
          "internalType": "uint256",
          "name": "plan",
          "type": "uint256"
        },
        {
          "indexed": false,
          "internalType": "uint256",
          "name": "amount",
          "type": "uint256"
        },
        {
          "indexed": false,
          "internalType": "uint256",
          "name": "duration",
          "type": "uint256"
        }
      ],
      "name": "Subscribed",
      "type": "event"
    },
    {
      "anonymous": false,
      "inputs": [
        {
          "indexed": true,
          "internalType": "address",
          "name": "user",
          "type": "address"
        },
        {
          "indexed": false,
          "internalType": "uint256",
          "name": "plan",
          "type": "uint256"
        },
        {
          "indexed": false,
          "internalType": "uint256",
          "name": "amount",
          "type": "uint256"
        },
        {
          "indexed": false,
          "internalType": "uint256",
          "name": "newEndTime",
          "type": "uint256"
        }
      ],
      "name": "SubscriptionExtended",
      "type": "event"
    },
    {
      "anonymous": false,
      "inputs": [
        {
          "indexed": false,
          "internalType": "address",
          "name": "newUSDCToken",
          "type": "address"
        }
      ],
      "name": "USDCTokenUpdated",
      "type": "event"
    },
    {
      "inputs": [],
      "name": "DAILY_PRICE",
      "outputs": [
        {
          "internalType": "uint256",
          "name": "",
          "type": "uint256"
        }
      ],
      "stateMutability": "view",
      "type": "function"
    },
    {
      "inputs": [],
      "name": "MONTHLY_PRICE",
      "outputs": [
        {
          "internalType": "uint256",
          "name": "",
          "type": "uint256"
        }
      ],
      "stateMutability": "view",
      "type": "function"
    },
    {
      "inputs": [],
      "name": "PAYMENT_RECIPIENT",
      "outputs": [
        {
          "internalType": "address",
          "name": "",
          "type": "address"
        }
      ],
      "stateMutability": "view",
      "type": "function"
    },
    {
      "inputs": [],
      "name": "YEARLY_PRICE",
      "outputs": [
        {
          "internalType": "uint256",
          "name": "",
          "type": "uint256"
        }
      ],
      "stateMutability": "view",
      "type": "function"
    },
    {
      "inputs": [],
      "name": "getETHPrice",
      "outputs": [
        {
          "internalType": "uint256",
          "name": "",
          "type": "uint256"
        }
      ],
      "stateMutability": "view",
      "type": "function"
    },
    {
      "inputs": [
        {
          "internalType": "address",
          "name": "user",
          "type": "address"
        }
      ],
      "name": "getSubscriptionStatus",
      "outputs": [
        {
          "internalType": "bool",
          "name": "isActive",
          "type": "bool"
        },
        {
          "internalType": "uint256",
          "name": "remainingTime",
          "type": "uint256"
        }
      ],
      "stateMutability": "view",
      "type": "function"
    },
    {
      "inputs": [],
      "name": "owner",
      "outputs": [
        {
          "internalType": "address",
          "name": "",
          "type": "address"
        }
      ],
      "stateMutability": "view",
      "type": "function"
    },
    {
      "inputs": [],
      "name": "priceFeed",
      "outputs": [
        {
          "internalType": "address",
          "name": "",
          "type": "address"
        }
      ],
      "stateMutability": "view",
      "type": "function"
    },
    {
      "inputs": [],
      "name": "renounceOwnership",
      "outputs": [],
      "stateMutability": "nonpayable",
      "type": "function"
    },
    {
      "inputs": [
        {
          "internalType": "address",
          "name": "_priceFeed",
          "type": "address"
        }
      ],
      "name": "setPriceFeed",
      "outputs": [],
      "stateMutability": "nonpayable",
      "type": "function"
    },
    {
      "inputs": [
        {
          "internalType": "address",
          "name": "_usdcToken",
          "type": "address"
        }
      ],
      "name": "setUSDCToken",
      "outputs": [],
      "stateMutability": "nonpayable",
      "type": "function"
    },
    {
      "inputs": [
        {
          "internalType": "uint256",
          "name": "plan",
          "type": "uint256"
        }
      ],
      "name": "subscribeWithETH",
      "outputs": [],
      "stateMutability": "payable",
      "type": "function"
    },
    {
      "inputs": [
        {
          "internalType": "uint256",
          "name": "plan",
          "type": "uint256"
        }
      ],
      "name": "subscribeWithUSDC",
      "outputs": [],
      "stateMutability": "nonpayable",
      "type": "function"
    },
    {
      "inputs": [
        {
          "internalType": "address",
          "name": "newOwner",
          "type": "address"
        }
      ],
      "name": "transferOwnership",
      "outputs": [],
      "stateMutability": "nonpayable",
      "type": "function"
    },
    {
      "inputs": [],
      "name": "usdcToken",
      "outputs": [
        {
          "internalType": "address",
          "name": "",
          "type": "address"
        }
      ],
      "stateMutability": "view",
      "type": "function"
    },
    {
      "inputs": [
        {
          "internalType": "address",
          "name": "",
          "type": "address"
        }
      ],
      "name": "userSubscriptions",
      "outputs": [
        {
          "internalType": "uint256",
          "name": "startTime",
          "type": "uint256"
        },
        {
          "internalType": "uint256",
          "name": "endTime",
          "type": "uint256"
        },
        {
          "internalType": "bool",
          "name": "isActive",
          "type": "bool"
        },
        {
          "internalType": "uint256",
          "name": "totalPaid",
          "type": "uint256"
        }
      ],
      "stateMutability": "view",
      "type": "function"
    },
    {
      "stateMutability": "payable",
      "type": "receive"
    }
  ],
  "bytecode": "0x60803461015057601f610d5738819003918201601f19168301916001600160401b038311848410176101555780849260209460405283398101031261015057516001600160a01b0390818116908190036101505760016000556100613361016b565b60018060a01b031973036cbd53842c5426634e7929541ec2318f3dcf7e81600254161760025560035416176003553390600154160361010c5733156100b8576100a93361016b565b604051610ba290816101b58239f35b60405162461bcd60e51b815260206004820152602660248201527f4f776e61626c653a206e6577206f776e657220697320746865207a65726f206160448201526564647265737360d01b6064820152608490fd5b606460405162461bcd60e51b815260206004820152602060248201527f4f776e61626c653a2063616c6c6572206973206e6f7420746865206f776e65726044820152fd5b600080fd5b634e487b7160e01b600052604160045260246000fd5b600180546001600160a01b039283166001600160a01b0319821681179092559091167f8be0079c531659141344cd1fd0a4f28419497f9722a3daafe3b4186f6b6457e0600080a356fe60406080815260048036101561001f575b5050361561001d57600080fd5b005b600091823560e01c80630f5a9d01146108ac57806311eac855146108835780631ddda9b6146107bf57806350ada728146107a1578063715018a614610741578063724e78da146106d3578063741bef1a146106aa5780638da5cb5b146106815780638fb456d71461065d57806392112162146104575780639f809c8f14610434578063a064437714610269578063a54069f41461023a578063a607a8d914610216578063cf14b9e4146101b15763f2fde38b146100dc5750610010565b346101ad5760203660031901126101ad576001600160a01b038235818116939192908490036101a95761010d61091a565b8315610157575050600154826bffffffffffffffffffffffff60a01b821617600155167f8be0079c531659141344cd1fd0a4f28419497f9722a3daafe3b4186f6b6457e08380a380f35b906020608492519162461bcd60e51b8352820152602660248201527f4f776e61626c653a206e6577206f776e657220697320746865207a65726f206160448201526564647265737360d01b6064820152fd5b8480fd5b8280fd5b5090346101ad5760203660031901126101ad5780356001600160a01b0381169081900361021257928291608094825260205220805491600182015491600360ff60028301541691015492825194855260208501521515908301526060820152f35b8380fd5b83823461023657816003193601126102365760209051642e90edd0008152f35b5080fd5b838234610236578160031936011261023657602090517349ec6fff8d915dc8f1ff382941d0c5dadf9f013b8152f35b50919034610236576020806003193601126101ad57813591610289610a08565b6001831480801561042a575b8015610420575b6102a5906109cd565b156103ee5763047868c09062278d00925b60025487516323b872dd60e01b815233848201527349ec6fff8d915dc8f1ff382941d0c5dadf9f013b602482015260448101859052908290829060649082908b906001600160a01b03165af19081156103e45787916103aa575b50156103715750506103677f5ad333a6d56a7ddb1e78d9ecb8047e9dafcb890a41a227ede8d950259a1f0f7593949561034a838533610aab565b519283923396846040919493926060820195825260208201520152565b0390a26001815580f35b865162461bcd60e51b81529182015260146024820152731554d110c81d1c985b9cd9995c8819985a5b195960621b604482015260649150fd5b90508181813d83116103dd575b6103c18183610972565b810103126103d9575180151581036103d95738610310565b8680fd5b503d6103b7565b88513d89823e3d90fd5b6002830361040a576722b1c8c1227a00009062278d00926102b6565b68015af1d78b58c40000906301e13380926102b6565b506003841461029c565b5060028414610295565b838234610236578160031936011261023657602090516722b1c8c1227a00008152f35b509190602036600319011261023657803590610471610a08565b60018214808015610653575b8015610649575b61048d906109cd565b156106195763047868c062278d00915b670de0b6b3a764000080830290838204148315171561060657642e90edd00090048034106105cb5785808080847349ec6fff8d915dc8f1ff382941d0c5dadf9f013b5af16104e9610a5e565b50156105935780341161052b575b50506103677f5ad333a6d56a7ddb1e78d9ecb8047e9dafcb890a41a227ede8d950259a1f0f7593949561034a838533610aab565b8580806105398194346109aa565b335af1610544610a5e565b501561055057806104f7565b606490602087519162461bcd60e51b8352820152601b60248201527f4661696c656420746f20726566756e64206578636573732045544800000000006044820152fd5b865162461bcd60e51b8152602081840152601260248201527108cc2d2d8cac840e8de40e6cadcc8408aa8960731b6044820152606490fd5b865162461bcd60e51b81526020818401526015602482015274125b9cdd59999a58da595b9d08115512081cd95b9d605a1b6044820152606490fd5b634e487b7160e01b865260118252602486fd5b60028203610634576722b1c8c1227a000062278d009161049d565b68015af1d78b58c400006301e133809161049d565b5060038314610484565b506002831461047d565b8382346102365781600319360112610236576020905168015af1d78b58c400008152f35b83823461023657816003193601126102365760015490516001600160a01b039091168152602090f35b83823461023657816003193601126102365760035490516001600160a01b039091168152602090f35b5090346101ad5760203660031901126101ad57356001600160a01b03811691908290036101ad577fe5b20b8497e4f3e2435ef9c20e2e26b47497ee13745ce1c681ad6640653119e69160209161072761091a565b600380546001600160a01b0319168317905551908152a180f35b833461079e578060031936011261079e5761075a61091a565b600180546001600160a01b0319811690915581906001600160a01b03167f8be0079c531659141344cd1fd0a4f28419497f9722a3daafe3b4186f6b6457e08280a380f35b80fd5b83823461023657816003193601126102365760209051622625a08152f35b50913461079e57602036600319011261079e5781356001600160a01b038116908190036102365781528160205282812091835190608082019082821067ffffffffffffffff83111761087057508452825481526001830154908160208201526060600360ff6002870154161515958688850152015491015282610865575b4281111561085f57610851915042906109aa565b825191151582526020820152f35b50610851565b80925042109161083d565b634e487b7160e01b845260419052602483fd5b83823461023657816003193601126102365760025490516001600160a01b039091168152602090f35b5090346101ad5760203660031901126101ad57356001600160a01b03811691908290036101ad577f60ecdd2cf009b737c2bad96928fb8b73fbcfee8a8bcf6e83f551f23895625e2f9160209161090061091a565b600280546001600160a01b0319168317905551908152a180f35b6001546001600160a01b0316330361092e57565b606460405162461bcd60e51b815260206004820152602060248201527f4f776e61626c653a2063616c6c6572206973206e6f7420746865206f776e65726044820152fd5b90601f8019910116810190811067ffffffffffffffff82111761099457604052565b634e487b7160e01b600052604160045260246000fd5b919082039182116109b757565b634e487b7160e01b600052601160045260246000fd5b156109d457565b60405162461bcd60e51b815260206004820152600c60248201526b24b73b30b634b210383630b760a11b6044820152606490fd5b600260005414610a19576002600055565b60405162461bcd60e51b815260206004820152601f60248201527f5265656e7472616e637947756172643a207265656e7472616e742063616c6c006044820152606490fd5b3d15610a99573d9067ffffffffffffffff82116109945760405191610a8d601f8201601f191660200184610972565b82523d6000602084013e565b606090565b919082018092116109b757565b6001600160a01b031660008181526004602052604090206002810180549294939260ff811680610b5f575b15610b3a57505091606091600384610b1460017fc8c928f301ebe78bb4c6c5376d72cf4169bd78ecb3cdb6c2babde81e5b0c38cc9701938454610a9e565b80935501610b23838254610a9e565b9055604051916000835260208301526040820152a2565b6003949550610b50600192939442865542610a9e565b8483015560ff19161790550155565b5060018301544210610ad656fea2646970667358221220b0e7a93fa68d1609345e596eeecd7afe0a58e2dde800482766feb8f57495142664736f6c63430008130033",
  "linkReferences": {},
  "deployedLinkReferences": {}
}