{
  "_format": "hh-sol-artifact-1",
  "contractName": "RevenueDistribution",
  "sourceName": "contracts/RevenueDistribution.sol",
  "abi": [
    {
      "inputs": [
        {
          "internalType": "address",
          "name": "_platformWallet",
          "type": "address"
        },
        {
          "internalType": "address",
          "name": "_musicNFTContract",
          "type": "address"
        },
        {
          "internalType": "address",
          "name": "_usdcToken",
          "type": "address"
        }
      ],
      "stateMutability": "nonpayable",
      "type": "constructor"
    },
    {
      "anonymous": false,
      "inputs": [
        {
          "indexed": true,
          "internalType": "address",
          "name": "newContract",
          "type": "address"
        }
      ],
      "name": "MusicNFTContractUpdated",
      "type": "event"
    },
    {
      "anonymous": false,
      "inputs": [
        {
          "indexed": true,
          "internalType": "address",
          "name": "previousOwner",
          "type": "address"
        },
        {
          "indexed": true,
          "internalType": "address",
          "name": "newOwner",
          "type": "address"
        }
      ],
      "name": "OwnershipTransferred",
      "type": "event"
    },
    {
      "anonymous": false,
      "inputs": [
        {
          "indexed": true,
          "internalType": "address",
          "name": "to",
          "type": "address"
        },
        {
          "indexed": false,
          "internalType": "uint256",
          "name": "ethAmount",
          "type": "uint256"
        },
        {
          "indexed": false,
          "internalType": "uint256",
          "name": "usdcAmount",
          "type": "uint256"
        }
      ],
      "name": "PlatformFeeWithdrawn",
      "type": "event"
    },
    {
      "anonymous": false,
      "inputs": [
        {
          "indexed": true,
          "internalType": "address",
          "name": "artist",
          "type": "address"
        },
        {
          "indexed": false,
          "internalType": "uint256",
          "name": "amount",
          "type": "uint256"
        }
      ],
      "name": "RevenueClaimedETH",
      "type": "event"
    },
    {
      "anonymous": false,
      "inputs": [
        {
          "indexed": true,
          "internalType": "address",
          "name": "artist",
          "type": "address"
        },
        {
          "indexed": false,
          "internalType": "uint256",
          "name": "amount",
          "type": "uint256"
        }
      ],
      "name": "RevenueClaimedUSDC",
      "type": "event"
    },
    {
      "anonymous": false,
      "inputs": [
        {
          "indexed": true,
          "internalType": "address",
          "name": "from",
          "type": "address"
        },
        {
          "indexed": false,
          "internalType": "uint256",
          "name": "ethAmount",
          "type": "uint256"
        },
        {
          "indexed": false,
          "internalType": "uint256",
          "name": "usdcAmount",
          "type": "uint256"
        }
      ],
      "name": "RevenueReceived",
      "type": "event"
    },
    {
      "inputs": [],
      "name": "ARTIST_POOL_PERCENT",
      "outputs": [
        {
          "internalType": "uint256",
          "name": "",
          "type": "uint256"
        }
      ],
      "stateMutability": "view",
      "type": "function"
    },
    {
      "inputs": [],
      "name": "PLATFORM_FEE_PERCENT",
      "outputs": [
        {
          "internalType": "uint256",
          "name": "",
          "type": "uint256"
        }
      ],
      "stateMutability": "view",
      "type": "function"
    },
    {
      "inputs": [],
      "name": "claimAllRevenue",
      "outputs": [],
      "stateMutability": "nonpayable",
      "type": "function"
    },
    {
      "inputs": [],
      "name": "claimETHRevenue",
      "outputs": [],
      "stateMutability": "nonpayable",
      "type": "function"
    },
    {
      "inputs": [],
      "name": "claimUSDCRevenue",
      "outputs": [],
      "stateMutability": "nonpayable",
      "type": "function"
    },
    {
      "inputs": [
        {
          "internalType": "address",
          "name": "",
          "type": "address"
        }
      ],
      "name": "claimedETH",
      "outputs": [
        {
          "internalType": "uint256",
          "name": "",
          "type": "uint256"
        }
      ],
      "stateMutability": "view",
      "type": "function"
    },
    {
      "inputs": [
        {
          "internalType": "address",
          "name": "",
          "type": "address"
        }
      ],
      "name": "claimedUSDC",
      "outputs": [
        {
          "internalType": "uint256",
          "name": "",
          "type": "uint256"
        }
      ],
      "stateMutability": "view",
      "type": "function"
    },
    {
      "inputs": [
        {
          "internalType": "address",
          "name": "artist",
          "type": "address"
        }
      ],
      "name": "getArtistRevenueSummary",
      "outputs": [
        {
          "internalType": "uint256",
          "name": "claimableETH",
          "type": "uint256"
        },
        {
          "internalType": "uint256",
          "name": "claimableUSDC",
          "type": "uint256"
        },
        {
          "internalType": "uint256",
          "name": "totalClaimedETH",
          "type": "uint256"
        },
        {
          "internalType": "uint256",
          "name": "totalClaimedUSDC",
          "type": "uint256"
        },
        {
          "internalType": "uint256",
          "name": "artistPlays",
          "type": "uint256"
        },
        {
          "internalType": "uint256",
          "name": "totalPlays",
          "type": "uint256"
        }
      ],
      "stateMutability": "view",
      "type": "function"
    },
    {
      "inputs": [
        {
          "internalType": "address",
          "name": "artist",
          "type": "address"
        }
      ],
      "name": "getClaimableETH",
      "outputs": [
        {
          "internalType": "uint256",
          "name": "claimable",
          "type": "uint256"
        }
      ],
      "stateMutability": "view",
      "type": "function"
    },
    {
      "inputs": [
        {
          "internalType": "address",
          "name": "artist",
          "type": "address"
        }
      ],
      "name": "getClaimableUSDC",
      "outputs": [
        {
          "internalType": "uint256",
          "name": "claimable",
          "type": "uint256"
        }
      ],
      "stateMutability": "view",
      "type": "function"
    },
    {
      "inputs": [
        {
          "internalType": "address",
          "name": "artist",
          "type": "address"
        }
      ],
      "name": "getPlayCounts",
      "outputs": [
        {
          "internalType": "uint256",
          "name": "artistPlays",
          "type": "uint256"
        },
        {
          "internalType": "uint256",
          "name": "totalPlays",
          "type": "uint256"
        }
      ],
      "stateMutability": "view",
      "type": "function"
    },
    {
      "inputs": [],
      "name": "lastTotalPlays",
      "outputs": [
        {
          "internalType": "uint256",
          "name": "",
          "type": "uint256"
        }
      ],
      "stateMutability": "view",
      "type": "function"
    },
    {
      "inputs": [],
      "name": "musicNFTContract",
      "outputs": [
        {
          "internalType": "address",
          "name": "",
          "type": "address"
        }
      ],
      "stateMutability": "view",
      "type": "function"
    },
    {
      "inputs": [],
      "name": "owner",
      "outputs": [
        {
          "internalType": "address",
          "name": "",
          "type": "address"
        }
      ],
      "stateMutability": "view",
      "type": "function"
    },
    {
      "inputs": [],
      "name": "platformWallet",
      "outputs": [
        {
          "internalType": "address",
          "name": "",
          "type": "address"
        }
      ],
      "stateMutability": "view",
      "type": "function"
    },
    {
      "inputs": [
        {
          "internalType": "uint256",
          "name": "usdcAmount",
          "type": "uint256"
        }
      ],
      "name": "receiveSubscriptionPayment",
      "outputs": [],
      "stateMutability": "payable",
      "type": "function"
    },
    {
      "inputs": [],
      "name": "renounceOwnership",
      "outputs": [],
      "stateMutability": "nonpayable",
      "type": "function"
    },
    {
      "inputs": [
        {
          "internalType": "address",
          "name": "_musicNFTContract",
          "type": "address"
        }
      ],
      "name": "setMusicNFTContract",
      "outputs": [],
      "stateMutability": "nonpayable",
      "type": "function"
    },
    {
      "inputs": [
        {
          "internalType": "address",
          "name": "_platformWallet",
          "type": "address"
        }
      ],
      "name": "setPlatformWallet",
      "outputs": [],
      "stateMutability": "nonpayable",
      "type": "function"
    },
    {
      "inputs": [
        {
          "internalType": "address",
          "name": "_usdcToken",
          "type": "address"
        }
      ],
      "name": "setUSDCToken",
      "outputs": [],
      "stateMutability": "nonpayable",
      "type": "function"
    },
    {
      "inputs": [],
      "name": "totalETHPool",
      "outputs": [
        {
          "internalType": "uint256",
          "name": "",
          "type": "uint256"
        }
      ],
      "stateMutability": "view",
      "type": "function"
    },
    {
      "inputs": [],
      "name": "totalUSDCPool",
      "outputs": [
        {
          "internalType": "uint256",
          "name": "",
          "type": "uint256"
        }
      ],
      "stateMutability": "view",
      "type": "function"
    },
    {
      "inputs": [
        {
          "internalType": "address",
          "name": "newOwner",
          "type": "address"
        }
      ],
      "name": "transferOwnership",
      "outputs": [],
      "stateMutability": "nonpayable",
      "type": "function"
    },
    {
      "inputs": [],
      "name": "usdcToken",
      "outputs": [
        {
          "internalType": "address",
          "name": "",
          "type": "address"
        }
      ],
      "stateMutability": "view",
      "type": "function"
    },
    {
      "stateMutability": "payable",
      "type": "receive"
    }
  ],
  "bytecode": "0x608034620001c657601f620015ed38819003918201601f191683019291906001600160401b03841183851017620001cb578160609284926040968752833981010312620001c6576200005181620001e1565b906200006d836200006560208401620001e1565b9201620001e1565b6001600081815581546001600160a01b03198082163390811790945587519690956001600160a01b0394909385938416907f8be0079c531659141344cd1fd0a4f28419497f9722a3daafe3b4186f6b6457e09080a316948515620001845750811691821562000140571692831562000107578260025416176002558160035416176003556004541617600455516113f69081620001f78239f35b845162461bcd60e51b815260206004820152601260248201527124b73b30b634b2102aa9a221903a37b5b2b760711b6044820152606490fd5b855162461bcd60e51b815260206004820152601460248201527f496e76616c6964204e465420636f6e74726163740000000000000000000000006044820152606490fd5b62461bcd60e51b815260206004820152601760248201527f496e76616c696420706c6174666f726d2077616c6c65740000000000000000006044820152606490fd5b600080fd5b634e487b7160e01b600052604160045260246000fd5b51906001600160a01b0382168203620001c65756fe60406080815260049081361015610020575b5050361561001e57600080fd5b005b600091823560e01c80630f5a9d0114610d2457806311eac85514610cfd57806321974ca514610cde5780632a75cf2c14610cae578063560d52d414610c9257806357b4002c14610c6957806369266aa814610c4a5780636b5204f214610b3d578063715018a614610ae057806372ee2f4a1461076c578063747265bd146105955780638831e9cf146105415780638da5cb5b146105185780638eda3096146104dc578063a8abc7561461040d578063b7ef0dd514610391578063cd2e911b14610357578063d34d3cd914610338578063d82a5513146102ff578063e80eb99a1461028d578063ef5438e914610271578063f2fde38b1461019e578063fa2af9da146101715763fdca4300146101355750610011565b3461016d57602036600319011261016d57356001600160a01b0381169081900361016d57828291602094526008845220549051908152f35b8280fd5b50503461019a578160031936011261019a5760025490516001600160a01b039091168152602090f35b5080fd5b50903461016d57602036600319011261016d576001600160a01b0382358181169391929084900361026d576101d1610d70565b831561021b575050600154826bffffffffffffffffffffffff60a01b821617600155167f8be0079c531659141344cd1fd0a4f28419497f9722a3daafe3b4186f6b6457e08380a380f35b906020608492519162461bcd60e51b8352820152602660248201527f4f776e61626c653a206e6577206f776e657220697320746865207a65726f206160448201526564647265737360d01b6064820152fd5b8480fd5b50503461019a578160031936011261019a576020905160558152f35b83823461019a57602036600319011261019a57356001600160a01b0381169081900361019a576102bb610d70565b6102c6811515611362565b600380546001600160a01b031916821790557fd4fd272e28e24db1c51c1a668760bd87719c985d1f607b82f0bc80025f551cff8280a280f35b503461016d57602036600319011261016d57356001600160a01b0381169081900361016d57828291602094526007845220549051908152f35b50503461019a578160031936011261019a576020906005549051908152f35b503461016d57602036600319011261016d5735916001600160a01b038316830361038e5750610387602092610f78565b9051908152f35b80fd5b5082903461019a57602036600319011261019a5735916001600160a01b03831680840361016d57836103c460c095610f17565b936103ce82610f78565b92815260076020526103ec8480832054926008602052205492611026565b949093815196875260208701528501526060840152608083015260a0820152f35b50903461016d578260031936011261016d57610427610ec1565b61043033610f17565b91821561049a5750338352600760205280832061044e838254610ea2565b90556104698380808086335af1610463610e72565b506112df565b519081527f70884bbdcd3e0c5a54299b654960a9e68045a4f522be81c73875c1b3ada3675660203392a26001815580f35b6020606492519162461bcd60e51b8352820152601760248201527f4e6f2045544820726576656e756520746f20636c61696d0000000000000000006044820152fd5b5082903461019a57602036600319011261019a5735906001600160a01b038216820361038e575061050c90611026565b82519182526020820152f35b50503461019a578160031936011261019a5760015490516001600160a01b039091168152602090f35b83823461019a57602036600319011261019a57356001600160a01b0381169081900361019a5761056f610d70565b61057a811515611362565b6bffffffffffffffffffffffff60a01b600254161760025580f35b50903461016d578260031936011261016d576105af610ec1565b6105b833610f17565b916105c233610f78565b92801580158091610763575b1561072a576106ce575b50826105e7575b836001815580f35b610642918391338652602092839160088352838820610607838254610ea2565b90558054845163a9059cbb60e01b8152339281019283526020830193909352919586926001600160a01b03169183918a918391604090910190565b03925af19283156106c457859361067c575b5061066d6000805160206113a183398151915293611320565b519283523392a23880806105df565b92508183813d83116106bd575b6106938183610e1e565b8101031261026d5761066d6106b66000805160206113a183398151915294610eaf565b9350610654565b503d610689565b81513d87823e3d90fd5b33855260076020528285206106e4828254610ea2565b90556106f98580808085335af1610463610e72565b82519081527f70884bbdcd3e0c5a54299b654960a9e68045a4f522be81c73875c1b3ada3675660203392a2386105d8565b835162461bcd60e51b815260208185015260136024820152724e6f20726576656e756520746f20636c61696d60681b6044820152606490fd5b508415156105ce565b5091906020908160031936011261016d578335610787610ec1565b341580158082610ad7575b15610a9e576109f1575b5080159485156107de575b50907f5e32da036722824668dcb7102e4c5bca6c9e27c6471a05559320c5621bdb6548918151933485528401523392a26001815580f35b805483516323b872dd60e01b81523381840152306024820152604481018490526001600160a01b0397918690829060649082908b908d165af19081156109e75787916109ae575b501561097457600f830290838204600f14171561096157846064610888920461084e8186610e11565b9880855416906002541689885180968195829463a9059cbb60e01b84528a840160209093929193604081019460018060a01b031681520152565b03925af190811561095757869161091e575b50156108db57506108d07f5e32da036722824668dcb7102e4c5bca6c9e27c6471a05559320c5621bdb6548939495600654610ea2565b6006558493926107a7565b825162461bcd60e51b8152908101849052601f60248201527f4661696c656420746f2073656e64205553444320746f20706c6174666f726d006044820152606490fd5b90508481813d8311610950575b6109358183610e1e565b8101031261094c5761094690610eaf565b3861089a565b8580fd5b503d61092b565b84513d88823e3d90fd5b634e487b7160e01b865260118252602486fd5b835162461bcd60e51b815280830186905260146024820152731554d110c81d1c985b9cd9995c8819985a5b195960621b6044820152606490fd5b90508581813d83116109e0575b6109c58183610e1e565b810103126109dc576109d690610eaf565b38610825565b8680fd5b503d6109bb565b85513d89823e3d90fd5b600f340290348204600f141715610a8b576064900484808080610a148534610e11565b6002549095906001600160a01b03165af1610a2d610e72565b5015610a4857610a3f90600554610ea2565b6005553861079c565b825162461bcd60e51b8152808701859052601e60248201527f4661696c656420746f2073656e642045544820746f20706c6174666f726d00006044820152606490fd5b634e487b7160e01b855260118652602485fd5b835162461bcd60e51b81528088018690526013602482015272139bc81c185e5b595b9d081c1c9bdd9a591959606a1b6044820152606490fd5b50821515610792565b833461038e578060031936011261038e57610af9610d70565b600180546001600160a01b0319811690915581906001600160a01b03167f8be0079c531659141344cd1fd0a4f28419497f9722a3daafe3b4186f6b6457e08280a380f35b50903461016d578260031936011261016d57610b57610ec1565b610b6033610f78565b918215610c0857610b87918391338652602092839160088352838820610607838254610ea2565b03925af19283156106c4578593610bc0575b50610bb26000805160206113a183398151915293611320565b519283523392a26001815580f35b92508183813d8311610c01575b610bd78183610e1e565b8101031261026d57610bb2610bfa6000805160206113a183398151915294610eaf565b9350610b99565b503d610bcd565b6020606492519162461bcd60e51b8352820152601860248201527f4e6f205553444320726576656e756520746f20636c61696d00000000000000006044820152fd5b50503461019a578160031936011261019a576020906006549051908152f35b50503461019a578160031936011261019a5760035490516001600160a01b039091168152602090f35b50503461019a578160031936011261019a5760209051600f8152f35b503461016d57602036600319011261016d5735916001600160a01b038316830361038e5750610387602092610f17565b50503461019a578160031936011261019a576020906009549051908152f35b503461016d578260031936011261016d575490516001600160a01b03909116815260209150f35b83823461019a57602036600319011261019a5780356001600160a01b0381169081900361016d57610d53610d70565b610d5e811515611362565b81546001600160a01b03191617905580f35b6001546001600160a01b03163303610d8457565b606460405162461bcd60e51b815260206004820152602060248201527f4f776e61626c653a2063616c6c6572206973206e6f7420746865206f776e65726044820152fd5b81810292918115918404141715610ddb57565b634e487b7160e01b600052601160045260246000fd5b8115610dfb570490565b634e487b7160e01b600052601260045260246000fd5b91908203918211610ddb57565b90601f8019910116810190811067ffffffffffffffff821117610e4057604052565b634e487b7160e01b600052604160045260246000fd5b67ffffffffffffffff8111610e4057601f01601f191660200190565b3d15610e9d573d90610e8382610e56565b91610e916040519384610e1e565b82523d6000602084013e565b606090565b91908201809211610ddb57565b51908115158203610ebc57565b600080fd5b600260005414610ed2576002600055565b60405162461bcd60e51b815260206004820152601f60248201527f5265656e7472616e637947756172643a207265656e7472616e742063616c6c006044820152606490fd5b610f2081611026565b8015610f7057610f35610f3a92600554610dc8565b610df1565b6001600160a01b03909116600090815260076020526040812054909181811115610f6b57610f689250610e11565b90565b505090565b505050600090565b610f8181611026565b8015610f7057610f35610f9692600654610dc8565b6001600160a01b03909116600090815260086020526040812054909181811115610f6b57610f689250610e11565b919080601f84011215610ebc57825190610fdd82610e56565b91610feb6040519384610e1e565b808352602091828287010111610ebc5760005b81811061101357508260009394955001015290565b8581018301518482018401528201610ffe565b600354604080516318160ddd60e01b81526001600160a01b03928316949391929091600491602091828585818b5afa9485156112d4576000956112a5575b5060009560009860005b8781106110815750505050505050509190565b825163bcae060160e01b81528781018290526024906000818381875afa80916000938493611108575b50506110d95750505b60001981146110c45760010161106e565b601187634e487b7160e01b6000525260246000fd5b909b816110e591610ea2565b9b8616858716146110f7575b506110b3565b6111019199610ea2565b97386110f1565b90939192503d8083863e61111c8186610e1e565b8401906101a08583031261016d5784519067ffffffffffffffff9182811161026d578361114a918801610fc4565b508b86015182811161026d5783611162918801610fc4565b508886015182811161026d578361117a918801610fc4565b50606086015182811161026d5783611193918801610fc4565b50608086015182811161026d57836111ac918801610fc4565b5060a086015182811161026d5786019083601f8301121561026d5781519083821161129457508c808260051b928c51906111e883860183610e1e565b815201918301019184831161094c578d8101915b83831061126b575050505060c0850151818111611267578261121f918701610fc4565b5060e085015190811161016d5790611238918501610fc4565b5061014083015190888216820361038e575061125d6101806101608501519401610eaf565b50919038806110aa565b8380fd5b8251858111611290578f9161128588848094870101610fc4565b8152019201916111fc565b8780fd5b634e487b7160e01b865260418f5285fd5b90948382813d83116112cd575b6112bc8183610e1e565b8101031261038e5750519338611064565b503d6112b2565b86513d6000823e3d90fd5b156112e657565b60405162461bcd60e51b815260206004820152601260248201527108cc2d2d8cac840e8de40e6cadcc8408aa8960731b6044820152606490fd5b1561132757565b60405162461bcd60e51b81526020600482015260136024820152724661696c656420746f2073656e64205553444360681b6044820152606490fd5b1561136957565b60405162461bcd60e51b815260206004820152600f60248201526e496e76616c6964206164647265737360881b6044820152606490fdfe177ab0490e0ad21e74e1914b6feae1516cc9b51df37e062adc260ad22f9571dba26469706673582212208dbcb0c645a7d750792ff7de7baef10474750bcdbad67a0cd489f0eef179542364736f6c63430008130033",
  "linkReferences": {},
  "deployedLinkReferences": {}
}